{"contracts/contracts/FogMemoryVerifier.sol":{"FogMemoryVerifier":{"abi":[{"inputs":[],"stateMutability":"nonpayable","type":"constructor"},{"inputs":[{"internalType":"address","name":"owner","type":"address"}],"name":"OwnableInvalidOwner","type":"error"},{"inputs":[{"internalType":"address","name":"account","type":"address"}],"name":"OwnableUnauthorizedAccount","type":"error"},{"anonymous":false,"inputs":[{"indexed":true,"internalType":"bytes32","name":"memoryHash","type":"bytes32"},{"indexed":true,"internalType":"address","name":"verifier","type":"address"},{"indexed":false,"internalType":"bool","name":"isValid","type":"bool"},{"indexed":false,"internalType":"uint256","name":"confidence","type":"uint256"}],"name":"MemoryVerified","type":"event"},{"anonymous":false,"inputs":[{"indexed":true,"internalType":"address","name":"previousOwner","type":"address"},{"indexed":true,"internalType":"address","name":"newOwner","type":"address"}],"name":"OwnershipTransferred","type":"event"},{"anonymous":false,"inputs":[{"indexed":true,"internalType":"address","name":"verifier","type":"address"},{"indexed":false,"internalType":"string","name":"name","type":"string"}],"name":"VerifierAdded","type":"event"},{"anonymous":false,"inputs":[{"indexed":true,"internalType":"address","name":"verifier","type":"address"}],"name":"VerifierRemoved","type":"event"},{"anonymous":false,"inputs":[{"indexed":true,"internalType":"address","name":"verifier","type":"address"},{"indexed":false,"internalType":"uint256","name":"newReputation","type":"uint256"}],"name":"VerifierReputationUpdated","type":"event"},{"inputs":[{"internalType":"address","name":"verifierAddress","type":"address"},{"internalType":"string","name":"name","type":"string"}],"name":"addVerifier","outputs":[],"stateMutability":"nonpayable","type":"function"},{"inputs":[{"internalType":"bytes32","name":"memoryHash","type":"bytes32"}],"name":"getVerificationCount","outputs":[{"internalType":"uint256","name":"","type":"uint256"}],"stateMutability":"view","type":"function"},{"inputs":[{"internalType":"bytes32","name":"memoryHash","type":"bytes32"}],"name":"getVerifications","outputs":[{"components":[{"internalType":"bytes32","name":"memoryHash","type":"bytes32"},{"internalType":"address","name":"verifier","type":"address"},{"internalType":"uint256","name":"timestamp","type":"uint256"},{"internalType":"uint256","name":"confidence","type":"uint256"},{"internalType":"string","name":"notes","type":"string"},{"internalType":"bool","name":"isValid","type":"bool"}],"internalType":"struct FogMemoryVerifier.Verification[]","name":"","type":"tuple[]"}],"stateMutability":"view","type":"function"},{"inputs":[],"name":"getVerifierCount","outputs":[{"internalType":"uint256","name":"","type":"uint256"}],"stateMutability":"view","type":"function"},{"inputs":[{"internalType":"bytes32","name":"memoryHash","type":"bytes32"}],"name":"isMemoryVerified","outputs":[{"internalType":"bool","name":"","type":"bool"}],"stateMutability":"view","type":"function"},{"inputs":[],"name":"minConfidenceThreshold","outputs":[{"internalType":"uint256","name":"","type":"uint256"}],"stateMutability":"view","type":"function"},{"inputs":[],"name":"owner","outputs":[{"internalType":"address","name":"","type":"address"}],"stateMutability":"view","type":"function"},{"inputs":[{"internalType":"address","name":"verifierAddress","type":"address"}],"name":"removeVerifier","outputs":[],"stateMutability":"nonpayable","type":"function"},{"inputs":[],"name":"renounceOwnership","outputs":[],"stateMutability":"nonpayable","type":"function"},{"inputs":[{"internalType":"uint256","name":"newThreshold","type":"uint256"}],"name":"setConfidenceThreshold","outputs":[],"stateMutability":"nonpayable","type":"function"},{"inputs":[{"internalType":"address","name":"newOwner","type":"address"}],"name":"transferOwnership","outputs":[],"stateMutability":"nonpayable","type":"function"},{"inputs":[{"internalType":"bytes32","name":"","type":"bytes32"},{"internalType":"uint256","name":"","type":"uint256"}],"name":"verifications","outputs":[{"internalType":"bytes32","name":"memoryHash","type":"bytes32"},{"internalType":"address","name":"verifier","type":"address"},{"internalType":"uint256","name":"timestamp","type":"uint256"},{"internalType":"uint256","name":"confidence","type":"uint256"},{"internalType":"string","name":"notes","type":"string"},{"internalType":"bool","name":"isValid","type":"bool"}],"stateMutability":"view","type":"function"},{"inputs":[{"internalType":"uint256","name":"","type":"uint256"}],"name":"verifierList","outputs":[{"internalType":"address","name":"","type":"address"}],"stateMutability":"view","type":"function"},{"inputs":[{"internalType":"address","name":"","type":"address"}],"name":"verifiers","outputs":[{"internalType":"address","name":"verifierAddress","type":"address"},{"internalType":"string","name":"name","type":"string"},{"internalType":"uint256","name":"reputation","type":"uint256"},{"internalType":"bool","name":"isActive","type":"bool"},{"internalType":"uint256","name":"totalVerifications","type":"uint256"}],"stateMutability":"view","type":"function"},{"inputs":[{"internalType":"bytes32","name":"memoryHash","type":"bytes32"},{"internalType":"bool","name":"isValid","type":"bool"},{"internalType":"uint256","name":"confidence","type":"uint256"},{"internalType":"string","name":"notes","type":"string"}],"name":"verifyMemory","outputs":[{"internalType":"bool","name":"","type":"bool"}],"stateMutability":"nonpayable","type":"function"}],"evm":{"bytecode":{"linkReferences":{},"object":"608060405260466004553480156200001657600080fd5b5033600073ffffffffffffffffffffffffffffffffffffffff168173ffffffffffffffffffffffffffffffffffffffff16036200008d5760006040517f1e4fbdf7000000000000000000000000000000000000000000000000000000008152600401620000849190620001ae565b60405180910390fd5b6200009e81620000a560201b60201c565b50620001cb565b60008060009054906101000a900473ffffffffffffffffffffffffffffffffffffffff169050816000806101000a81548173ffffffffffffffffffffffffffffffffffffffff021916908373ffffffffffffffffffffffffffffffffffffffff1602179055508173ffffffffffffffffffffffffffffffffffffffff168173ffffffffffffffffffffffffffffffffffffffff167f8be0079c531659141344cd1fd0a4f28419497f9722a3daafe3b4186f6b6457e060405160405180910390a35050565b600073ffffffffffffffffffffffffffffffffffffffff82169050919050565b6000620001968262000169565b9050919050565b620001a88162000189565b82525050565b6000602082019050620001c560008301846200019d565b92915050565b6121d580620001db6000396000f3fe608060405234801561001057600080fd5b50600436106100f55760003560e01c806376cde8c011610097578063ca2dfd0a11610066578063ca2dfd0a1461028a578063d1e94e57146102a6578063f2fde38b146102db578063fcdd5261146102f7576100f5565b806376cde8c0146102025780638da5cb5b1461021e5780638e3103c91461023c578063b9c688a71461026c576100f5565b80636c824487116100d35780636c8244871461018a578063715018a6146101be5780637340792a146101c857806374849185146101e4576100f5565b80635585863a146100fa57806357762ddd1461012a578063611cf5e31461015a575b600080fd5b610114600480360381019061010f9190611395565b610327565b60405161012191906113db565b60405180910390f35b610144600480360381019061013f9190611422565b610347565b6040516101519190611490565b60405180910390f35b610174600480360381019061016f9190611548565b610386565b60405161018191906115df565b60405180910390f35b6101a4600480360381019061019f9190611626565b610715565b6040516101b59594939291906116e3565b60405180910390f35b6101c6610800565b005b6101e260048036038101906101dd919061173d565b610814565b005b6101ec610abd565b6040516101f991906113db565b60405180910390f35b61021c60048036038101906102179190611422565b610ac3565b005b610226610b19565b6040516102339190611490565b60405180910390f35b61025660048036038101906102519190611395565b610b42565b60405161026391906115df565b60405180910390f35b610274610d96565b60405161028191906113db565b60405180910390f35b6102a4600480360381019061029f9190611626565b610da3565b005b6102c060048036038101906102bb919061179d565b610edb565b6040516102d2969594939291906117ec565b60405180910390f35b6102f560048036038101906102f09190611626565b610fe9565b005b610311600480360381019061030c9190611395565b61106f565b60405161031e9190611a25565b60405180910390f35b600060016000838152602001908152602001600020805490509050919050565b6003818154811061035757600080fd5b906000526020600020016000915054906101000a900473ffffffffffffffffffffffffffffffffffffffff1681565b6000600260003373ffffffffffffffffffffffffffffffffffffffff1673ffffffffffffffffffffffffffffffffffffffff16815260200190815260200160002060030160009054906101000a900460ff16610417576040517f08c379a000000000000000000000000000000000000000000000000000000000815260040161040e90611a93565b60405180910390fd5b606484111561045b576040517f08c379a000000000000000000000000000000000000000000000000000000000815260040161045290611aff565b60405180910390fd5b6103e88383905011156104a3576040517f08c379a000000000000000000000000000000000000000000000000000000000815260040161049a90611b6b565b60405180910390fd5b60006040518060c001604052808881526020013373ffffffffffffffffffffffffffffffffffffffff16815260200142815260200186815260200185858080601f016020809104026020016040519081016040528093929190818152602001838380828437600081840152601f19601f8201169050808301925050505050505081526020018715158152509050600160008881526020019081526020016000208190806001815401808255809150506001900390600052602060002090600602016000909190919091506000820151816000015560208201518160010160006101000a81548173ffffffffffffffffffffffffffffffffffffffff021916908373ffffffffffffffffffffffffffffffffffffffff160217905550604082015181600201556060820151816003015560808201518160040190816105e79190611dc6565b5060a08201518160050160006101000a81548160ff02191690831515021790555050506000600260003373ffffffffffffffffffffffffffffffffffffffff1673ffffffffffffffffffffffffffffffffffffffff168152602001908152602001600020905080600401600081548092919061066290611ec7565b919050555086801561067657506004548610155b156106b55760646001826002015461068e9190611f0f565b116106a957600181600201546106a49190611f0f565b6106ac565b60645b81600201819055505b3373ffffffffffffffffffffffffffffffffffffffff16887fe031bf2b0661fd3c7c266b5c1c6504f0f17e5cea048030e0c50f46262c928cea89896040516106fe929190611f43565b60405180910390a360019250505095945050505050565b60026020528060005260406000206000915090508060000160009054906101000a900473ffffffffffffffffffffffffffffffffffffffff169080600101805461075e90611be9565b80601f016020809104026020016040519081016040528092919081815260200182805461078a90611be9565b80156107d75780601f106107ac576101008083540402835291602001916107d7565b820191906000526020600020905b8154815290600101906020018083116107ba57829003601f168201915b5050505050908060020154908060030160009054906101000a900460ff16908060040154905085565b610808611202565b6108126000611289565b565b61081c611202565b600260008473ffffffffffffffffffffffffffffffffffffffff1673ffffffffffffffffffffffffffffffffffffffff16815260200190815260200160002060030160009054906101000a900460ff16156108ac576040517f08c379a00000000000000000000000000000000000000000000000000000000081526004016108a390611fb8565b60405180910390fd5b6040518060a001604052808473ffffffffffffffffffffffffffffffffffffffff16815260200183838080601f016020809104026020016040519081016040528093929190818152602001838380828437600081840152601f19601f820116905080830192505050505050508152602001603281526020016001151581526020016000815250600260008573ffffffffffffffffffffffffffffffffffffffff1673ffffffffffffffffffffffffffffffffffffffff16815260200190815260200160002060008201518160000160006101000a81548173ffffffffffffffffffffffffffffffffffffffff021916908373ffffffffffffffffffffffffffffffffffffffff16021790555060208201518160010190816109cd9190611dc6565b506040820151816002015560608201518160030160006101000a81548160ff021916908315150217905550608082015181600401559050506003839080600181540180825580915050600190039060005260206000200160009091909190916101000a81548173ffffffffffffffffffffffffffffffffffffffff021916908373ffffffffffffffffffffffffffffffffffffffff1602179055508273ffffffffffffffffffffffffffffffffffffffff167f30b5eb94a54f18a967aed7e72caf39194d0f0ba44ed3fed9febc2f35555611588383604051610ab0929190612014565b60405180910390a2505050565b60045481565b610acb611202565b6064811115610b0f576040517f08c379a0000000000000000000000000000000000000000000000000000000008152600401610b0690612084565b60405180910390fd5b8060048190555050565b60008060009054906101000a900473ffffffffffffffffffffffffffffffffffffffff16905090565b60008060016000848152602001908152602001600020805480602002602001604051908101604052809291908181526020016000905b82821015610ccb57838290600052602060002090600602016040518060c0016040529081600082015481526020016001820160009054906101000a900473ffffffffffffffffffffffffffffffffffffffff1673ffffffffffffffffffffffffffffffffffffffff1673ffffffffffffffffffffffffffffffffffffffff1681526020016002820154815260200160038201548152602001600482018054610c1f90611be9565b80601f0160208091040260200160405190810160405280929190818152602001828054610c4b90611be9565b8015610c985780601f10610c6d57610100808354040283529160200191610c98565b820191906000526020600020905b815481529060010190602001808311610c7b57829003601f168201915b505050505081526020016005820160009054906101000a900460ff16151515158152505081526020019060010190610b78565b50505050905060008060005b8351811015610d5257838181518110610cf357610cf26120a4565b5b602002602001015160a0015115610d3f578280610d0f90611ec7565b935050838181518110610d2557610d246120a4565b5b60200260200101516060015182610d3c9190611f0f565b91505b8080610d4a90611ec7565b915050610cd7565b5060008203610d675760009350505050610d91565b60008282610d759190612102565b90506004548110158015610d8a575060028310155b9450505050505b919050565b6000600380549050905090565b610dab611202565b600260008273ffffffffffffffffffffffffffffffffffffffff1673ffffffffffffffffffffffffffffffffffffffff16815260200190815260200160002060030160009054906101000a900460ff16610e3a576040517f08c379a0000000000000000000000000000000000000000000000000000000008152600401610e319061217f565b60405180910390fd5b6000600260008373ffffffffffffffffffffffffffffffffffffffff1673ffffffffffffffffffffffffffffffffffffffff16815260200190815260200160002060030160006101000a81548160ff0219169083151502179055508073ffffffffffffffffffffffffffffffffffffffff167f44a3cd4eb5cc5748f6169df057b1cb2ae4c383e87cd94663c430e095d4cba42460405160405180910390a250565b60016020528160005260406000208181548110610ef757600080fd5b9060005260206000209060060201600091509150508060000154908060010160009054906101000a900473ffffffffffffffffffffffffffffffffffffffff1690806002015490806003015490806004018054610f5390611be9565b80601f0160208091040260200160405190810160405280929190818152602001828054610f7f90611be9565b8015610fcc5780601f10610fa157610100808354040283529160200191610fcc565b820191906000526020600020905b815481529060010190602001808311610faf57829003601f168201915b5050505050908060050160009054906101000a900460ff16905086565b610ff1611202565b600073ffffffffffffffffffffffffffffffffffffffff168173ffffffffffffffffffffffffffffffffffffffff16036110635760006040517f1e4fbdf700000000000000000000000000000000000000000000000000000000815260040161105a9190611490565b60405180910390fd5b61106c81611289565b50565b606060016000838152602001908152602001600020805480602002602001604051908101604052809291908181526020016000905b828210156111f757838290600052602060002090600602016040518060c0016040529081600082015481526020016001820160009054906101000a900473ffffffffffffffffffffffffffffffffffffffff1673ffffffffffffffffffffffffffffffffffffffff1673ffffffffffffffffffffffffffffffffffffffff168152602001600282015481526020016003820154815260200160048201805461114b90611be9565b80601f016020809104026020016040519081016040528092919081815260200182805461117790611be9565b80156111c45780601f10611199576101008083540402835291602001916111c4565b820191906000526020600020905b8154815290600101906020018083116111a757829003601f168201915b505050505081526020016005820160009054906101000a900460ff161515151581525050815260200190600101906110a4565b505050509050919050565b61120a61134d565b73ffffffffffffffffffffffffffffffffffffffff16611228610b19565b73ffffffffffffffffffffffffffffffffffffffff16146112875761124b61134d565b6040517f118cdaa700000000000000000000000000000000000000000000000000000000815260040161127e9190611490565b60405180910390fd5b565b60008060009054906101000a900473ffffffffffffffffffffffffffffffffffffffff169050816000806101000a81548173ffffffffffffffffffffffffffffffffffffffff021916908373ffffffffffffffffffffffffffffffffffffffff1602179055508173ffffffffffffffffffffffffffffffffffffffff168173ffffffffffffffffffffffffffffffffffffffff167f8be0079c531659141344cd1fd0a4f28419497f9722a3daafe3b4186f6b6457e060405160405180910390a35050565b600033905090565b600080fd5b600080fd5b6000819050919050565b6113728161135f565b811461137d57600080fd5b50565b60008135905061138f81611369565b92915050565b6000602082840312156113ab576113aa611355565b5b60006113b984828501611380565b91505092915050565b6000819050919050565b6113d5816113c2565b82525050565b60006020820190506113f060008301846113cc565b92915050565b6113ff816113c2565b811461140a57600080fd5b50565b60008135905061141c816113f6565b92915050565b60006020828403121561143857611437611355565b5b60006114468482850161140d565b91505092915050565b600073ffffffffffffffffffffffffffffffffffffffff82169050919050565b600061147a8261144f565b9050919050565b61148a8161146f565b82525050565b60006020820190506114a56000830184611481565b92915050565b60008115159050919050565b6114c0816114ab565b81146114cb57600080fd5b50565b6000813590506114dd816114b7565b92915050565b600080fd5b600080fd5b600080fd5b60008083601f840112611508576115076114e3565b5b8235905067ffffffffffffffff811115611525576115246114e8565b5b602083019150836001820283011115611541576115406114ed565b5b9250929050565b60008060008060006080868803121561156457611563611355565b5b600061157288828901611380565b9550506020611583888289016114ce565b94505060406115948882890161140d565b935050606086013567ffffffffffffffff8111156115b5576115b461135a565b5b6115c1888289016114f2565b92509250509295509295909350565b6115d9816114ab565b82525050565b60006020820190506115f460008301846115d0565b92915050565b6116038161146f565b811461160e57600080fd5b50565b600081359050611620816115fa565b92915050565b60006020828403121561163c5761163b611355565b5b600061164a84828501611611565b91505092915050565b600081519050919050565b600082825260208201905092915050565b60005b8381101561168d578082015181840152602081019050611672565b60008484015250505050565b6000601f19601f8301169050919050565b60006116b582611653565b6116bf818561165e565b93506116cf81856020860161166f565b6116d881611699565b840191505092915050565b600060a0820190506116f86000830188611481565b818103602083015261170a81876116aa565b905061171960408301866113cc565b61172660608301856115d0565b61173360808301846113cc565b9695505050505050565b60008060006040848603121561175657611755611355565b5b600061176486828701611611565b935050602084013567ffffffffffffffff8111156117855761178461135a565b5b611791868287016114f2565b92509250509250925092565b600080604083850312156117b4576117b3611355565b5b60006117c285828601611380565b92505060206117d38582860161140d565b9150509250929050565b6117e68161135f565b82525050565b600060c08201905061180160008301896117dd565b61180e6020830188611481565b61181b60408301876113cc565b61182860608301866113cc565b818103608083015261183a81856116aa565b905061184960a08301846115d0565b979650505050505050565b600081519050919050565b600082825260208201905092915050565b6000819050602082019050919050565b6118898161135f565b82525050565b6118988161146f565b82525050565b6118a7816113c2565b82525050565b600082825260208201905092915050565b60006118c982611653565b6118d381856118ad565b93506118e381856020860161166f565b6118ec81611699565b840191505092915050565b611900816114ab565b82525050565b600060c08301600083015161191e6000860182611880565b506020830151611931602086018261188f565b506040830151611944604086018261189e565b506060830151611957606086018261189e565b506080830151848203608086015261196f82826118be565b91505060a083015161198460a08601826118f7565b508091505092915050565b600061199b8383611906565b905092915050565b6000602082019050919050565b60006119bb82611854565b6119c5818561185f565b9350836020820285016119d785611870565b8060005b85811015611a1357848403895281516119f4858261198f565b94506119ff836119a3565b925060208a019950506001810190506119db565b50829750879550505050505092915050565b60006020820190508181036000830152611a3f81846119b0565b905092915050565b7f4e6f7420616e2061637469766520766572696669657200000000000000000000600082015250565b6000611a7d60168361165e565b9150611a8882611a47565b602082019050919050565b60006020820190508181036000830152611aac81611a70565b9050919050565b7f436f6e666964656e6365206d75737420626520302d3130300000000000000000600082015250565b6000611ae960188361165e565b9150611af482611ab3565b602082019050919050565b60006020820190508181036000830152611b1881611adc565b9050919050565b7f4e6f74657320746f6f206c6f6e67000000000000000000000000000000000000600082015250565b6000611b55600e8361165e565b9150611b6082611b1f565b602082019050919050565b60006020820190508181036000830152611b8481611b48565b9050919050565b7f4e487b7100000000000000000000000000000000000000000000000000000000600052604160045260246000fd5b7f4e487b7100000000000000000000000000000000000000000000000000000000600052602260045260246000fd5b60006002820490506001821680611c0157607f821691505b602082108103611c1457611c13611bba565b5b50919050565b60008190508160005260206000209050919050565b60006020601f8301049050919050565b600082821b905092915050565b600060088302611c7c7fffffffffffffffffffffffffffffffffffffffffffffffffffffffffffffffff82611c3f565b611c868683611c3f565b95508019841693508086168417925050509392505050565b6000819050919050565b6000611cc3611cbe611cb9846113c2565b611c9e565b6113c2565b9050919050565b6000819050919050565b611cdd83611ca8565b611cf1611ce982611cca565b848454611c4c565b825550505050565b600090565b611d06611cf9565b611d11818484611cd4565b505050565b5b81811015611d3557611d2a600082611cfe565b600181019050611d17565b5050565b601f821115611d7a57611d4b81611c1a565b611d5484611c2f565b81016020851015611d63578190505b611d77611d6f85611c2f565b830182611d16565b50505b505050565b600082821c905092915050565b6000611d9d60001984600802611d7f565b1980831691505092915050565b6000611db68383611d8c565b9150826002028217905092915050565b611dcf82611653565b67ffffffffffffffff811115611de857611de7611b8b565b5b611df28254611be9565b611dfd828285611d39565b600060209050601f831160018114611e305760008415611e1e578287015190505b611e288582611daa565b865550611e90565b601f198416611e3e86611c1a565b60005b82811015611e6657848901518255600182019150602085019450602081019050611e41565b86831015611e835784890151611e7f601f891682611d8c565b8355505b6001600288020188555050505b505050505050565b7f4e487b7100000000000000000000000000000000000000000000000000000000600052601160045260246000fd5b6000611ed2826113c2565b91507fffffffffffffffffffffffffffffffffffffffffffffffffffffffffffffffff8203611f0457611f03611e98565b5b600182019050919050565b6000611f1a826113c2565b9150611f25836113c2565b9250828201905080821115611f3d57611f3c611e98565b5b92915050565b6000604082019050611f5860008301856115d0565b611f6560208301846113cc565b9392505050565b7f416c726561647920612076657269666965720000000000000000000000000000600082015250565b6000611fa260128361165e565b9150611fad82611f6c565b602082019050919050565b60006020820190508181036000830152611fd181611f95565b9050919050565b82818337600083830152505050565b6000611ff3838561165e565b9350612000838584611fd8565b61200983611699565b840190509392505050565b6000602082019050818103600083015261202f818486611fe7565b90509392505050565b7f4d61782031303000000000000000000000000000000000000000000000000000600082015250565b600061206e60078361165e565b915061207982612038565b602082019050919050565b6000602082019050818103600083015261209d81612061565b9050919050565b7f4e487b7100000000000000000000000000000000000000000000000000000000600052603260045260246000fd5b7f4e487b7100000000000000000000000000000000000000000000000000000000600052601260045260246000fd5b600061210d826113c2565b9150612118836113c2565b925082612128576121276120d3565b5b828204905092915050565b7f4e6f742061207665726966696572000000000000000000000000000000000000600082015250565b6000612169600e8361165e565b915061217482612133565b602082019050919050565b600060208201905081810360008301526121988161215c565b905091905056fea264697066735822122073b7ae21320cadcc0f30c125f1cb36c1337485eb9a8af3a80dde49ff3947bb6164736f6c63430008140033","opcodes":"PUSH1 0x80 PUSH1 0x40 MSTORE PUSH1 0x46 PUSH1 0x4 SSTORE CALLVALUE DUP1 ISZERO PUSH3 0x16 JUMPI PUSH1 0x0 DUP1 REVERT JUMPDEST POP CALLER PUSH1 0x0 PUSH20 0xFFFFFFFFFFFFFFFFFFFFFFFFFFFFFFFFFFFFFFFF AND DUP2 PUSH20 0xFFFFFFFFFFFFFFFFFFFFFFFFFFFFFFFFFFFFFFFF AND SUB PUSH3 0x8D JUMPI PUSH1 0x0 PUSH1 0x40 MLOAD PUSH32 0x1E4FBDF700000000000000000000000000000000000000000000000000000000 DUP2 MSTORE PUSH1 0x4 ADD PUSH3 0x84 SWAP2 SWAP1 PUSH3 0x1AE JUMP JUMPDEST PUSH1 0x40 MLOAD DUP1 SWAP2 SUB SWAP1 REVERT JUMPDEST PUSH3 0x9E DUP2 PUSH3 0xA5 PUSH1 0x20 SHL PUSH1 0x20 SHR JUMP JUMPDEST POP PUSH3 0x1CB JUMP JUMPDEST PUSH1 0x0 DUP1 PUSH1 0x0 SWAP1 SLOAD SWAP1 PUSH2 0x100 EXP SWAP1 DIV PUSH20 0xFFFFFFFFFFFFFFFFFFFFFFFFFFFFFFFFFFFFFFFF AND SWAP1 POP DUP2 PUSH1 0x0 DUP1 PUSH2 0x100 EXP DUP2 SLOAD DUP2 PUSH20 0xFFFFFFFFFFFFFFFFFFFFFFFFFFFFFFFFFFFFFFFF MUL NOT AND SWAP1 DUP4 PUSH20 0xFFFFFFFFFFFFFFFFFFFFFFFFFFFFFFFFFFFFFFFF AND MUL OR SWAP1 SSTORE POP DUP2 PUSH20 0xFFFFFFFFFFFFFFFFFFFFFFFFFFFFFFFFFFFFFFFF AND DUP2 PUSH20 0xFFFFFFFFFFFFFFFFFFFFFFFFFFFFFFFFFFFFFFFF AND PUSH32 0x8BE0079C531659141344CD1FD0A4F28419497F9722A3DAAFE3B4186F6B6457E0 PUSH1 0x40 MLOAD PUSH1 0x40 MLOAD DUP1 SWAP2 SUB SWAP1 LOG3 POP POP JUMP JUMPDEST PUSH1 0x0 PUSH20 0xFFFFFFFFFFFFFFFFFFFFFFFFFFFFFFFFFFFFFFFF DUP3 AND SWAP1 POP SWAP2 SWAP1 POP JUMP JUMPDEST PUSH1 0x0 PUSH3 0x196 DUP3 PUSH3 0x169 JUMP JUMPDEST SWAP1 POP SWAP2 SWAP1 POP JUMP JUMPDEST PUSH3 0x1A8 DUP2 PUSH3 0x189 JUMP JUMPDEST DUP3 MSTORE POP POP JUMP JUMPDEST PUSH1 0x0 PUSH1 0x20 DUP3 ADD SWAP1 POP PUSH3 0x1C5 PUSH1 0x0 DUP4 ADD DUP5 PUSH3 0x19D JUMP JUMPDEST SWAP3 SWAP2 POP POP JUMP JUMPDEST PUSH2 0x21D5 DUP1 PUSH3 0x1DB PUSH1 0x0 CODECOPY PUSH1 0x0 RETURN INVALID PUSH1 0x80 PUSH1 0x40 MSTORE CALLVALUE DUP1 ISZERO PUSH2 0x10 JUMPI PUSH1 0x0 DUP1 REVERT JUMPDEST POP PUSH1 0x4 CALLDATASIZE LT PUSH2 0xF5 JUMPI PUSH1 0x0 CALLDATALOAD PUSH1 0xE0 SHR DUP1 PUSH4 0x76CDE8C0 GT PUSH2 0x97 JUMPI DUP1 PUSH4 0xCA2DFD0A GT PUSH2 0x66 JUMPI DUP1 PUSH4 0xCA2DFD0A EQ PUSH2 0x28A JUMPI DUP1 PUSH4 0xD1E94E57 EQ PUSH2 0x2A6 JUMPI DUP1 PUSH4 0xF2FDE38B EQ PUSH2 0x2DB JUMPI DUP1 PUSH4 0xFCDD5261 EQ PUSH2 0x2F7 JUMPI PUSH2 0xF5 JUMP JUMPDEST DUP1 PUSH4 0x76CDE8C0 EQ PUSH2 0x202 JUMPI DUP1 PUSH4 0x8DA5CB5B EQ PUSH2 0x21E JUMPI DUP1 PUSH4 0x8E3103C9 EQ PUSH2 0x23C JUMPI DUP1 PUSH4 0xB9C688A7 EQ PUSH2 0x26C JUMPI PUSH2 0xF5 JUMP JUMPDEST DUP1 PUSH4 0x6C824487 GT PUSH2 0xD3 JUMPI DUP1 PUSH4 0x6C824487 EQ PUSH2 0x18A JUMPI DUP1 PUSH4 0x715018A6 EQ PUSH2 0x1BE JUMPI DUP1 PUSH4 0x7340792A EQ PUSH2 0x1C8 JUMPI DUP1 PUSH4 0x74849185 EQ PUSH2 0x1E4 JUMPI PUSH2 0xF5 JUMP JUMPDEST DUP1 PUSH4 0x5585863A EQ PUSH2 0xFA JUMPI DUP1 PUSH4 0x57762DDD EQ PUSH2 0x12A JUMPI DUP1 PUSH4 0x611CF5E3 EQ PUSH2 0x15A JUMPI JUMPDEST PUSH1 0x0 DUP1 REVERT JUMPDEST PUSH2 0x114 PUSH1 0x4 DUP1 CALLDATASIZE SUB DUP2 ADD SWAP1 PUSH2 0x10F SWAP2 SWAP1 PUSH2 0x1395 JUMP JUMPDEST PUSH2 0x327 JUMP JUMPDEST PUSH1 0x40 MLOAD PUSH2 0x121 SWAP2 SWAP1 PUSH2 0x13DB JUMP JUMPDEST PUSH1 0x40 MLOAD DUP1 SWAP2 SUB SWAP1 RETURN JUMPDEST PUSH2 0x144 PUSH1 0x4 DUP1 CALLDATASIZE SUB DUP2 ADD SWAP1 PUSH2 0x13F SWAP2 SWAP1 PUSH2 0x1422 JUMP JUMPDEST PUSH2 0x347 JUMP JUMPDEST PUSH1 0x40 MLOAD PUSH2 0x151 SWAP2 SWAP1 PUSH2 0x1490 JUMP JUMPDEST PUSH1 0x40 MLOAD DUP1 SWAP2 SUB SWAP1 RETURN JUMPDEST PUSH2 0x174 PUSH1 0x4 DUP1 CALLDATASIZE SUB DUP2 ADD SWAP1 PUSH2 0x16F SWAP2 SWAP1 PUSH2 0x1548 JUMP JUMPDEST PUSH2 0x386 JUMP JUMPDEST PUSH1 0x40 MLOAD PUSH2 0x181 SWAP2 SWAP1 PUSH2 0x15DF JUMP JUMPDEST PUSH1 0x40 MLOAD DUP1 SWAP2 SUB SWAP1 RETURN JUMPDEST PUSH2 0x1A4 PUSH1 0x4 DUP1 CALLDATASIZE SUB DUP2 ADD SWAP1 PUSH2 0x19F SWAP2 SWAP1 PUSH2 0x1626 JUMP JUMPDEST PUSH2 0x715 JUMP JUMPDEST PUSH1 0x40 MLOAD PUSH2 0x1B5 SWAP6 SWAP5 SWAP4 SWAP3 SWAP2 SWAP1 PUSH2 0x16E3 JUMP JUMPDEST PUSH1 0x40 MLOAD DUP1 SWAP2 SUB SWAP1 RETURN JUMPDEST PUSH2 0x1C6 PUSH2 0x800 JUMP JUMPDEST STOP JUMPDEST PUSH2 0x1E2 PUSH1 0x4 DUP1 CALLDATASIZE SUB DUP2 ADD SWAP1 PUSH2 0x1DD SWAP2 SWAP1 PUSH2 0x173D JUMP JUMPDEST PUSH2 0x814 JUMP JUMPDEST STOP JUMPDEST PUSH2 0x1EC PUSH2 0xABD JUMP JUMPDEST PUSH1 0x40 MLOAD PUSH2 0x1F9 SWAP2 SWAP1 PUSH2 0x13DB JUMP JUMPDEST PUSH1 0x40 MLOAD DUP1 SWAP2 SUB SWAP1 RETURN JUMPDEST PUSH2 0x21C PUSH1 0x4 DUP1 CALLDATASIZE SUB DUP2 ADD SWAP1 PUSH2 0x217 SWAP2 SWAP1 PUSH2 0x1422 JUMP JUMPDEST PUSH2 0xAC3 JUMP JUMPDEST STOP JUMPDEST PUSH2 0x226 PUSH2 0xB19 JUMP JUMPDEST PUSH1 0x40 MLOAD PUSH2 0x233 SWAP2 SWAP1 PUSH2 0x1490 JUMP JUMPDEST PUSH1 0x40 MLOAD DUP1 SWAP2 SUB SWAP1 RETURN JUMPDEST PUSH2 0x256 PUSH1 0x4 DUP1 CALLDATASIZE SUB DUP2 ADD SWAP1 PUSH2 0x251 SWAP2 SWAP1 PUSH2 0x1395 JUMP JUMPDEST PUSH2 0xB42 JUMP JUMPDEST PUSH1 0x40 MLOAD PUSH2 0x263 SWAP2 SWAP1 PUSH2 0x15DF JUMP JUMPDEST PUSH1 0x40 MLOAD DUP1 SWAP2 SUB SWAP1 RETURN JUMPDEST PUSH2 0x274 PUSH2 0xD96 JUMP JUMPDEST PUSH1 0x40 MLOAD PUSH2 0x281 SWAP2 SWAP1 PUSH2 0x13DB JUMP JUMPDEST PUSH1 0x40 MLOAD DUP1 SWAP2 SUB SWAP1 RETURN JUMPDEST PUSH2 0x2A4 PUSH1 0x4 DUP1 CALLDATASIZE SUB DUP2 ADD SWAP1 PUSH2 0x29F SWAP2 SWAP1 PUSH2 0x1626 JUMP JUMPDEST PUSH2 0xDA3 JUMP JUMPDEST STOP JUMPDEST PUSH2 0x2C0 PUSH1 0x4 DUP1 CALLDATASIZE SUB DUP2 ADD SWAP1 PUSH2 0x2BB SWAP2 SWAP1 PUSH2 0x179D JUMP JUMPDEST PUSH2 0xEDB JUMP JUMPDEST PUSH1 0x40 MLOAD PUSH2 0x2D2 SWAP7 SWAP6 SWAP5 SWAP4 SWAP3 SWAP2 SWAP1 PUSH2 0x17EC JUMP JUMPDEST PUSH1 0x40 MLOAD DUP1 SWAP2 SUB SWAP1 RETURN JUMPDEST PUSH2 0x2F5 PUSH1 0x4 DUP1 CALLDATASIZE SUB DUP2 ADD SWAP1 PUSH2 0x2F0 SWAP2 SWAP1 PUSH2 0x1626 JUMP JUMPDEST PUSH2 0xFE9 JUMP JUMPDEST STOP JUMPDEST PUSH2 0x311 PUSH1 0x4 DUP1 CALLDATASIZE SUB DUP2 ADD SWAP1 PUSH2 0x30C SWAP2 SWAP1 PUSH2 0x1395 JUMP JUMPDEST PUSH2 0x106F JUMP JUMPDEST PUSH1 0x40 MLOAD PUSH2 0x31E SWAP2 SWAP1 PUSH2 0x1A25 JUMP JUMPDEST PUSH1 0x40 MLOAD DUP1 SWAP2 SUB SWAP1 RETURN JUMPDEST PUSH1 0x0 PUSH1 0x1 PUSH1 0x0 DUP4 DUP2 MSTORE PUSH1 0x20 ADD SWAP1 DUP2 MSTORE PUSH1 0x20 ADD PUSH1 0x0 KECCAK256 DUP1 SLOAD SWAP1 POP SWAP1 POP SWAP2 SWAP1 POP JUMP JUMPDEST PUSH1 0x3 DUP2 DUP2 SLOAD DUP2 LT PUSH2 0x357 JUMPI PUSH1 0x0 DUP1 REVERT JUMPDEST SWAP1 PUSH1 0x0 MSTORE PUSH1 0x20 PUSH1 0x0 KECCAK256 ADD PUSH1 0x0 SWAP2 POP SLOAD SWAP1 PUSH2 0x100 EXP SWAP1 DIV PUSH20 0xFFFFFFFFFFFFFFFFFFFFFFFFFFFFFFFFFFFFFFFF AND DUP2 JUMP JUMPDEST PUSH1 0x0 PUSH1 0x2 PUSH1 0x0 CALLER PUSH20 0xFFFFFFFFFFFFFFFFFFFFFFFFFFFFFFFFFFFFFFFF AND PUSH20 0xFFFFFFFFFFFFFFFFFFFFFFFFFFFFFFFFFFFFFFFF AND DUP2 MSTORE PUSH1 0x20 ADD SWAP1 DUP2 MSTORE PUSH1 0x20 ADD PUSH1 0x0 KECCAK256 PUSH1 0x3 ADD PUSH1 0x0 SWAP1 SLOAD SWAP1 PUSH2 0x100 EXP SWAP1 DIV PUSH1 0xFF AND PUSH2 0x417 JUMPI PUSH1 0x40 MLOAD PUSH32 0x8C379A000000000000000000000000000000000000000000000000000000000 DUP2 MSTORE PUSH1 0x4 ADD PUSH2 0x40E SWAP1 PUSH2 0x1A93 JUMP JUMPDEST PUSH1 0x40 MLOAD DUP1 SWAP2 SUB SWAP1 REVERT JUMPDEST PUSH1 0x64 DUP5 GT ISZERO PUSH2 0x45B JUMPI PUSH1 0x40 MLOAD PUSH32 0x8C379A000000000000000000000000000000000000000000000000000000000 DUP2 MSTORE PUSH1 0x4 ADD PUSH2 0x452 SWAP1 PUSH2 0x1AFF JUMP JUMPDEST PUSH1 0x40 MLOAD DUP1 SWAP2 SUB SWAP1 REVERT JUMPDEST PUSH2 0x3E8 DUP4 DUP4 SWAP1 POP GT ISZERO PUSH2 0x4A3 JUMPI PUSH1 0x40 MLOAD PUSH32 0x8C379A000000000000000000000000000000000000000000000000000000000 DUP2 MSTORE PUSH1 0x4 ADD PUSH2 0x49A SWAP1 PUSH2 0x1B6B JUMP JUMPDEST PUSH1 0x40 MLOAD DUP1 SWAP2 SUB SWAP1 REVERT JUMPDEST PUSH1 0x0 PUSH1 0x40 MLOAD DUP1 PUSH1 0xC0 ADD PUSH1 0x40 MSTORE DUP1 DUP9 DUP2 MSTORE PUSH1 0x20 ADD CALLER PUSH20 0xFFFFFFFFFFFFFFFFFFFFFFFFFFFFFFFFFFFFFFFF AND DUP2 MSTORE PUSH1 0x20 ADD TIMESTAMP DUP2 MSTORE PUSH1 0x20 ADD DUP7 DUP2 MSTORE PUSH1 0x20 ADD DUP6 DUP6 DUP1 DUP1 PUSH1 0x1F ADD PUSH1 0x20 DUP1 SWAP2 DIV MUL PUSH1 0x20 ADD PUSH1 0x40 MLOAD SWAP1 DUP2 ADD PUSH1 0x40 MSTORE DUP1 SWAP4 SWAP3 SWAP2 SWAP1 DUP2 DUP2 MSTORE PUSH1 0x20 ADD DUP4 DUP4 DUP1 DUP3 DUP5 CALLDATACOPY PUSH1 0x0 DUP2 DUP5 ADD MSTORE PUSH1 0x1F NOT PUSH1 0x1F DUP3 ADD AND SWAP1 POP DUP1 DUP4 ADD SWAP3 POP POP POP POP POP POP POP DUP2 MSTORE PUSH1 0x20 ADD DUP8 ISZERO ISZERO DUP2 MSTORE POP SWAP1 POP PUSH1 0x1 PUSH1 0x0 DUP9 DUP2 MSTORE PUSH1 0x20 ADD SWAP1 DUP2 MSTORE PUSH1 0x20 ADD PUSH1 0x0 KECCAK256 DUP2 SWAP1 DUP1 PUSH1 0x1 DUP2 SLOAD ADD DUP1 DUP3 SSTORE DUP1 SWAP2 POP POP PUSH1 0x1 SWAP1 SUB SWAP1 PUSH1 0x0 MSTORE PUSH1 0x20 PUSH1 0x0 KECCAK256 SWAP1 PUSH1 0x6 MUL ADD PUSH1 0x0 SWAP1 SWAP2 SWAP1 SWAP2 SWAP1 SWAP2 POP PUSH1 0x0 DUP3 ADD MLOAD DUP2 PUSH1 0x0 ADD SSTORE PUSH1 0x20 DUP3 ADD MLOAD DUP2 PUSH1 0x1 ADD PUSH1 0x0 PUSH2 0x100 EXP DUP2 SLOAD DUP2 PUSH20 0xFFFFFFFFFFFFFFFFFFFFFFFFFFFFFFFFFFFFFFFF MUL NOT AND SWAP1 DUP4 PUSH20 0xFFFFFFFFFFFFFFFFFFFFFFFFFFFFFFFFFFFFFFFF AND MUL OR SWAP1 SSTORE POP PUSH1 0x40 DUP3 ADD MLOAD DUP2 PUSH1 0x2 ADD SSTORE PUSH1 0x60 DUP3 ADD MLOAD DUP2 PUSH1 0x3 ADD SSTORE PUSH1 0x80 DUP3 ADD MLOAD DUP2 PUSH1 0x4 ADD SWAP1 DUP2 PUSH2 0x5E7 SWAP2 SWAP1 PUSH2 0x1DC6 JUMP JUMPDEST POP PUSH1 0xA0 DUP3 ADD MLOAD DUP2 PUSH1 0x5 ADD PUSH1 0x0 PUSH2 0x100 EXP DUP2 SLOAD DUP2 PUSH1 0xFF MUL NOT AND SWAP1 DUP4 ISZERO ISZERO MUL OR SWAP1 SSTORE POP POP POP PUSH1 0x0 PUSH1 0x2 PUSH1 0x0 CALLER PUSH20 0xFFFFFFFFFFFFFFFFFFFFFFFFFFFFFFFFFFFFFFFF AND PUSH20 0xFFFFFFFFFFFFFFFFFFFFFFFFFFFFFFFFFFFFFFFF AND DUP2 MSTORE PUSH1 0x20 ADD SWAP1 DUP2 MSTORE PUSH1 0x20 ADD PUSH1 0x0 KECCAK256 SWAP1 POP DUP1 PUSH1 0x4 ADD PUSH1 0x0 DUP2 SLOAD DUP1 SWAP3 SWAP2 SWAP1 PUSH2 0x662 SWAP1 PUSH2 0x1EC7 JUMP JUMPDEST SWAP2 SWAP1 POP SSTORE POP DUP7 DUP1 ISZERO PUSH2 0x676 JUMPI POP PUSH1 0x4 SLOAD DUP7 LT ISZERO JUMPDEST ISZERO PUSH2 0x6B5 JUMPI PUSH1 0x64 PUSH1 0x1 DUP3 PUSH1 0x2 ADD SLOAD PUSH2 0x68E SWAP2 SWAP1 PUSH2 0x1F0F JUMP JUMPDEST GT PUSH2 0x6A9 JUMPI PUSH1 0x1 DUP2 PUSH1 0x2 ADD SLOAD PUSH2 0x6A4 SWAP2 SWAP1 PUSH2 0x1F0F JUMP JUMPDEST PUSH2 0x6AC JUMP JUMPDEST PUSH1 0x64 JUMPDEST DUP2 PUSH1 0x2 ADD DUP2 SWAP1 SSTORE POP JUMPDEST CALLER PUSH20 0xFFFFFFFFFFFFFFFFFFFFFFFFFFFFFFFFFFFFFFFF AND DUP9 PUSH32 0xE031BF2B0661FD3C7C266B5C1C6504F0F17E5CEA048030E0C50F46262C928CEA DUP10 DUP10 PUSH1 0x40 MLOAD PUSH2 0x6FE SWAP3 SWAP2 SWAP1 PUSH2 0x1F43 JUMP JUMPDEST PUSH1 0x40 MLOAD DUP1 SWAP2 SUB SWAP1 LOG3 PUSH1 0x1 SWAP3 POP POP POP SWAP6 SWAP5 POP POP POP POP POP JUMP JUMPDEST PUSH1 0x2 PUSH1 0x20 MSTORE DUP1 PUSH1 0x0 MSTORE PUSH1 0x40 PUSH1 0x0 KECCAK256 PUSH1 0x0 SWAP2 POP SWAP1 POP DUP1 PUSH1 0x0 ADD PUSH1 0x0 SWAP1 SLOAD SWAP1 PUSH2 0x100 EXP SWAP1 DIV PUSH20 0xFFFFFFFFFFFFFFFFFFFFFFFFFFFFFFFFFFFFFFFF AND SWAP1 DUP1 PUSH1 0x1 ADD DUP1 SLOAD PUSH2 0x75E SWAP1 PUSH2 0x1BE9 JUMP JUMPDEST DUP1 PUSH1 0x1F ADD PUSH1 0x20 DUP1 SWAP2 DIV MUL PUSH1 0x20 ADD PUSH1 0x40 MLOAD SWAP1 DUP2 ADD PUSH1 0x40 MSTORE DUP1 SWAP3 SWAP2 SWAP1 DUP2 DUP2 MSTORE PUSH1 0x20 ADD DUP3 DUP1 SLOAD PUSH2 0x78A SWAP1 PUSH2 0x1BE9 JUMP JUMPDEST DUP1 ISZERO PUSH2 0x7D7 JUMPI DUP1 PUSH1 0x1F LT PUSH2 0x7AC JUMPI PUSH2 0x100 DUP1 DUP4 SLOAD DIV MUL DUP4 MSTORE SWAP2 PUSH1 0x20 ADD SWAP2 PUSH2 0x7D7 JUMP JUMPDEST DUP3 ADD SWAP2 SWAP1 PUSH1 0x0 MSTORE PUSH1 0x20 PUSH1 0x0 KECCAK256 SWAP1 JUMPDEST DUP2 SLOAD DUP2 MSTORE SWAP1 PUSH1 0x1 ADD SWAP1 PUSH1 0x20 ADD DUP1 DUP4 GT PUSH2 0x7BA JUMPI DUP3 SWAP1 SUB PUSH1 0x1F AND DUP3 ADD SWAP2 JUMPDEST POP POP POP POP POP SWAP1 DUP1 PUSH1 0x2 ADD SLOAD SWAP1 DUP1 PUSH1 0x3 ADD PUSH1 0x0 SWAP1 SLOAD SWAP1 PUSH2 0x100 EXP SWAP1 DIV PUSH1 0xFF AND SWAP1 DUP1 PUSH1 0x4 ADD SLOAD SWAP1 POP DUP6 JUMP JUMPDEST PUSH2 0x808 PUSH2 0x1202 JUMP JUMPDEST PUSH2 0x812 PUSH1 0x0 PUSH2 0x1289 JUMP JUMPDEST JUMP JUMPDEST PUSH2 0x81C PUSH2 0x1202 JUMP JUMPDEST PUSH1 0x2 PUSH1 0x0 DUP5 PUSH20 0xFFFFFFFFFFFFFFFFFFFFFFFFFFFFFFFFFFFFFFFF AND PUSH20 0xFFFFFFFFFFFFFFFFFFFFFFFFFFFFFFFFFFFFFFFF AND DUP2 MSTORE PUSH1 0x20 ADD SWAP1 DUP2 MSTORE PUSH1 0x20 ADD PUSH1 0x0 KECCAK256 PUSH1 0x3 ADD PUSH1 0x0 SWAP1 SLOAD SWAP1 PUSH2 0x100 EXP SWAP1 DIV PUSH1 0xFF AND ISZERO PUSH2 0x8AC JUMPI PUSH1 0x40 MLOAD PUSH32 0x8C379A000000000000000000000000000000000000000000000000000000000 DUP2 MSTORE PUSH1 0x4 ADD PUSH2 0x8A3 SWAP1 PUSH2 0x1FB8 JUMP JUMPDEST PUSH1 0x40 MLOAD DUP1 SWAP2 SUB SWAP1 REVERT JUMPDEST PUSH1 0x40 MLOAD DUP1 PUSH1 0xA0 ADD PUSH1 0x40 MSTORE DUP1 DUP5 PUSH20 0xFFFFFFFFFFFFFFFFFFFFFFFFFFFFFFFFFFFFFFFF AND DUP2 MSTORE PUSH1 0x20 ADD DUP4 DUP4 DUP1 DUP1 PUSH1 0x1F ADD PUSH1 0x20 DUP1 SWAP2 DIV MUL PUSH1 0x20 ADD PUSH1 0x40 MLOAD SWAP1 DUP2 ADD PUSH1 0x40 MSTORE DUP1 SWAP4 SWAP3 SWAP2 SWAP1 DUP2 DUP2 MSTORE PUSH1 0x20 ADD DUP4 DUP4 DUP1 DUP3 DUP5 CALLDATACOPY PUSH1 0x0 DUP2 DUP5 ADD MSTORE PUSH1 0x1F NOT PUSH1 0x1F DUP3 ADD AND SWAP1 POP DUP1 DUP4 ADD SWAP3 POP POP POP POP POP POP POP DUP2 MSTORE PUSH1 0x20 ADD PUSH1 0x32 DUP2 MSTORE PUSH1 0x20 ADD PUSH1 0x1 ISZERO ISZERO DUP2 MSTORE PUSH1 0x20 ADD PUSH1 0x0 DUP2 MSTORE POP PUSH1 0x2 PUSH1 0x0 DUP6 PUSH20 0xFFFFFFFFFFFFFFFFFFFFFFFFFFFFFFFFFFFFFFFF AND PUSH20 0xFFFFFFFFFFFFFFFFFFFFFFFFFFFFFFFFFFFFFFFF AND DUP2 MSTORE PUSH1 0x20 ADD SWAP1 DUP2 MSTORE PUSH1 0x20 ADD PUSH1 0x0 KECCAK256 PUSH1 0x0 DUP3 ADD MLOAD DUP2 PUSH1 0x0 ADD PUSH1 0x0 PUSH2 0x100 EXP DUP2 SLOAD DUP2 PUSH20 0xFFFFFFFFFFFFFFFFFFFFFFFFFFFFFFFFFFFFFFFF MUL NOT AND SWAP1 DUP4 PUSH20 0xFFFFFFFFFFFFFFFFFFFFFFFFFFFFFFFFFFFFFFFF AND MUL OR SWAP1 SSTORE POP PUSH1 0x20 DUP3 ADD MLOAD DUP2 PUSH1 0x1 ADD SWAP1 DUP2 PUSH2 0x9CD SWAP2 SWAP1 PUSH2 0x1DC6 JUMP JUMPDEST POP PUSH1 0x40 DUP3 ADD MLOAD DUP2 PUSH1 0x2 ADD SSTORE PUSH1 0x60 DUP3 ADD MLOAD DUP2 PUSH1 0x3 ADD PUSH1 0x0 PUSH2 0x100 EXP DUP2 SLOAD DUP2 PUSH1 0xFF MUL NOT AND SWAP1 DUP4 ISZERO ISZERO MUL OR SWAP1 SSTORE POP PUSH1 0x80 DUP3 ADD MLOAD DUP2 PUSH1 0x4 ADD SSTORE SWAP1 POP POP PUSH1 0x3 DUP4 SWAP1 DUP1 PUSH1 0x1 DUP2 SLOAD ADD DUP1 DUP3 SSTORE DUP1 SWAP2 POP POP PUSH1 0x1 SWAP1 SUB SWAP1 PUSH1 0x0 MSTORE PUSH1 0x20 PUSH1 0x0 KECCAK256 ADD PUSH1 0x0 SWAP1 SWAP2 SWAP1 SWAP2 SWAP1 SWAP2 PUSH2 0x100 EXP DUP2 SLOAD DUP2 PUSH20 0xFFFFFFFFFFFFFFFFFFFFFFFFFFFFFFFFFFFFFFFF MUL NOT AND SWAP1 DUP4 PUSH20 0xFFFFFFFFFFFFFFFFFFFFFFFFFFFFFFFFFFFFFFFF AND MUL OR SWAP1 SSTORE POP DUP3 PUSH20 0xFFFFFFFFFFFFFFFFFFFFFFFFFFFFFFFFFFFFFFFF AND PUSH32 0x30B5EB94A54F18A967AED7E72CAF39194D0F0BA44ED3FED9FEBC2F3555561158 DUP4 DUP4 PUSH1 0x40 MLOAD PUSH2 0xAB0 SWAP3 SWAP2 SWAP1 PUSH2 0x2014 JUMP JUMPDEST PUSH1 0x40 MLOAD DUP1 SWAP2 SUB SWAP1 LOG2 POP POP POP JUMP JUMPDEST PUSH1 0x4 SLOAD DUP2 JUMP JUMPDEST PUSH2 0xACB PUSH2 0x1202 JUMP JUMPDEST PUSH1 0x64 DUP2 GT ISZERO PUSH2 0xB0F JUMPI PUSH1 0x40 MLOAD PUSH32 0x8C379A000000000000000000000000000000000000000000000000000000000 DUP2 MSTORE PUSH1 0x4 ADD PUSH2 0xB06 SWAP1 PUSH2 0x2084 JUMP JUMPDEST PUSH1 0x40 MLOAD DUP1 SWAP2 SUB SWAP1 REVERT JUMPDEST DUP1 PUSH1 0x4 DUP2 SWAP1 SSTORE POP POP JUMP JUMPDEST PUSH1 0x0 DUP1 PUSH1 0x0 SWAP1 SLOAD SWAP1 PUSH2 0x100 EXP SWAP1 DIV PUSH20 0xFFFFFFFFFFFFFFFFFFFFFFFFFFFFFFFFFFFFFFFF AND SWAP1 POP SWAP1 JUMP JUMPDEST PUSH1 0x0 DUP1 PUSH1 0x1 PUSH1 0x0 DUP5 DUP2 MSTORE PUSH1 0x20 ADD SWAP1 DUP2 MSTORE PUSH1 0x20 ADD PUSH1 0x0 KECCAK256 DUP1 SLOAD DUP1 PUSH1 0x20 MUL PUSH1 0x20 ADD PUSH1 0x40 MLOAD SWAP1 DUP2 ADD PUSH1 0x40 MSTORE DUP1 SWAP3 SWAP2 SWAP1 DUP2 DUP2 MSTORE PUSH1 0x20 ADD PUSH1 0x0 SWAP1 JUMPDEST DUP3 DUP3 LT ISZERO PUSH2 0xCCB JUMPI DUP4 DUP3 SWAP1 PUSH1 0x0 MSTORE PUSH1 0x20 PUSH1 0x0 KECCAK256 SWAP1 PUSH1 0x6 MUL ADD PUSH1 0x40 MLOAD DUP1 PUSH1 0xC0 ADD PUSH1 0x40 MSTORE SWAP1 DUP2 PUSH1 0x0 DUP3 ADD SLOAD DUP2 MSTORE PUSH1 0x20 ADD PUSH1 0x1 DUP3 ADD PUSH1 0x0 SWAP1 SLOAD SWAP1 PUSH2 0x100 EXP SWAP1 DIV PUSH20 0xFFFFFFFFFFFFFFFFFFFFFFFFFFFFFFFFFFFFFFFF AND PUSH20 0xFFFFFFFFFFFFFFFFFFFFFFFFFFFFFFFFFFFFFFFF AND PUSH20 0xFFFFFFFFFFFFFFFFFFFFFFFFFFFFFFFFFFFFFFFF AND DUP2 MSTORE PUSH1 0x20 ADD PUSH1 0x2 DUP3 ADD SLOAD DUP2 MSTORE PUSH1 0x20 ADD PUSH1 0x3 DUP3 ADD SLOAD DUP2 MSTORE PUSH1 0x20 ADD PUSH1 0x4 DUP3 ADD DUP1 SLOAD PUSH2 0xC1F SWAP1 PUSH2 0x1BE9 JUMP JUMPDEST DUP1 PUSH1 0x1F ADD PUSH1 0x20 DUP1 SWAP2 DIV MUL PUSH1 0x20 ADD PUSH1 0x40 MLOAD SWAP1 DUP2 ADD PUSH1 0x40 MSTORE DUP1 SWAP3 SWAP2 SWAP1 DUP2 DUP2 MSTORE PUSH1 0x20 ADD DUP3 DUP1 SLOAD PUSH2 0xC4B SWAP1 PUSH2 0x1BE9 JUMP JUMPDEST DUP1 ISZERO PUSH2 0xC98 JUMPI DUP1 PUSH1 0x1F LT PUSH2 0xC6D JUMPI PUSH2 0x100 DUP1 DUP4 SLOAD DIV MUL DUP4 MSTORE SWAP2 PUSH1 0x20 ADD SWAP2 PUSH2 0xC98 JUMP JUMPDEST DUP3 ADD SWAP2 SWAP1 PUSH1 0x0 MSTORE PUSH1 0x20 PUSH1 0x0 KECCAK256 SWAP1 JUMPDEST DUP2 SLOAD DUP2 MSTORE SWAP1 PUSH1 0x1 ADD SWAP1 PUSH1 0x20 ADD DUP1 DUP4 GT PUSH2 0xC7B JUMPI DUP3 SWAP1 SUB PUSH1 0x1F AND DUP3 ADD SWAP2 JUMPDEST POP POP POP POP POP DUP2 MSTORE PUSH1 0x20 ADD PUSH1 0x5 DUP3 ADD PUSH1 0x0 SWAP1 SLOAD SWAP1 PUSH2 0x100 EXP SWAP1 DIV PUSH1 0xFF AND ISZERO ISZERO ISZERO ISZERO DUP2 MSTORE POP POP DUP2 MSTORE PUSH1 0x20 ADD SWAP1 PUSH1 0x1 ADD SWAP1 PUSH2 0xB78 JUMP JUMPDEST POP POP POP POP SWAP1 POP PUSH1 0x0 DUP1 PUSH1 0x0 JUMPDEST DUP4 MLOAD DUP2 LT ISZERO PUSH2 0xD52 JUMPI DUP4 DUP2 DUP2 MLOAD DUP2 LT PUSH2 0xCF3 JUMPI PUSH2 0xCF2 PUSH2 0x20A4 JUMP JUMPDEST JUMPDEST PUSH1 0x20 MUL PUSH1 0x20 ADD ADD MLOAD PUSH1 0xA0 ADD MLOAD ISZERO PUSH2 0xD3F JUMPI DUP3 DUP1 PUSH2 0xD0F SWAP1 PUSH2 0x1EC7 JUMP JUMPDEST SWAP4 POP POP DUP4 DUP2 DUP2 MLOAD DUP2 LT PUSH2 0xD25 JUMPI PUSH2 0xD24 PUSH2 0x20A4 JUMP JUMPDEST JUMPDEST PUSH1 0x20 MUL PUSH1 0x20 ADD ADD MLOAD PUSH1 0x60 ADD MLOAD DUP3 PUSH2 0xD3C SWAP2 SWAP1 PUSH2 0x1F0F JUMP JUMPDEST SWAP2 POP JUMPDEST DUP1 DUP1 PUSH2 0xD4A SWAP1 PUSH2 0x1EC7 JUMP JUMPDEST SWAP2 POP POP PUSH2 0xCD7 JUMP JUMPDEST POP PUSH1 0x0 DUP3 SUB PUSH2 0xD67 JUMPI PUSH1 0x0 SWAP4 POP POP POP POP PUSH2 0xD91 JUMP JUMPDEST PUSH1 0x0 DUP3 DUP3 PUSH2 0xD75 SWAP2 SWAP1 PUSH2 0x2102 JUMP JUMPDEST SWAP1 POP PUSH1 0x4 SLOAD DUP2 LT ISZERO DUP1 ISZERO PUSH2 0xD8A JUMPI POP PUSH1 0x2 DUP4 LT ISZERO JUMPDEST SWAP5 POP POP POP POP POP JUMPDEST SWAP2 SWAP1 POP JUMP JUMPDEST PUSH1 0x0 PUSH1 0x3 DUP1 SLOAD SWAP1 POP SWAP1 POP SWAP1 JUMP JUMPDEST PUSH2 0xDAB PUSH2 0x1202 JUMP JUMPDEST PUSH1 0x2 PUSH1 0x0 DUP3 PUSH20 0xFFFFFFFFFFFFFFFFFFFFFFFFFFFFFFFFFFFFFFFF AND PUSH20 0xFFFFFFFFFFFFFFFFFFFFFFFFFFFFFFFFFFFFFFFF AND DUP2 MSTORE PUSH1 0x20 ADD SWAP1 DUP2 MSTORE PUSH1 0x20 ADD PUSH1 0x0 KECCAK256 PUSH1 0x3 ADD PUSH1 0x0 SWAP1 SLOAD SWAP1 PUSH2 0x100 EXP SWAP1 DIV PUSH1 0xFF AND PUSH2 0xE3A JUMPI PUSH1 0x40 MLOAD PUSH32 0x8C379A000000000000000000000000000000000000000000000000000000000 DUP2 MSTORE PUSH1 0x4 ADD PUSH2 0xE31 SWAP1 PUSH2 0x217F JUMP JUMPDEST PUSH1 0x40 MLOAD DUP1 SWAP2 SUB SWAP1 REVERT JUMPDEST PUSH1 0x0 PUSH1 0x2 PUSH1 0x0 DUP4 PUSH20 0xFFFFFFFFFFFFFFFFFFFFFFFFFFFFFFFFFFFFFFFF AND PUSH20 0xFFFFFFFFFFFFFFFFFFFFFFFFFFFFFFFFFFFFFFFF AND DUP2 MSTORE PUSH1 0x20 ADD SWAP1 DUP2 MSTORE PUSH1 0x20 ADD PUSH1 0x0 KECCAK256 PUSH1 0x3 ADD PUSH1 0x0 PUSH2 0x100 EXP DUP2 SLOAD DUP2 PUSH1 0xFF MUL NOT AND SWAP1 DUP4 ISZERO ISZERO MUL OR SWAP1 SSTORE POP DUP1 PUSH20 0xFFFFFFFFFFFFFFFFFFFFFFFFFFFFFFFFFFFFFFFF AND PUSH32 0x44A3CD4EB5CC5748F6169DF057B1CB2AE4C383E87CD94663C430E095D4CBA424 PUSH1 0x40 MLOAD PUSH1 0x40 MLOAD DUP1 SWAP2 SUB SWAP1 LOG2 POP JUMP JUMPDEST PUSH1 0x1 PUSH1 0x20 MSTORE DUP2 PUSH1 0x0 MSTORE PUSH1 0x40 PUSH1 0x0 KECCAK256 DUP2 DUP2 SLOAD DUP2 LT PUSH2 0xEF7 JUMPI PUSH1 0x0 DUP1 REVERT JUMPDEST SWAP1 PUSH1 0x0 MSTORE PUSH1 0x20 PUSH1 0x0 KECCAK256 SWAP1 PUSH1 0x6 MUL ADD PUSH1 0x0 SWAP2 POP SWAP2 POP POP DUP1 PUSH1 0x0 ADD SLOAD SWAP1 DUP1 PUSH1 0x1 ADD PUSH1 0x0 SWAP1 SLOAD SWAP1 PUSH2 0x100 EXP SWAP1 DIV PUSH20 0xFFFFFFFFFFFFFFFFFFFFFFFFFFFFFFFFFFFFFFFF AND SWAP1 DUP1 PUSH1 0x2 ADD SLOAD SWAP1 DUP1 PUSH1 0x3 ADD SLOAD SWAP1 DUP1 PUSH1 0x4 ADD DUP1 SLOAD PUSH2 0xF53 SWAP1 PUSH2 0x1BE9 JUMP JUMPDEST DUP1 PUSH1 0x1F ADD PUSH1 0x20 DUP1 SWAP2 DIV MUL PUSH1 0x20 ADD PUSH1 0x40 MLOAD SWAP1 DUP2 ADD PUSH1 0x40 MSTORE DUP1 SWAP3 SWAP2 SWAP1 DUP2 DUP2 MSTORE PUSH1 0x20 ADD DUP3 DUP1 SLOAD PUSH2 0xF7F SWAP1 PUSH2 0x1BE9 JUMP JUMPDEST DUP1 ISZERO PUSH2 0xFCC JUMPI DUP1 PUSH1 0x1F LT PUSH2 0xFA1 JUMPI PUSH2 0x100 DUP1 DUP4 SLOAD DIV MUL DUP4 MSTORE SWAP2 PUSH1 0x20 ADD SWAP2 PUSH2 0xFCC JUMP JUMPDEST DUP3 ADD SWAP2 SWAP1 PUSH1 0x0 MSTORE PUSH1 0x20 PUSH1 0x0 KECCAK256 SWAP1 JUMPDEST DUP2 SLOAD DUP2 MSTORE SWAP1 PUSH1 0x1 ADD SWAP1 PUSH1 0x20 ADD DUP1 DUP4 GT PUSH2 0xFAF JUMPI DUP3 SWAP1 SUB PUSH1 0x1F AND DUP3 ADD SWAP2 JUMPDEST POP POP POP POP POP SWAP1 DUP1 PUSH1 0x5 ADD PUSH1 0x0 SWAP1 SLOAD SWAP1 PUSH2 0x100 EXP SWAP1 DIV PUSH1 0xFF AND SWAP1 POP DUP7 JUMP JUMPDEST PUSH2 0xFF1 PUSH2 0x1202 JUMP JUMPDEST PUSH1 0x0 PUSH20 0xFFFFFFFFFFFFFFFFFFFFFFFFFFFFFFFFFFFFFFFF AND DUP2 PUSH20 0xFFFFFFFFFFFFFFFFFFFFFFFFFFFFFFFFFFFFFFFF AND SUB PUSH2 0x1063 JUMPI PUSH1 0x0 PUSH1 0x40 MLOAD PUSH32 0x1E4FBDF700000000000000000000000000000000000000000000000000000000 DUP2 MSTORE PUSH1 0x4 ADD PUSH2 0x105A SWAP2 SWAP1 PUSH2 0x1490 JUMP JUMPDEST PUSH1 0x40 MLOAD DUP1 SWAP2 SUB SWAP1 REVERT JUMPDEST PUSH2 0x106C DUP2 PUSH2 0x1289 JUMP JUMPDEST POP JUMP JUMPDEST PUSH1 0x60 PUSH1 0x1 PUSH1 0x0 DUP4 DUP2 MSTORE PUSH1 0x20 ADD SWAP1 DUP2 MSTORE PUSH1 0x20 ADD PUSH1 0x0 KECCAK256 DUP1 SLOAD DUP1 PUSH1 0x20 MUL PUSH1 0x20 ADD PUSH1 0x40 MLOAD SWAP1 DUP2 ADD PUSH1 0x40 MSTORE DUP1 SWAP3 SWAP2 SWAP1 DUP2 DUP2 MSTORE PUSH1 0x20 ADD PUSH1 0x0 SWAP1 JUMPDEST DUP3 DUP3 LT ISZERO PUSH2 0x11F7 JUMPI DUP4 DUP3 SWAP1 PUSH1 0x0 MSTORE PUSH1 0x20 PUSH1 0x0 KECCAK256 SWAP1 PUSH1 0x6 MUL ADD PUSH1 0x40 MLOAD DUP1 PUSH1 0xC0 ADD PUSH1 0x40 MSTORE SWAP1 DUP2 PUSH1 0x0 DUP3 ADD SLOAD DUP2 MSTORE PUSH1 0x20 ADD PUSH1 0x1 DUP3 ADD PUSH1 0x0 SWAP1 SLOAD SWAP1 PUSH2 0x100 EXP SWAP1 DIV PUSH20 0xFFFFFFFFFFFFFFFFFFFFFFFFFFFFFFFFFFFFFFFF AND PUSH20 0xFFFFFFFFFFFFFFFFFFFFFFFFFFFFFFFFFFFFFFFF AND PUSH20 0xFFFFFFFFFFFFFFFFFFFFFFFFFFFFFFFFFFFFFFFF AND DUP2 MSTORE PUSH1 0x20 ADD PUSH1 0x2 DUP3 ADD SLOAD DUP2 MSTORE PUSH1 0x20 ADD PUSH1 0x3 DUP3 ADD SLOAD DUP2 MSTORE PUSH1 0x20 ADD PUSH1 0x4 DUP3 ADD DUP1 SLOAD PUSH2 0x114B SWAP1 PUSH2 0x1BE9 JUMP JUMPDEST DUP1 PUSH1 0x1F ADD PUSH1 0x20 DUP1 SWAP2 DIV MUL PUSH1 0x20 ADD PUSH1 0x40 MLOAD SWAP1 DUP2 ADD PUSH1 0x40 MSTORE DUP1 SWAP3 SWAP2 SWAP1 DUP2 DUP2 MSTORE PUSH1 0x20 ADD DUP3 DUP1 SLOAD PUSH2 0x1177 SWAP1 PUSH2 0x1BE9 JUMP JUMPDEST DUP1 ISZERO PUSH2 0x11C4 JUMPI DUP1 PUSH1 0x1F LT PUSH2 0x1199 JUMPI PUSH2 0x100 DUP1 DUP4 SLOAD DIV MUL DUP4 MSTORE SWAP2 PUSH1 0x20 ADD SWAP2 PUSH2 0x11C4 JUMP JUMPDEST DUP3 ADD SWAP2 SWAP1 PUSH1 0x0 MSTORE PUSH1 0x20 PUSH1 0x0 KECCAK256 SWAP1 JUMPDEST DUP2 SLOAD DUP2 MSTORE SWAP1 PUSH1 0x1 ADD SWAP1 PUSH1 0x20 ADD DUP1 DUP4 GT PUSH2 0x11A7 JUMPI DUP3 SWAP1 SUB PUSH1 0x1F AND DUP3 ADD SWAP2 JUMPDEST POP POP POP POP POP DUP2 MSTORE PUSH1 0x20 ADD PUSH1 0x5 DUP3 ADD PUSH1 0x0 SWAP1 SLOAD SWAP1 PUSH2 0x100 EXP SWAP1 DIV PUSH1 0xFF AND ISZERO ISZERO ISZERO ISZERO DUP2 MSTORE POP POP DUP2 MSTORE PUSH1 0x20 ADD SWAP1 PUSH1 0x1 ADD SWAP1 PUSH2 0x10A4 JUMP JUMPDEST POP POP POP POP SWAP1 POP SWAP2 SWAP1 POP JUMP JUMPDEST PUSH2 0x120A PUSH2 0x134D JUMP JUMPDEST PUSH20 0xFFFFFFFFFFFFFFFFFFFFFFFFFFFFFFFFFFFFFFFF AND PUSH2 0x1228 PUSH2 0xB19 JUMP JUMPDEST PUSH20 0xFFFFFFFFFFFFFFFFFFFFFFFFFFFFFFFFFFFFFFFF AND EQ PUSH2 0x1287 JUMPI PUSH2 0x124B PUSH2 0x134D JUMP JUMPDEST PUSH1 0x40 MLOAD PUSH32 0x118CDAA700000000000000000000000000000000000000000000000000000000 DUP2 MSTORE PUSH1 0x4 ADD PUSH2 0x127E SWAP2 SWAP1 PUSH2 0x1490 JUMP JUMPDEST PUSH1 0x40 MLOAD DUP1 SWAP2 SUB SWAP1 REVERT JUMPDEST JUMP JUMPDEST PUSH1 0x0 DUP1 PUSH1 0x0 SWAP1 SLOAD SWAP1 PUSH2 0x100 EXP SWAP1 DIV PUSH20 0xFFFFFFFFFFFFFFFFFFFFFFFFFFFFFFFFFFFFFFFF AND SWAP1 POP DUP2 PUSH1 0x0 DUP1 PUSH2 0x100 EXP DUP2 SLOAD DUP2 PUSH20 0xFFFFFFFFFFFFFFFFFFFFFFFFFFFFFFFFFFFFFFFF MUL NOT AND SWAP1 DUP4 PUSH20 0xFFFFFFFFFFFFFFFFFFFFFFFFFFFFFFFFFFFFFFFF AND MUL OR SWAP1 SSTORE POP DUP2 PUSH20 0xFFFFFFFFFFFFFFFFFFFFFFFFFFFFFFFFFFFFFFFF AND DUP2 PUSH20 0xFFFFFFFFFFFFFFFFFFFFFFFFFFFFFFFFFFFFFFFF AND PUSH32 0x8BE0079C531659141344CD1FD0A4F28419497F9722A3DAAFE3B4186F6B6457E0 PUSH1 0x40 MLOAD PUSH1 0x40 MLOAD DUP1 SWAP2 SUB SWAP1 LOG3 POP POP JUMP JUMPDEST PUSH1 0x0 CALLER SWAP1 POP SWAP1 JUMP JUMPDEST PUSH1 0x0 DUP1 REVERT JUMPDEST PUSH1 0x0 DUP1 REVERT JUMPDEST PUSH1 0x0 DUP2 SWAP1 POP SWAP2 SWAP1 POP JUMP JUMPDEST PUSH2 0x1372 DUP2 PUSH2 0x135F JUMP JUMPDEST DUP2 EQ PUSH2 0x137D JUMPI PUSH1 0x0 DUP1 REVERT JUMPDEST POP JUMP JUMPDEST PUSH1 0x0 DUP2 CALLDATALOAD SWAP1 POP PUSH2 0x138F DUP2 PUSH2 0x1369 JUMP JUMPDEST SWAP3 SWAP2 POP POP JUMP JUMPDEST PUSH1 0x0 PUSH1 0x20 DUP3 DUP5 SUB SLT ISZERO PUSH2 0x13AB JUMPI PUSH2 0x13AA PUSH2 0x1355 JUMP JUMPDEST JUMPDEST PUSH1 0x0 PUSH2 0x13B9 DUP5 DUP3 DUP6 ADD PUSH2 0x1380 JUMP JUMPDEST SWAP2 POP POP SWAP3 SWAP2 POP POP JUMP JUMPDEST PUSH1 0x0 DUP2 SWAP1 POP SWAP2 SWAP1 POP JUMP JUMPDEST PUSH2 0x13D5 DUP2 PUSH2 0x13C2 JUMP JUMPDEST DUP3 MSTORE POP POP JUMP JUMPDEST PUSH1 0x0 PUSH1 0x20 DUP3 ADD SWAP1 POP PUSH2 0x13F0 PUSH1 0x0 DUP4 ADD DUP5 PUSH2 0x13CC JUMP JUMPDEST SWAP3 SWAP2 POP POP JUMP JUMPDEST PUSH2 0x13FF DUP2 PUSH2 0x13C2 JUMP JUMPDEST DUP2 EQ PUSH2 0x140A JUMPI PUSH1 0x0 DUP1 REVERT JUMPDEST POP JUMP JUMPDEST PUSH1 0x0 DUP2 CALLDATALOAD SWAP1 POP PUSH2 0x141C DUP2 PUSH2 0x13F6 JUMP JUMPDEST SWAP3 SWAP2 POP POP JUMP JUMPDEST PUSH1 0x0 PUSH1 0x20 DUP3 DUP5 SUB SLT ISZERO PUSH2 0x1438 JUMPI PUSH2 0x1437 PUSH2 0x1355 JUMP JUMPDEST JUMPDEST PUSH1 0x0 PUSH2 0x1446 DUP5 DUP3 DUP6 ADD PUSH2 0x140D JUMP JUMPDEST SWAP2 POP POP SWAP3 SWAP2 POP POP JUMP JUMPDEST PUSH1 0x0 PUSH20 0xFFFFFFFFFFFFFFFFFFFFFFFFFFFFFFFFFFFFFFFF DUP3 AND SWAP1 POP SWAP2 SWAP1 POP JUMP JUMPDEST PUSH1 0x0 PUSH2 0x147A DUP3 PUSH2 0x144F JUMP JUMPDEST SWAP1 POP SWAP2 SWAP1 POP JUMP JUMPDEST PUSH2 0x148A DUP2 PUSH2 0x146F JUMP JUMPDEST DUP3 MSTORE POP POP JUMP JUMPDEST PUSH1 0x0 PUSH1 0x20 DUP3 ADD SWAP1 POP PUSH2 0x14A5 PUSH1 0x0 DUP4 ADD DUP5 PUSH2 0x1481 JUMP JUMPDEST SWAP3 SWAP2 POP POP JUMP JUMPDEST PUSH1 0x0 DUP2 ISZERO ISZERO SWAP1 POP SWAP2 SWAP1 POP JUMP JUMPDEST PUSH2 0x14C0 DUP2 PUSH2 0x14AB JUMP JUMPDEST DUP2 EQ PUSH2 0x14CB JUMPI PUSH1 0x0 DUP1 REVERT JUMPDEST POP JUMP JUMPDEST PUSH1 0x0 DUP2 CALLDATALOAD SWAP1 POP PUSH2 0x14DD DUP2 PUSH2 0x14B7 JUMP JUMPDEST SWAP3 SWAP2 POP POP JUMP JUMPDEST PUSH1 0x0 DUP1 REVERT JUMPDEST PUSH1 0x0 DUP1 REVERT JUMPDEST PUSH1 0x0 DUP1 REVERT JUMPDEST PUSH1 0x0 DUP1 DUP4 PUSH1 0x1F DUP5 ADD SLT PUSH2 0x1508 JUMPI PUSH2 0x1507 PUSH2 0x14E3 JUMP JUMPDEST JUMPDEST DUP3 CALLDATALOAD SWAP1 POP PUSH8 0xFFFFFFFFFFFFFFFF DUP2 GT ISZERO PUSH2 0x1525 JUMPI PUSH2 0x1524 PUSH2 0x14E8 JUMP JUMPDEST JUMPDEST PUSH1 0x20 DUP4 ADD SWAP2 POP DUP4 PUSH1 0x1 DUP3 MUL DUP4 ADD GT ISZERO PUSH2 0x1541 JUMPI PUSH2 0x1540 PUSH2 0x14ED JUMP JUMPDEST JUMPDEST SWAP3 POP SWAP3 SWAP1 POP JUMP JUMPDEST PUSH1 0x0 DUP1 PUSH1 0x0 DUP1 PUSH1 0x0 PUSH1 0x80 DUP7 DUP9 SUB SLT ISZERO PUSH2 0x1564 JUMPI PUSH2 0x1563 PUSH2 0x1355 JUMP JUMPDEST JUMPDEST PUSH1 0x0 PUSH2 0x1572 DUP9 DUP3 DUP10 ADD PUSH2 0x1380 JUMP JUMPDEST SWAP6 POP POP PUSH1 0x20 PUSH2 0x1583 DUP9 DUP3 DUP10 ADD PUSH2 0x14CE JUMP JUMPDEST SWAP5 POP POP PUSH1 0x40 PUSH2 0x1594 DUP9 DUP3 DUP10 ADD PUSH2 0x140D JUMP JUMPDEST SWAP4 POP POP PUSH1 0x60 DUP7 ADD CALLDATALOAD PUSH8 0xFFFFFFFFFFFFFFFF DUP2 GT ISZERO PUSH2 0x15B5 JUMPI PUSH2 0x15B4 PUSH2 0x135A JUMP JUMPDEST JUMPDEST PUSH2 0x15C1 DUP9 DUP3 DUP10 ADD PUSH2 0x14F2 JUMP JUMPDEST SWAP3 POP SWAP3 POP POP SWAP3 SWAP6 POP SWAP3 SWAP6 SWAP1 SWAP4 POP JUMP JUMPDEST PUSH2 0x15D9 DUP2 PUSH2 0x14AB JUMP JUMPDEST DUP3 MSTORE POP POP JUMP JUMPDEST PUSH1 0x0 PUSH1 0x20 DUP3 ADD SWAP1 POP PUSH2 0x15F4 PUSH1 0x0 DUP4 ADD DUP5 PUSH2 0x15D0 JUMP JUMPDEST SWAP3 SWAP2 POP POP JUMP JUMPDEST PUSH2 0x1603 DUP2 PUSH2 0x146F JUMP JUMPDEST DUP2 EQ PUSH2 0x160E JUMPI PUSH1 0x0 DUP1 REVERT JUMPDEST POP JUMP JUMPDEST PUSH1 0x0 DUP2 CALLDATALOAD SWAP1 POP PUSH2 0x1620 DUP2 PUSH2 0x15FA JUMP JUMPDEST SWAP3 SWAP2 POP POP JUMP JUMPDEST PUSH1 0x0 PUSH1 0x20 DUP3 DUP5 SUB SLT ISZERO PUSH2 0x163C JUMPI PUSH2 0x163B PUSH2 0x1355 JUMP JUMPDEST JUMPDEST PUSH1 0x0 PUSH2 0x164A DUP5 DUP3 DUP6 ADD PUSH2 0x1611 JUMP JUMPDEST SWAP2 POP POP SWAP3 SWAP2 POP POP JUMP JUMPDEST PUSH1 0x0 DUP2 MLOAD SWAP1 POP SWAP2 SWAP1 POP JUMP JUMPDEST PUSH1 0x0 DUP3 DUP3 MSTORE PUSH1 0x20 DUP3 ADD SWAP1 POP SWAP3 SWAP2 POP POP JUMP JUMPDEST PUSH1 0x0 JUMPDEST DUP4 DUP2 LT ISZERO PUSH2 0x168D JUMPI DUP1 DUP3 ADD MLOAD DUP2 DUP5 ADD MSTORE PUSH1 0x20 DUP2 ADD SWAP1 POP PUSH2 0x1672 JUMP JUMPDEST PUSH1 0x0 DUP5 DUP5 ADD MSTORE POP POP POP POP JUMP JUMPDEST PUSH1 0x0 PUSH1 0x1F NOT PUSH1 0x1F DUP4 ADD AND SWAP1 POP SWAP2 SWAP1 POP JUMP JUMPDEST PUSH1 0x0 PUSH2 0x16B5 DUP3 PUSH2 0x1653 JUMP JUMPDEST PUSH2 0x16BF DUP2 DUP6 PUSH2 0x165E JUMP JUMPDEST SWAP4 POP PUSH2 0x16CF DUP2 DUP6 PUSH1 0x20 DUP7 ADD PUSH2 0x166F JUMP JUMPDEST PUSH2 0x16D8 DUP2 PUSH2 0x1699 JUMP JUMPDEST DUP5 ADD SWAP2 POP POP SWAP3 SWAP2 POP POP JUMP JUMPDEST PUSH1 0x0 PUSH1 0xA0 DUP3 ADD SWAP1 POP PUSH2 0x16F8 PUSH1 0x0 DUP4 ADD DUP9 PUSH2 0x1481 JUMP JUMPDEST DUP2 DUP2 SUB PUSH1 0x20 DUP4 ADD MSTORE PUSH2 0x170A DUP2 DUP8 PUSH2 0x16AA JUMP JUMPDEST SWAP1 POP PUSH2 0x1719 PUSH1 0x40 DUP4 ADD DUP7 PUSH2 0x13CC JUMP JUMPDEST PUSH2 0x1726 PUSH1 0x60 DUP4 ADD DUP6 PUSH2 0x15D0 JUMP JUMPDEST PUSH2 0x1733 PUSH1 0x80 DUP4 ADD DUP5 PUSH2 0x13CC JUMP JUMPDEST SWAP7 SWAP6 POP POP POP POP POP POP JUMP JUMPDEST PUSH1 0x0 DUP1 PUSH1 0x0 PUSH1 0x40 DUP5 DUP7 SUB SLT ISZERO PUSH2 0x1756 JUMPI PUSH2 0x1755 PUSH2 0x1355 JUMP JUMPDEST JUMPDEST PUSH1 0x0 PUSH2 0x1764 DUP7 DUP3 DUP8 ADD PUSH2 0x1611 JUMP JUMPDEST SWAP4 POP POP PUSH1 0x20 DUP5 ADD CALLDATALOAD PUSH8 0xFFFFFFFFFFFFFFFF DUP2 GT ISZERO PUSH2 0x1785 JUMPI PUSH2 0x1784 PUSH2 0x135A JUMP JUMPDEST JUMPDEST PUSH2 0x1791 DUP7 DUP3 DUP8 ADD PUSH2 0x14F2 JUMP JUMPDEST SWAP3 POP SWAP3 POP POP SWAP3 POP SWAP3 POP SWAP3 JUMP JUMPDEST PUSH1 0x0 DUP1 PUSH1 0x40 DUP4 DUP6 SUB SLT ISZERO PUSH2 0x17B4 JUMPI PUSH2 0x17B3 PUSH2 0x1355 JUMP JUMPDEST JUMPDEST PUSH1 0x0 PUSH2 0x17C2 DUP6 DUP3 DUP7 ADD PUSH2 0x1380 JUMP JUMPDEST SWAP3 POP POP PUSH1 0x20 PUSH2 0x17D3 DUP6 DUP3 DUP7 ADD PUSH2 0x140D JUMP JUMPDEST SWAP2 POP POP SWAP3 POP SWAP3 SWAP1 POP JUMP JUMPDEST PUSH2 0x17E6 DUP2 PUSH2 0x135F JUMP JUMPDEST DUP3 MSTORE POP POP JUMP JUMPDEST PUSH1 0x0 PUSH1 0xC0 DUP3 ADD SWAP1 POP PUSH2 0x1801 PUSH1 0x0 DUP4 ADD DUP10 PUSH2 0x17DD JUMP JUMPDEST PUSH2 0x180E PUSH1 0x20 DUP4 ADD DUP9 PUSH2 0x1481 JUMP JUMPDEST PUSH2 0x181B PUSH1 0x40 DUP4 ADD DUP8 PUSH2 0x13CC JUMP JUMPDEST PUSH2 0x1828 PUSH1 0x60 DUP4 ADD DUP7 PUSH2 0x13CC JUMP JUMPDEST DUP2 DUP2 SUB PUSH1 0x80 DUP4 ADD MSTORE PUSH2 0x183A DUP2 DUP6 PUSH2 0x16AA JUMP JUMPDEST SWAP1 POP PUSH2 0x1849 PUSH1 0xA0 DUP4 ADD DUP5 PUSH2 0x15D0 JUMP JUMPDEST SWAP8 SWAP7 POP POP POP POP POP POP POP JUMP JUMPDEST PUSH1 0x0 DUP2 MLOAD SWAP1 POP SWAP2 SWAP1 POP JUMP JUMPDEST PUSH1 0x0 DUP3 DUP3 MSTORE PUSH1 0x20 DUP3 ADD SWAP1 POP SWAP3 SWAP2 POP POP JUMP JUMPDEST PUSH1 0x0 DUP2 SWAP1 POP PUSH1 0x20 DUP3 ADD SWAP1 POP SWAP2 SWAP1 POP JUMP JUMPDEST PUSH2 0x1889 DUP2 PUSH2 0x135F JUMP JUMPDEST DUP3 MSTORE POP POP JUMP JUMPDEST PUSH2 0x1898 DUP2 PUSH2 0x146F JUMP JUMPDEST DUP3 MSTORE POP POP JUMP JUMPDEST PUSH2 0x18A7 DUP2 PUSH2 0x13C2 JUMP JUMPDEST DUP3 MSTORE POP POP JUMP JUMPDEST PUSH1 0x0 DUP3 DUP3 MSTORE PUSH1 0x20 DUP3 ADD SWAP1 POP SWAP3 SWAP2 POP POP JUMP JUMPDEST PUSH1 0x0 PUSH2 0x18C9 DUP3 PUSH2 0x1653 JUMP JUMPDEST PUSH2 0x18D3 DUP2 DUP6 PUSH2 0x18AD JUMP JUMPDEST SWAP4 POP PUSH2 0x18E3 DUP2 DUP6 PUSH1 0x20 DUP7 ADD PUSH2 0x166F JUMP JUMPDEST PUSH2 0x18EC DUP2 PUSH2 0x1699 JUMP JUMPDEST DUP5 ADD SWAP2 POP POP SWAP3 SWAP2 POP POP JUMP JUMPDEST PUSH2 0x1900 DUP2 PUSH2 0x14AB JUMP JUMPDEST DUP3 MSTORE POP POP JUMP JUMPDEST PUSH1 0x0 PUSH1 0xC0 DUP4 ADD PUSH1 0x0 DUP4 ADD MLOAD PUSH2 0x191E PUSH1 0x0 DUP7 ADD DUP3 PUSH2 0x1880 JUMP JUMPDEST POP PUSH1 0x20 DUP4 ADD MLOAD PUSH2 0x1931 PUSH1 0x20 DUP7 ADD DUP3 PUSH2 0x188F JUMP JUMPDEST POP PUSH1 0x40 DUP4 ADD MLOAD PUSH2 0x1944 PUSH1 0x40 DUP7 ADD DUP3 PUSH2 0x189E JUMP JUMPDEST POP PUSH1 0x60 DUP4 ADD MLOAD PUSH2 0x1957 PUSH1 0x60 DUP7 ADD DUP3 PUSH2 0x189E JUMP JUMPDEST POP PUSH1 0x80 DUP4 ADD MLOAD DUP5 DUP3 SUB PUSH1 0x80 DUP7 ADD MSTORE PUSH2 0x196F DUP3 DUP3 PUSH2 0x18BE JUMP JUMPDEST SWAP2 POP POP PUSH1 0xA0 DUP4 ADD MLOAD PUSH2 0x1984 PUSH1 0xA0 DUP7 ADD DUP3 PUSH2 0x18F7 JUMP JUMPDEST POP DUP1 SWAP2 POP POP SWAP3 SWAP2 POP POP JUMP JUMPDEST PUSH1 0x0 PUSH2 0x199B DUP4 DUP4 PUSH2 0x1906 JUMP JUMPDEST SWAP1 POP SWAP3 SWAP2 POP POP JUMP JUMPDEST PUSH1 0x0 PUSH1 0x20 DUP3 ADD SWAP1 POP SWAP2 SWAP1 POP JUMP JUMPDEST PUSH1 0x0 PUSH2 0x19BB DUP3 PUSH2 0x1854 JUMP JUMPDEST PUSH2 0x19C5 DUP2 DUP6 PUSH2 0x185F JUMP JUMPDEST SWAP4 POP DUP4 PUSH1 0x20 DUP3 MUL DUP6 ADD PUSH2 0x19D7 DUP6 PUSH2 0x1870 JUMP JUMPDEST DUP1 PUSH1 0x0 JUMPDEST DUP6 DUP2 LT ISZERO PUSH2 0x1A13 JUMPI DUP5 DUP5 SUB DUP10 MSTORE DUP2 MLOAD PUSH2 0x19F4 DUP6 DUP3 PUSH2 0x198F JUMP JUMPDEST SWAP5 POP PUSH2 0x19FF DUP4 PUSH2 0x19A3 JUMP JUMPDEST SWAP3 POP PUSH1 0x20 DUP11 ADD SWAP10 POP POP PUSH1 0x1 DUP2 ADD SWAP1 POP PUSH2 0x19DB JUMP JUMPDEST POP DUP3 SWAP8 POP DUP8 SWAP6 POP POP POP POP POP POP SWAP3 SWAP2 POP POP JUMP JUMPDEST PUSH1 0x0 PUSH1 0x20 DUP3 ADD SWAP1 POP DUP2 DUP2 SUB PUSH1 0x0 DUP4 ADD MSTORE PUSH2 0x1A3F DUP2 DUP5 PUSH2 0x19B0 JUMP JUMPDEST SWAP1 POP SWAP3 SWAP2 POP POP JUMP JUMPDEST PUSH32 0x4E6F7420616E2061637469766520766572696669657200000000000000000000 PUSH1 0x0 DUP3 ADD MSTORE POP JUMP JUMPDEST PUSH1 0x0 PUSH2 0x1A7D PUSH1 0x16 DUP4 PUSH2 0x165E JUMP JUMPDEST SWAP2 POP PUSH2 0x1A88 DUP3 PUSH2 0x1A47 JUMP JUMPDEST PUSH1 0x20 DUP3 ADD SWAP1 POP SWAP2 SWAP1 POP JUMP JUMPDEST PUSH1 0x0 PUSH1 0x20 DUP3 ADD SWAP1 POP DUP2 DUP2 SUB PUSH1 0x0 DUP4 ADD MSTORE PUSH2 0x1AAC DUP2 PUSH2 0x1A70 JUMP JUMPDEST SWAP1 POP SWAP2 SWAP1 POP JUMP JUMPDEST PUSH32 0x436F6E666964656E6365206D75737420626520302D3130300000000000000000 PUSH1 0x0 DUP3 ADD MSTORE POP JUMP JUMPDEST PUSH1 0x0 PUSH2 0x1AE9 PUSH1 0x18 DUP4 PUSH2 0x165E JUMP JUMPDEST SWAP2 POP PUSH2 0x1AF4 DUP3 PUSH2 0x1AB3 JUMP JUMPDEST PUSH1 0x20 DUP3 ADD SWAP1 POP SWAP2 SWAP1 POP JUMP JUMPDEST PUSH1 0x0 PUSH1 0x20 DUP3 ADD SWAP1 POP DUP2 DUP2 SUB PUSH1 0x0 DUP4 ADD MSTORE PUSH2 0x1B18 DUP2 PUSH2 0x1ADC JUMP JUMPDEST SWAP1 POP SWAP2 SWAP1 POP JUMP JUMPDEST PUSH32 0x4E6F74657320746F6F206C6F6E67000000000000000000000000000000000000 PUSH1 0x0 DUP3 ADD MSTORE POP JUMP JUMPDEST PUSH1 0x0 PUSH2 0x1B55 PUSH1 0xE DUP4 PUSH2 0x165E JUMP JUMPDEST SWAP2 POP PUSH2 0x1B60 DUP3 PUSH2 0x1B1F JUMP JUMPDEST PUSH1 0x20 DUP3 ADD SWAP1 POP SWAP2 SWAP1 POP JUMP JUMPDEST PUSH1 0x0 PUSH1 0x20 DUP3 ADD SWAP1 POP DUP2 DUP2 SUB PUSH1 0x0 DUP4 ADD MSTORE PUSH2 0x1B84 DUP2 PUSH2 0x1B48 JUMP JUMPDEST SWAP1 POP SWAP2 SWAP1 POP JUMP JUMPDEST PUSH32 0x4E487B7100000000000000000000000000000000000000000000000000000000 PUSH1 0x0 MSTORE PUSH1 0x41 PUSH1 0x4 MSTORE PUSH1 0x24 PUSH1 0x0 REVERT JUMPDEST PUSH32 0x4E487B7100000000000000000000000000000000000000000000000000000000 PUSH1 0x0 MSTORE PUSH1 0x22 PUSH1 0x4 MSTORE PUSH1 0x24 PUSH1 0x0 REVERT JUMPDEST PUSH1 0x0 PUSH1 0x2 DUP3 DIV SWAP1 POP PUSH1 0x1 DUP3 AND DUP1 PUSH2 0x1C01 JUMPI PUSH1 0x7F DUP3 AND SWAP2 POP JUMPDEST PUSH1 0x20 DUP3 LT DUP2 SUB PUSH2 0x1C14 JUMPI PUSH2 0x1C13 PUSH2 0x1BBA JUMP JUMPDEST JUMPDEST POP SWAP2 SWAP1 POP JUMP JUMPDEST PUSH1 0x0 DUP2 SWAP1 POP DUP2 PUSH1 0x0 MSTORE PUSH1 0x20 PUSH1 0x0 KECCAK256 SWAP1 POP SWAP2 SWAP1 POP JUMP JUMPDEST PUSH1 0x0 PUSH1 0x20 PUSH1 0x1F DUP4 ADD DIV SWAP1 POP SWAP2 SWAP1 POP JUMP JUMPDEST PUSH1 0x0 DUP3 DUP3 SHL SWAP1 POP SWAP3 SWAP2 POP POP JUMP JUMPDEST PUSH1 0x0 PUSH1 0x8 DUP4 MUL PUSH2 0x1C7C PUSH32 0xFFFFFFFFFFFFFFFFFFFFFFFFFFFFFFFFFFFFFFFFFFFFFFFFFFFFFFFFFFFFFFFF DUP3 PUSH2 0x1C3F JUMP JUMPDEST PUSH2 0x1C86 DUP7 DUP4 PUSH2 0x1C3F JUMP JUMPDEST SWAP6 POP DUP1 NOT DUP5 AND SWAP4 POP DUP1 DUP7 AND DUP5 OR SWAP3 POP POP POP SWAP4 SWAP3 POP POP POP JUMP JUMPDEST PUSH1 0x0 DUP2 SWAP1 POP SWAP2 SWAP1 POP JUMP JUMPDEST PUSH1 0x0 PUSH2 0x1CC3 PUSH2 0x1CBE PUSH2 0x1CB9 DUP5 PUSH2 0x13C2 JUMP JUMPDEST PUSH2 0x1C9E JUMP JUMPDEST PUSH2 0x13C2 JUMP JUMPDEST SWAP1 POP SWAP2 SWAP1 POP JUMP JUMPDEST PUSH1 0x0 DUP2 SWAP1 POP SWAP2 SWAP1 POP JUMP JUMPDEST PUSH2 0x1CDD DUP4 PUSH2 0x1CA8 JUMP JUMPDEST PUSH2 0x1CF1 PUSH2 0x1CE9 DUP3 PUSH2 0x1CCA JUMP JUMPDEST DUP5 DUP5 SLOAD PUSH2 0x1C4C JUMP JUMPDEST DUP3 SSTORE POP POP POP POP JUMP JUMPDEST PUSH1 0x0 SWAP1 JUMP JUMPDEST PUSH2 0x1D06 PUSH2 0x1CF9 JUMP JUMPDEST PUSH2 0x1D11 DUP2 DUP5 DUP5 PUSH2 0x1CD4 JUMP JUMPDEST POP POP POP JUMP JUMPDEST JUMPDEST DUP2 DUP2 LT ISZERO PUSH2 0x1D35 JUMPI PUSH2 0x1D2A PUSH1 0x0 DUP3 PUSH2 0x1CFE JUMP JUMPDEST PUSH1 0x1 DUP2 ADD SWAP1 POP PUSH2 0x1D17 JUMP JUMPDEST POP POP JUMP JUMPDEST PUSH1 0x1F DUP3 GT ISZERO PUSH2 0x1D7A JUMPI PUSH2 0x1D4B DUP2 PUSH2 0x1C1A JUMP JUMPDEST PUSH2 0x1D54 DUP5 PUSH2 0x1C2F JUMP JUMPDEST DUP2 ADD PUSH1 0x20 DUP6 LT ISZERO PUSH2 0x1D63 JUMPI DUP2 SWAP1 POP JUMPDEST PUSH2 0x1D77 PUSH2 0x1D6F DUP6 PUSH2 0x1C2F JUMP JUMPDEST DUP4 ADD DUP3 PUSH2 0x1D16 JUMP JUMPDEST POP POP JUMPDEST POP POP POP JUMP JUMPDEST PUSH1 0x0 DUP3 DUP3 SHR SWAP1 POP SWAP3 SWAP2 POP POP JUMP JUMPDEST PUSH1 0x0 PUSH2 0x1D9D PUSH1 0x0 NOT DUP5 PUSH1 0x8 MUL PUSH2 0x1D7F JUMP JUMPDEST NOT DUP1 DUP4 AND SWAP2 POP POP SWAP3 SWAP2 POP POP JUMP JUMPDEST PUSH1 0x0 PUSH2 0x1DB6 DUP4 DUP4 PUSH2 0x1D8C JUMP JUMPDEST SWAP2 POP DUP3 PUSH1 0x2 MUL DUP3 OR SWAP1 POP SWAP3 SWAP2 POP POP JUMP JUMPDEST PUSH2 0x1DCF DUP3 PUSH2 0x1653 JUMP JUMPDEST PUSH8 0xFFFFFFFFFFFFFFFF DUP2 GT ISZERO PUSH2 0x1DE8 JUMPI PUSH2 0x1DE7 PUSH2 0x1B8B JUMP JUMPDEST JUMPDEST PUSH2 0x1DF2 DUP3 SLOAD PUSH2 0x1BE9 JUMP JUMPDEST PUSH2 0x1DFD DUP3 DUP3 DUP6 PUSH2 0x1D39 JUMP JUMPDEST PUSH1 0x0 PUSH1 0x20 SWAP1 POP PUSH1 0x1F DUP4 GT PUSH1 0x1 DUP2 EQ PUSH2 0x1E30 JUMPI PUSH1 0x0 DUP5 ISZERO PUSH2 0x1E1E JUMPI DUP3 DUP8 ADD MLOAD SWAP1 POP JUMPDEST PUSH2 0x1E28 DUP6 DUP3 PUSH2 0x1DAA JUMP JUMPDEST DUP7 SSTORE POP PUSH2 0x1E90 JUMP JUMPDEST PUSH1 0x1F NOT DUP5 AND PUSH2 0x1E3E DUP7 PUSH2 0x1C1A JUMP JUMPDEST PUSH1 0x0 JUMPDEST DUP3 DUP2 LT ISZERO PUSH2 0x1E66 JUMPI DUP5 DUP10 ADD MLOAD DUP3 SSTORE PUSH1 0x1 DUP3 ADD SWAP2 POP PUSH1 0x20 DUP6 ADD SWAP5 POP PUSH1 0x20 DUP2 ADD SWAP1 POP PUSH2 0x1E41 JUMP JUMPDEST DUP7 DUP4 LT ISZERO PUSH2 0x1E83 JUMPI DUP5 DUP10 ADD MLOAD PUSH2 0x1E7F PUSH1 0x1F DUP10 AND DUP3 PUSH2 0x1D8C JUMP JUMPDEST DUP4 SSTORE POP JUMPDEST PUSH1 0x1 PUSH1 0x2 DUP9 MUL ADD DUP9 SSTORE POP POP POP JUMPDEST POP POP POP POP POP POP JUMP JUMPDEST PUSH32 0x4E487B7100000000000000000000000000000000000000000000000000000000 PUSH1 0x0 MSTORE PUSH1 0x11 PUSH1 0x4 MSTORE PUSH1 0x24 PUSH1 0x0 REVERT JUMPDEST PUSH1 0x0 PUSH2 0x1ED2 DUP3 PUSH2 0x13C2 JUMP JUMPDEST SWAP2 POP PUSH32 0xFFFFFFFFFFFFFFFFFFFFFFFFFFFFFFFFFFFFFFFFFFFFFFFFFFFFFFFFFFFFFFFF DUP3 SUB PUSH2 0x1F04 JUMPI PUSH2 0x1F03 PUSH2 0x1E98 JUMP JUMPDEST JUMPDEST PUSH1 0x1 DUP3 ADD SWAP1 POP SWAP2 SWAP1 POP JUMP JUMPDEST PUSH1 0x0 PUSH2 0x1F1A DUP3 PUSH2 0x13C2 JUMP JUMPDEST SWAP2 POP PUSH2 0x1F25 DUP4 PUSH2 0x13C2 JUMP JUMPDEST SWAP3 POP DUP3 DUP3 ADD SWAP1 POP DUP1 DUP3 GT ISZERO PUSH2 0x1F3D JUMPI PUSH2 0x1F3C PUSH2 0x1E98 JUMP JUMPDEST JUMPDEST SWAP3 SWAP2 POP POP JUMP JUMPDEST PUSH1 0x0 PUSH1 0x40 DUP3 ADD SWAP1 POP PUSH2 0x1F58 PUSH1 0x0 DUP4 ADD DUP6 PUSH2 0x15D0 JUMP JUMPDEST PUSH2 0x1F65 PUSH1 0x20 DUP4 ADD DUP5 PUSH2 0x13CC JUMP JUMPDEST SWAP4 SWAP3 POP POP POP JUMP JUMPDEST PUSH32 0x416C726561647920612076657269666965720000000000000000000000000000 PUSH1 0x0 DUP3 ADD MSTORE POP JUMP JUMPDEST PUSH1 0x0 PUSH2 0x1FA2 PUSH1 0x12 DUP4 PUSH2 0x165E JUMP JUMPDEST SWAP2 POP PUSH2 0x1FAD DUP3 PUSH2 0x1F6C JUMP JUMPDEST PUSH1 0x20 DUP3 ADD SWAP1 POP SWAP2 SWAP1 POP JUMP JUMPDEST PUSH1 0x0 PUSH1 0x20 DUP3 ADD SWAP1 POP DUP2 DUP2 SUB PUSH1 0x0 DUP4 ADD MSTORE PUSH2 0x1FD1 DUP2 PUSH2 0x1F95 JUMP JUMPDEST SWAP1 POP SWAP2 SWAP1 POP JUMP JUMPDEST DUP3 DUP2 DUP4 CALLDATACOPY PUSH1 0x0 DUP4 DUP4 ADD MSTORE POP POP POP JUMP JUMPDEST PUSH1 0x0 PUSH2 0x1FF3 DUP4 DUP6 PUSH2 0x165E JUMP JUMPDEST SWAP4 POP PUSH2 0x2000 DUP4 DUP6 DUP5 PUSH2 0x1FD8 JUMP JUMPDEST PUSH2 0x2009 DUP4 PUSH2 0x1699 JUMP JUMPDEST DUP5 ADD SWAP1 POP SWAP4 SWAP3 POP POP POP JUMP JUMPDEST PUSH1 0x0 PUSH1 0x20 DUP3 ADD SWAP1 POP DUP2 DUP2 SUB PUSH1 0x0 DUP4 ADD MSTORE PUSH2 0x202F DUP2 DUP5 DUP7 PUSH2 0x1FE7 JUMP JUMPDEST SWAP1 POP SWAP4 SWAP3 POP POP POP JUMP JUMPDEST PUSH32 0x4D61782031303000000000000000000000000000000000000000000000000000 PUSH1 0x0 DUP3 ADD MSTORE POP JUMP JUMPDEST PUSH1 0x0 PUSH2 0x206E PUSH1 0x7 DUP4 PUSH2 0x165E JUMP JUMPDEST SWAP2 POP PUSH2 0x2079 DUP3 PUSH2 0x2038 JUMP JUMPDEST PUSH1 0x20 DUP3 ADD SWAP1 POP SWAP2 SWAP1 POP JUMP JUMPDEST PUSH1 0x0 PUSH1 0x20 DUP3 ADD SWAP1 POP DUP2 DUP2 SUB PUSH1 0x0 DUP4 ADD MSTORE PUSH2 0x209D DUP2 PUSH2 0x2061 JUMP JUMPDEST SWAP1 POP SWAP2 SWAP1 POP JUMP JUMPDEST PUSH32 0x4E487B7100000000000000000000000000000000000000000000000000000000 PUSH1 0x0 MSTORE PUSH1 0x32 PUSH1 0x4 MSTORE PUSH1 0x24 PUSH1 0x0 REVERT JUMPDEST PUSH32 0x4E487B7100000000000000000000000000000000000000000000000000000000 PUSH1 0x0 MSTORE PUSH1 0x12 PUSH1 0x4 MSTORE PUSH1 0x24 PUSH1 0x0 REVERT JUMPDEST PUSH1 0x0 PUSH2 0x210D DUP3 PUSH2 0x13C2 JUMP JUMPDEST SWAP2 POP PUSH2 0x2118 DUP4 PUSH2 0x13C2 JUMP JUMPDEST SWAP3 POP DUP3 PUSH2 0x2128 JUMPI PUSH2 0x2127 PUSH2 0x20D3 JUMP JUMPDEST JUMPDEST DUP3 DUP3 DIV SWAP1 POP SWAP3 SWAP2 POP POP JUMP JUMPDEST PUSH32 0x4E6F742061207665726966696572000000000000000000000000000000000000 PUSH1 0x0 DUP3 ADD MSTORE POP JUMP JUMPDEST PUSH1 0x0 PUSH2 0x2169 PUSH1 0xE DUP4 PUSH2 0x165E JUMP JUMPDEST SWAP2 POP PUSH2 0x2174 DUP3 PUSH2 0x2133 JUMP JUMPDEST PUSH1 0x20 DUP3 ADD SWAP1 POP SWAP2 SWAP1 POP JUMP JUMPDEST PUSH1 0x0 PUSH1 0x20 DUP3 ADD SWAP1 POP DUP2 DUP2 SUB PUSH1 0x0 DUP4 ADD MSTORE PUSH2 0x2198 DUP2 PUSH2 0x215C JUMP JUMPDEST SWAP1 POP SWAP2 SWAP1 POP JUMP INVALID LOG2 PUSH5 0x6970667358 0x22 SLT KECCAK256 PUSH20 0xB7AE21320CADCC0F30C125F1CB36C1337485EB9A DUP11 RETURN 0xA8 0xD 0xDE 0x49 SELFDESTRUCT CODECOPY SELFBALANCE 0xBB PUSH2 0x6473 PUSH16 0x6C634300081400330000000000000000 "},"methodIdentifiers":{"addVerifier(address,string)":"7340792a","getVerificationCount(bytes32)":"5585863a","getVerifications(bytes32)":"fcdd5261","getVerifierCount()":"b9c688a7","isMemoryVerified(bytes32)":"8e3103c9","minConfidenceThreshold()":"74849185","owner()":"8da5cb5b","removeVerifier(address)":"ca2dfd0a","renounceOwnership()":"715018a6","setConfidenceThreshold(uint256)":"76cde8c0","transferOwnership(address)":"f2fde38b","verifications(bytes32,uint256)":"d1e94e57","verifierList(uint256)":"57762ddd","verifiers(address)":"6c824487","verifyMemory(bytes32,bool,uint256,string)":"611cf5e3"}}}}}