{
  "_format": "hh-sol-artifact-1",
  "contractName": "FogMemoryRegistry",
  "sourceName": "contracts/contracts/FogMemoryRegistry.sol",
  "abi": [
    {
      "inputs": [
        {
          "internalType": "address",
          "name": "_tokenAddress",
          "type": "address"
        }
      ],
      "stateMutability": "nonpayable",
      "type": "constructor"
    },
    {
      "inputs": [
        {
          "internalType": "address",
          "name": "owner",
          "type": "address"
        }
      ],
      "name": "OwnableInvalidOwner",
      "type": "error"
    },
    {
      "inputs": [
        {
          "internalType": "address",
          "name": "account",
          "type": "address"
        }
      ],
      "name": "OwnableUnauthorizedAccount",
      "type": "error"
    },
    {
      "inputs": [],
      "name": "ReentrancyGuardReentrantCall",
      "type": "error"
    },
    {
      "anonymous": false,
      "inputs": [
        {
          "indexed": true,
          "internalType": "address",
          "name": "agent",
          "type": "address"
        },
        {
          "indexed": false,
          "internalType": "string",
          "name": "name",
          "type": "string"
        },
        {
          "indexed": false,
          "internalType": "uint256",
          "name": "timestamp",
          "type": "uint256"
        }
      ],
      "name": "AgentRegistered",
      "type": "event"
    },
    {
      "anonymous": false,
      "inputs": [
        {
          "indexed": true,
          "internalType": "bytes32",
          "name": "memoryHash",
          "type": "bytes32"
        },
        {
          "indexed": true,
          "internalType": "address",
          "name": "agent",
          "type": "address"
        },
        {
          "indexed": true,
          "internalType": "address",
          "name": "retriever",
          "type": "address"
        }
      ],
      "name": "MemoryRetrieved",
      "type": "event"
    },
    {
      "anonymous": false,
      "inputs": [
        {
          "indexed": true,
          "internalType": "bytes32",
          "name": "memoryHash",
          "type": "bytes32"
        },
        {
          "indexed": true,
          "internalType": "address",
          "name": "agent",
          "type": "address"
        },
        {
          "indexed": false,
          "internalType": "uint256",
          "name": "timestamp",
          "type": "uint256"
        },
        {
          "indexed": false,
          "internalType": "string",
          "name": "metadataURI",
          "type": "string"
        }
      ],
      "name": "MemoryStored",
      "type": "event"
    },
    {
      "anonymous": false,
      "inputs": [
        {
          "indexed": true,
          "internalType": "bytes32",
          "name": "memoryHash",
          "type": "bytes32"
        },
        {
          "indexed": false,
          "internalType": "uint256",
          "name": "newImportance",
          "type": "uint256"
        },
        {
          "indexed": false,
          "internalType": "bool",
          "name": "isActive",
          "type": "bool"
        }
      ],
      "name": "MemoryUpdated",
      "type": "event"
    },
    {
      "anonymous": false,
      "inputs": [
        {
          "indexed": true,
          "internalType": "address",
          "name": "previousOwner",
          "type": "address"
        },
        {
          "indexed": true,
          "internalType": "address",
          "name": "newOwner",
          "type": "address"
        }
      ],
      "name": "OwnershipTransferred",
      "type": "event"
    },
    {
      "inputs": [
        {
          "internalType": "address",
          "name": "",
          "type": "address"
        },
        {
          "internalType": "uint256",
          "name": "",
          "type": "uint256"
        }
      ],
      "name": "agentMemoryHashes",
      "outputs": [
        {
          "internalType": "bytes32",
          "name": "",
          "type": "bytes32"
        }
      ],
      "stateMutability": "view",
      "type": "function"
    },
    {
      "inputs": [
        {
          "internalType": "address",
          "name": "",
          "type": "address"
        }
      ],
      "name": "agentProfiles",
      "outputs": [
        {
          "internalType": "address",
          "name": "agentAddress",
          "type": "address"
        },
        {
          "internalType": "string",
          "name": "name",
          "type": "string"
        },
        {
          "internalType": "string",
          "name": "metadataURI",
          "type": "string"
        },
        {
          "internalType": "uint256",
          "name": "totalMemories",
          "type": "uint256"
        },
        {
          "internalType": "uint256",
          "name": "reputationScore",
          "type": "uint256"
        },
        {
          "internalType": "bool",
          "name": "isRegistered",
          "type": "bool"
        },
        {
          "internalType": "uint256",
          "name": "registrationTime",
          "type": "uint256"
        }
      ],
      "stateMutability": "view",
      "type": "function"
    },
    {
      "inputs": [],
      "name": "getAgentCount",
      "outputs": [
        {
          "internalType": "uint256",
          "name": "",
          "type": "uint256"
        }
      ],
      "stateMutability": "view",
      "type": "function"
    },
    {
      "inputs": [
        {
          "internalType": "address",
          "name": "agent",
          "type": "address"
        }
      ],
      "name": "getAgentMemories",
      "outputs": [
        {
          "internalType": "bytes32[]",
          "name": "",
          "type": "bytes32[]"
        }
      ],
      "stateMutability": "view",
      "type": "function"
    },
    {
      "inputs": [
        {
          "internalType": "address",
          "name": "agent",
          "type": "address"
        }
      ],
      "name": "getAgentProfile",
      "outputs": [
        {
          "components": [
            {
              "internalType": "address",
              "name": "agentAddress",
              "type": "address"
            },
            {
              "internalType": "string",
              "name": "name",
              "type": "string"
            },
            {
              "internalType": "string",
              "name": "metadataURI",
              "type": "string"
            },
            {
              "internalType": "uint256",
              "name": "totalMemories",
              "type": "uint256"
            },
            {
              "internalType": "uint256",
              "name": "reputationScore",
              "type": "uint256"
            },
            {
              "internalType": "bool",
              "name": "isRegistered",
              "type": "bool"
            },
            {
              "internalType": "uint256",
              "name": "registrationTime",
              "type": "uint256"
            }
          ],
          "internalType": "struct FogMemoryRegistry.AgentProfile",
          "name": "",
          "type": "tuple"
        }
      ],
      "stateMutability": "view",
      "type": "function"
    },
    {
      "inputs": [
        {
          "internalType": "bytes32",
          "name": "tag",
          "type": "bytes32"
        }
      ],
      "name": "getMemoriesByTag",
      "outputs": [
        {
          "internalType": "bytes32[]",
          "name": "",
          "type": "bytes32[]"
        }
      ],
      "stateMutability": "view",
      "type": "function"
    },
    {
      "inputs": [
        {
          "internalType": "bytes32",
          "name": "memoryHash",
          "type": "bytes32"
        }
      ],
      "name": "getMemory",
      "outputs": [
        {
          "components": [
            {
              "internalType": "bytes32",
              "name": "memoryHash",
              "type": "bytes32"
            },
            {
              "internalType": "address",
              "name": "agent",
              "type": "address"
            },
            {
              "internalType": "uint256",
              "name": "timestamp",
              "type": "uint256"
            },
            {
              "internalType": "uint256",
              "name": "blockNumber",
              "type": "uint256"
            },
            {
              "internalType": "string",
              "name": "metadataURI",
              "type": "string"
            },
            {
              "internalType": "bytes32[]",
              "name": "tags",
              "type": "bytes32[]"
            },
            {
              "internalType": "bool",
              "name": "isActive",
              "type": "bool"
            },
            {
              "internalType": "uint256",
              "name": "importance",
              "type": "uint256"
            }
          ],
          "internalType": "struct FogMemoryRegistry.MemoryEntry",
          "name": "",
          "type": "tuple"
        }
      ],
      "stateMutability": "view",
      "type": "function"
    },
    {
      "inputs": [],
      "name": "maxImportance",
      "outputs": [
        {
          "internalType": "uint256",
          "name": "",
          "type": "uint256"
        }
      ],
      "stateMutability": "view",
      "type": "function"
    },
    {
      "inputs": [
        {
          "internalType": "bytes32",
          "name": "",
          "type": "bytes32"
        }
      ],
      "name": "memories",
      "outputs": [
        {
          "internalType": "bytes32",
          "name": "memoryHash",
          "type": "bytes32"
        },
        {
          "internalType": "address",
          "name": "agent",
          "type": "address"
        },
        {
          "internalType": "uint256",
          "name": "timestamp",
          "type": "uint256"
        },
        {
          "internalType": "uint256",
          "name": "blockNumber",
          "type": "uint256"
        },
        {
          "internalType": "string",
          "name": "metadataURI",
          "type": "string"
        },
        {
          "internalType": "bool",
          "name": "isActive",
          "type": "bool"
        },
        {
          "internalType": "uint256",
          "name": "importance",
          "type": "uint256"
        }
      ],
      "stateMutability": "view",
      "type": "function"
    },
    {
      "inputs": [],
      "name": "minImportance",
      "outputs": [
        {
          "internalType": "uint256",
          "name": "",
          "type": "uint256"
        }
      ],
      "stateMutability": "view",
      "type": "function"
    },
    {
      "inputs": [],
      "name": "owner",
      "outputs": [
        {
          "internalType": "address",
          "name": "",
          "type": "address"
        }
      ],
      "stateMutability": "view",
      "type": "function"
    },
    {
      "inputs": [
        {
          "internalType": "string",
          "name": "name",
          "type": "string"
        },
        {
          "internalType": "string",
          "name": "metadataURI",
          "type": "string"
        }
      ],
      "name": "registerAgent",
      "outputs": [
        {
          "internalType": "bool",
          "name": "",
          "type": "bool"
        }
      ],
      "stateMutability": "nonpayable",
      "type": "function"
    },
    {
      "inputs": [
        {
          "internalType": "uint256",
          "name": "",
          "type": "uint256"
        }
      ],
      "name": "registeredAgents",
      "outputs": [
        {
          "internalType": "address",
          "name": "",
          "type": "address"
        }
      ],
      "stateMutability": "view",
      "type": "function"
    },
    {
      "inputs": [],
      "name": "renounceOwnership",
      "outputs": [],
      "stateMutability": "nonpayable",
      "type": "function"
    },
    {
      "inputs": [
        {
          "internalType": "uint256",
          "name": "newFee",
          "type": "uint256"
        }
      ],
      "name": "setStorageFee",
      "outputs": [],
      "stateMutability": "nonpayable",
      "type": "function"
    },
    {
      "inputs": [],
      "name": "storageFee",
      "outputs": [
        {
          "internalType": "uint256",
          "name": "",
          "type": "uint256"
        }
      ],
      "stateMutability": "view",
      "type": "function"
    },
    {
      "inputs": [
        {
          "internalType": "bytes32",
          "name": "memoryHash",
          "type": "bytes32"
        },
        {
          "internalType": "string",
          "name": "metadataURI",
          "type": "string"
        },
        {
          "internalType": "bytes32[]",
          "name": "tags",
          "type": "bytes32[]"
        },
        {
          "internalType": "uint256",
          "name": "importance",
          "type": "uint256"
        }
      ],
      "name": "storeMemory",
      "outputs": [
        {
          "internalType": "bool",
          "name": "",
          "type": "bool"
        }
      ],
      "stateMutability": "nonpayable",
      "type": "function"
    },
    {
      "inputs": [
        {
          "internalType": "bytes32",
          "name": "",
          "type": "bytes32"
        },
        {
          "internalType": "uint256",
          "name": "",
          "type": "uint256"
        }
      ],
      "name": "tagToMemories",
      "outputs": [
        {
          "internalType": "bytes32",
          "name": "",
          "type": "bytes32"
        }
      ],
      "stateMutability": "view",
      "type": "function"
    },
    {
      "inputs": [],
      "name": "token",
      "outputs": [
        {
          "internalType": "contract FogMemoryToken",
          "name": "",
          "type": "address"
        }
      ],
      "stateMutability": "view",
      "type": "function"
    },
    {
      "inputs": [
        {
          "internalType": "address",
          "name": "newOwner",
          "type": "address"
        }
      ],
      "name": "transferOwnership",
      "outputs": [],
      "stateMutability": "nonpayable",
      "type": "function"
    },
    {
      "inputs": [
        {
          "internalType": "bytes32",
          "name": "memoryHash",
          "type": "bytes32"
        },
        {
          "internalType": "uint256",
          "name": "newImportance",
          "type": "uint256"
        },
        {
          "internalType": "bool",
          "name": "isActive",
          "type": "bool"
        }
      ],
      "name": "updateMemory",
      "outputs": [
        {
          "internalType": "bool",
          "name": "",
          "type": "bool"
        }
      ],
      "stateMutability": "nonpayable",
      "type": "function"
    },
    {
      "inputs": [
        {
          "internalType": "address",
          "name": "to",
          "type": "address"
        },
        {
          "internalType": "uint256",
          "name": "amount",
          "type": "uint256"
        }
      ],
      "name": "withdrawTreasury",
      "outputs": [],
      "stateMutability": "nonpayable",
      "type": "function"
    }
  ],
  "bytecode": "0x6080604052678ac7230489e8000060085560016009556064600a553480156200002757600080fd5b50604051620034363803806200343683398181016040528101906200004d919062000252565b33600073ffffffffffffffffffffffffffffffffffffffff168173ffffffffffffffffffffffffffffffffffffffff1603620000c35760006040517f1e4fbdf7000000000000000000000000000000000000000000000000000000008152600401620000ba919062000295565b60405180910390fd5b620000d4816200012460201b60201c565b506001808190555080600260006101000a81548173ffffffffffffffffffffffffffffffffffffffff021916908373ffffffffffffffffffffffffffffffffffffffff16021790555050620002b2565b60008060009054906101000a900473ffffffffffffffffffffffffffffffffffffffff169050816000806101000a81548173ffffffffffffffffffffffffffffffffffffffff021916908373ffffffffffffffffffffffffffffffffffffffff1602179055508173ffffffffffffffffffffffffffffffffffffffff168173ffffffffffffffffffffffffffffffffffffffff167f8be0079c531659141344cd1fd0a4f28419497f9722a3daafe3b4186f6b6457e060405160405180910390a35050565b600080fd5b600073ffffffffffffffffffffffffffffffffffffffff82169050919050565b60006200021a82620001ed565b9050919050565b6200022c816200020d565b81146200023857600080fd5b50565b6000815190506200024c8162000221565b92915050565b6000602082840312156200026b576200026a620001e8565b5b60006200027b848285016200023b565b91505092915050565b6200028f816200020d565b82525050565b6000602082019050620002ac600083018462000284565b92915050565b61317480620002c26000396000f3fe608060405234801561001057600080fd5b50600436106101425760003560e01c80638da5cb5b116100b8578063dfa7ff341161007c578063dfa7ff34146103b9578063f1385d73146103d5578063f2fde38b1461040b578063fc0c546a14610427578063fdad389614610445578063ff17aca41461047557610142565b80638da5cb5b146102ff57806391cab63e1461031d5780639c8cc1391461033b578063a3244e4b14610359578063a7bd211c1461038957610142565b806355f7992a1161010a57806355f7992a14610223578063715018a61461024157806374e12a861461024b578063773f0b181461028157806378dc93a41461029f57806388a31e27146102cf57610142565b80630d86419a146101475780631d24eff414610163578063388c5d20146101935780633a5aca01146101c3578063552338b3146101f3575b600080fd5b610161600480360381019061015c9190611dde565b6104a5565b005b61017d60048036038101906101789190611e54565b610590565b60405161018a91906120bf565b60405180910390f35b6101ad60048036038101906101a891906120e1565b6107d2565b6040516101ba9190612130565b60405180910390f35b6101dd60048036038101906101d89190611dde565b610803565b6040516101ea9190612130565b60405180910390f35b61020d6004803603810190610208919061214b565b610834565b60405161021a91906121e7565b60405180910390f35b61022b61095a565b6040516102389190612218565b60405180910390f35b610249610960565b005b61026560048036038101906102609190611e54565b610974565b604051610278979695949392919061229b565b60405180910390f35b610289610a6b565b6040516102969190612218565b60405180910390f35b6102b960048036038101906102b4919061214b565b610a71565b6040516102c691906123b4565b60405180910390f35b6102e960048036038101906102e49190611e54565b610c7d565b6040516102f691906121e7565b60405180910390f35b610307610ce8565b60405161031491906123d6565b60405180910390f35b610325610d11565b6040516103329190612218565b60405180910390f35b610343610d1e565b6040516103509190612218565b60405180910390f35b610373600480360381019061036e91906124ac565b610d24565b6040516103809190612553565b60405180910390f35b6103a3600480360381019061039e919061256e565b61137f565b6040516103b091906123d6565b60405180910390f35b6103d360048036038101906103ce919061256e565b6113be565b005b6103ef60048036038101906103ea919061214b565b6113d0565b604051610402979695949392919061259b565b60405180910390f35b6104256004803603810190610420919061214b565b61154f565b005b61042f6115d5565b60405161043c9190612677565b60405180910390f35b61045f600480360381019061045a91906126be565b6115fb565b60405161046c9190612553565b60405180910390f35b61048f600480360381019061048a9190612711565b611763565b60405161049c9190612553565b60405180910390f35b6104ad611a7f565b600260009054906101000a900473ffffffffffffffffffffffffffffffffffffffff1673ffffffffffffffffffffffffffffffffffffffff1663a9059cbb83836040518363ffffffff1660e01b815260040161050a929190612792565b6020604051808303816000875af1158015610529573d6000803e3d6000fd5b505050506040513d601f19601f8201168201806040525081019061054d91906127d0565b61058c576040517f08c379a000000000000000000000000000000000000000000000000000000000815260040161058390612849565b60405180910390fd5b5050565b610598611c21565b60006003600084815260200190815260200160002060405180610100016040529081600082015481526020016001820160009054906101000a900473ffffffffffffffffffffffffffffffffffffffff1673ffffffffffffffffffffffffffffffffffffffff1673ffffffffffffffffffffffffffffffffffffffff168152602001600282015481526020016003820154815260200160048201805461063d90612898565b80601f016020809104026020016040519081016040528092919081815260200182805461066990612898565b80156106b65780601f1061068b576101008083540402835291602001916106b6565b820191906000526020600020905b81548152906001019060200180831161069957829003601f168201915b505050505081526020016005820180548060200260200160405190810160405280929190818152602001828054801561070e57602002820191906000526020600020905b8154815260200190600101908083116106fa575b505050505081526020016006820160009054906101000a900460ff1615151515815260200160078201548152505090506000816040015111610785576040517f08c379a000000000000000000000000000000000000000000000000000000000815260040161077c90612915565b60405180910390fd5b8060c001516107c9576040517f08c379a00000000000000000000000000000000000000000000000000000000081526004016107c090612981565b60405180910390fd5b80915050919050565b600660205281600052604060002081815481106107ee57600080fd5b90600052602060002001600091509150505481565b6004602052816000526040600020818154811061081f57600080fd5b90600052602060002001600091509150505481565b6060600560008373ffffffffffffffffffffffffffffffffffffffff1673ffffffffffffffffffffffffffffffffffffffff16815260200190815260200160002060050160009054906101000a900460ff166108c5576040517f08c379a00000000000000000000000000000000000000000000000000000000081526004016108bc906129ed565b60405180910390fd5b600460008373ffffffffffffffffffffffffffffffffffffffff1673ffffffffffffffffffffffffffffffffffffffff16815260200190815260200160002080548060200260200160405190810160405280929190818152602001828054801561094e57602002820191906000526020600020905b81548152602001906001019080831161093a575b50505050509050919050565b600a5481565b610968611a7f565b6109726000611b06565b565b60036020528060005260406000206000915090508060000154908060010160009054906101000a900473ffffffffffffffffffffffffffffffffffffffff16908060020154908060030154908060040180546109cf90612898565b80601f01602080910402602001604051908101604052809291908181526020018280546109fb90612898565b8015610a485780601f10610a1d57610100808354040283529160200191610a48565b820191906000526020600020905b815481529060010190602001808311610a2b57829003601f168201915b5050505050908060060160009054906101000a900460ff16908060070154905087565b60085481565b610a79611c81565b600560008373ffffffffffffffffffffffffffffffffffffffff1673ffffffffffffffffffffffffffffffffffffffff1681526020019081526020016000206040518060e00160405290816000820160009054906101000a900473ffffffffffffffffffffffffffffffffffffffff1673ffffffffffffffffffffffffffffffffffffffff1673ffffffffffffffffffffffffffffffffffffffff168152602001600182018054610b2990612898565b80601f0160208091040260200160405190810160405280929190818152602001828054610b5590612898565b8015610ba25780601f10610b7757610100808354040283529160200191610ba2565b820191906000526020600020905b815481529060010190602001808311610b8557829003601f168201915b50505050508152602001600282018054610bbb90612898565b80601f0160208091040260200160405190810160405280929190818152602001828054610be790612898565b8015610c345780601f10610c0957610100808354040283529160200191610c34565b820191906000526020600020905b815481529060010190602001808311610c1757829003601f168201915b5050505050815260200160038201548152602001600482015481526020016005820160009054906101000a900460ff161515151581526020016006820154815250509050919050565b606060066000838152602001908152602001600020805480602002602001604051908101604052809291908181526020018280548015610cdc57602002820191906000526020600020905b815481526020019060010190808311610cc8575b50505050509050919050565b60008060009054906101000a900473ffffffffffffffffffffffffffffffffffffffff16905090565b6000600780549050905090565b60095481565b6000610d2e611bca565b600560003373ffffffffffffffffffffffffffffffffffffffff1673ffffffffffffffffffffffffffffffffffffffff16815260200190815260200160002060050160009054906101000a900460ff16610dbd576040517f08c379a0000000000000000000000000000000000000000000000000000000008152600401610db4906129ed565b60405180910390fd5b6000600360008981526020019081526020016000206002015414610e16576040517f08c379a0000000000000000000000000000000000000000000000000000000008152600401610e0d90612a59565b60405180910390fd5b6009548210158015610e2a5750600a548211155b610e69576040517f08c379a0000000000000000000000000000000000000000000000000000000008152600401610e6090612ac5565b60405180910390fd5b60008686905011610eaf576040517f08c379a0000000000000000000000000000000000000000000000000000000008152600401610ea690612b31565b60405180910390fd5b600260009054906101000a900473ffffffffffffffffffffffffffffffffffffffff1673ffffffffffffffffffffffffffffffffffffffff166323b872dd33306008546040518463ffffffff1660e01b8152600401610f1093929190612b51565b6020604051808303816000875af1158015610f2f573d6000803e3d6000fd5b505050506040513d601f19601f82011682018060405250810190610f5391906127d0565b610f92576040517f08c379a0000000000000000000000000000000000000000000000000000000008152600401610f8990612bd4565b60405180910390fd5b60006002600854610fa39190612c52565b9050600260009054906101000a900473ffffffffffffffffffffffffffffffffffffffff1673ffffffffffffffffffffffffffffffffffffffff166342966c68826040518263ffffffff1660e01b81526004016110009190612218565b600060405180830381600087803b15801561101a57600080fd5b505af115801561102e573d6000803e3d6000fd5b505050506040518061010001604052808981526020013373ffffffffffffffffffffffffffffffffffffffff16815260200142815260200143815260200188888080601f016020809104026020016040519081016040528093929190818152602001838380828437600081840152601f19601f820116905080830192505050505050508152602001868680806020026020016040519081016040528093929190818152602001838360200280828437600081840152601f19601f82011690508083019250505050505050815260200160011515815260200184815250600360008a81526020019081526020016000206000820151816000015560208201518160010160006101000a81548173ffffffffffffffffffffffffffffffffffffffff021916908373ffffffffffffffffffffffffffffffffffffffff160217905550604082015181600201556060820151816003015560808201518160040190816111979190612e54565b5060a08201518160050190805190602001906111b4929190611cd6565b5060c08201518160060160006101000a81548160ff02191690831515021790555060e08201518160070155905050600460003373ffffffffffffffffffffffffffffffffffffffff1673ffffffffffffffffffffffffffffffffffffffff168152602001908152602001600020889080600181540180825580915050600190039060005260206000200160009091909190915055600560003373ffffffffffffffffffffffffffffffffffffffff1673ffffffffffffffffffffffffffffffffffffffff168152602001908152602001600020600301600081548092919061129b90612f26565b919050555060005b8585905081101561131457600660008787848181106112c5576112c4612f6e565b5b905060200201358152602001908152602001600020899080600181540180825580915050600190039060005260206000200160009091909190915055808061130c90612f26565b9150506112a3565b503373ffffffffffffffffffffffffffffffffffffffff16887fae2c96d39b684c3657f502a12a380acf3eff4e98847ded1b2390ed487a7ae670428a8a60405161136093929190612fd9565b60405180910390a36001915050611375611c10565b9695505050505050565b6007818154811061138f57600080fd5b906000526020600020016000915054906101000a900473ffffffffffffffffffffffffffffffffffffffff1681565b6113c6611a7f565b8060088190555050565b60056020528060005260406000206000915090508060000160009054906101000a900473ffffffffffffffffffffffffffffffffffffffff169080600101805461141990612898565b80601f016020809104026020016040519081016040528092919081815260200182805461144590612898565b80156114925780601f1061146757610100808354040283529160200191611492565b820191906000526020600020905b81548152906001019060200180831161147557829003601f168201915b5050505050908060020180546114a790612898565b80601f01602080910402602001604051908101604052809291908181526020018280546114d390612898565b80156115205780601f106114f557610100808354040283529160200191611520565b820191906000526020600020905b81548152906001019060200180831161150357829003601f168201915b5050505050908060030154908060040154908060050160009054906101000a900460ff16908060060154905087565b611557611a7f565b600073ffffffffffffffffffffffffffffffffffffffff168173ffffffffffffffffffffffffffffffffffffffff16036115c95760006040517f1e4fbdf70000000000000000000000000000000000000000000000000000000081526004016115c091906123d6565b60405180910390fd5b6115d281611b06565b50565b600260009054906101000a900473ffffffffffffffffffffffffffffffffffffffff1681565b6000806003600086815260200190815260200160002090503373ffffffffffffffffffffffffffffffffffffffff168160010160009054906101000a900473ffffffffffffffffffffffffffffffffffffffff1673ffffffffffffffffffffffffffffffffffffffff16146116a5576040517f08c379a000000000000000000000000000000000000000000000000000000000815260040161169c90613057565b60405180910390fd5b60095484101580156116b95750600a548411155b6116f8576040517f08c379a00000000000000000000000000000000000000000000000000000000081526004016116ef90612ac5565b60405180910390fd5b838160070181905550828160060160006101000a81548160ff021916908315150217905550847f2386a0ce8fb36875db6f36b19b1ceb661911a51d70a21f34ed09fc8408b8a8a0858560405161174f929190613077565b60405180910390a260019150509392505050565b6000600560003373ffffffffffffffffffffffffffffffffffffffff1673ffffffffffffffffffffffffffffffffffffffff16815260200190815260200160002060050160009054906101000a900460ff16156117f5576040517f08c379a00000000000000000000000000000000000000000000000000000000081526004016117ec906130ec565b60405180910390fd5b6040518060e001604052803373ffffffffffffffffffffffffffffffffffffffff16815260200186868080601f016020809104026020016040519081016040528093929190818152602001838380828437600081840152601f19601f82011690508083019250505050505050815260200184848080601f016020809104026020016040519081016040528093929190818152602001838380828437600081840152601f19601f820116905080830192505050505050508152602001600081526020016000815260200160011515815260200142815250600560003373ffffffffffffffffffffffffffffffffffffffff1673ffffffffffffffffffffffffffffffffffffffff16815260200190815260200160002060008201518160000160006101000a81548173ffffffffffffffffffffffffffffffffffffffff021916908373ffffffffffffffffffffffffffffffffffffffff16021790555060208201518160010190816119669190612e54565b50604082015181600201908161197c9190612e54565b50606082015181600301556080820151816004015560a08201518160050160006101000a81548160ff02191690831515021790555060c082015181600601559050506007339080600181540180825580915050600190039060005260206000200160009091909190916101000a81548173ffffffffffffffffffffffffffffffffffffffff021916908373ffffffffffffffffffffffffffffffffffffffff1602179055503373ffffffffffffffffffffffffffffffffffffffff167f023c5efe572c42192271951adb0e77f97d7fc84bc761d026189ac08617346824868642604051611a6b9392919061310c565b60405180910390a260019050949350505050565b611a87611c19565b73ffffffffffffffffffffffffffffffffffffffff16611aa5610ce8565b73ffffffffffffffffffffffffffffffffffffffff1614611b0457611ac8611c19565b6040517f118cdaa7000000000000000000000000000000000000000000000000000000008152600401611afb91906123d6565b60405180910390fd5b565b60008060009054906101000a900473ffffffffffffffffffffffffffffffffffffffff169050816000806101000a81548173ffffffffffffffffffffffffffffffffffffffff021916908373ffffffffffffffffffffffffffffffffffffffff1602179055508173ffffffffffffffffffffffffffffffffffffffff168173ffffffffffffffffffffffffffffffffffffffff167f8be0079c531659141344cd1fd0a4f28419497f9722a3daafe3b4186f6b6457e060405160405180910390a35050565b600260015403611c06576040517f3ee5aeb500000000000000000000000000000000000000000000000000000000815260040160405180910390fd5b6002600181905550565b60018081905550565b600033905090565b60405180610100016040528060008019168152602001600073ffffffffffffffffffffffffffffffffffffffff16815260200160008152602001600081526020016060815260200160608152602001600015158152602001600081525090565b6040518060e00160405280600073ffffffffffffffffffffffffffffffffffffffff16815260200160608152602001606081526020016000815260200160008152602001600015158152602001600081525090565b828054828255906000526020600020908101928215611d12579160200282015b82811115611d11578251825591602001919060010190611cf6565b5b509050611d1f9190611d23565b5090565b5b80821115611d3c576000816000905550600101611d24565b5090565b600080fd5b600080fd5b600073ffffffffffffffffffffffffffffffffffffffff82169050919050565b6000611d7582611d4a565b9050919050565b611d8581611d6a565b8114611d9057600080fd5b50565b600081359050611da281611d7c565b92915050565b6000819050919050565b611dbb81611da8565b8114611dc657600080fd5b50565b600081359050611dd881611db2565b92915050565b60008060408385031215611df557611df4611d40565b5b6000611e0385828601611d93565b9250506020611e1485828601611dc9565b9150509250929050565b6000819050919050565b611e3181611e1e565b8114611e3c57600080fd5b50565b600081359050611e4e81611e28565b92915050565b600060208284031215611e6a57611e69611d40565b5b6000611e7884828501611e3f565b91505092915050565b611e8a81611e1e565b82525050565b611e9981611d6a565b82525050565b611ea881611da8565b82525050565b600081519050919050565b600082825260208201905092915050565b60005b83811015611ee8578082015181840152602081019050611ecd565b60008484015250505050565b6000601f19601f8301169050919050565b6000611f1082611eae565b611f1a8185611eb9565b9350611f2a818560208601611eca565b611f3381611ef4565b840191505092915050565b600081519050919050565b600082825260208201905092915050565b6000819050602082019050919050565b6000611f768383611e81565b60208301905092915050565b6000602082019050919050565b6000611f9a82611f3e565b611fa48185611f49565b9350611faf83611f5a565b8060005b83811015611fe0578151611fc78882611f6a565b9750611fd283611f82565b925050600181019050611fb3565b5085935050505092915050565b60008115159050919050565b61200281611fed565b82525050565b6000610100830160008301516120216000860182611e81565b5060208301516120346020860182611e90565b5060408301516120476040860182611e9f565b50606083015161205a6060860182611e9f565b50608083015184820360808601526120728282611f05565b91505060a083015184820360a086015261208c8282611f8f565b91505060c08301516120a160c0860182611ff9565b5060e08301516120b460e0860182611e9f565b508091505092915050565b600060208201905081810360008301526120d98184612008565b905092915050565b600080604083850312156120f8576120f7611d40565b5b600061210685828601611e3f565b925050602061211785828601611dc9565b9150509250929050565b61212a81611e1e565b82525050565b60006020820190506121456000830184612121565b92915050565b60006020828403121561216157612160611d40565b5b600061216f84828501611d93565b91505092915050565b600082825260208201905092915050565b600061219482611f3e565b61219e8185612178565b93506121a983611f5a565b8060005b838110156121da5781516121c18882611f6a565b97506121cc83611f82565b9250506001810190506121ad565b5085935050505092915050565b600060208201905081810360008301526122018184612189565b905092915050565b61221281611da8565b82525050565b600060208201905061222d6000830184612209565b92915050565b61223c81611d6a565b82525050565b600082825260208201905092915050565b600061225e82611eae565b6122688185612242565b9350612278818560208601611eca565b61228181611ef4565b840191505092915050565b61229581611fed565b82525050565b600060e0820190506122b0600083018a612121565b6122bd6020830189612233565b6122ca6040830188612209565b6122d76060830187612209565b81810360808301526122e98186612253565b90506122f860a083018561228c565b61230560c0830184612209565b98975050505050505050565b600060e0830160008301516123296000860182611e90565b50602083015184820360208601526123418282611f05565b9150506040830151848203604086015261235b8282611f05565b91505060608301516123706060860182611e9f565b5060808301516123836080860182611e9f565b5060a083015161239660a0860182611ff9565b5060c08301516123a960c0860182611e9f565b508091505092915050565b600060208201905081810360008301526123ce8184612311565b905092915050565b60006020820190506123eb6000830184612233565b92915050565b600080fd5b600080fd5b600080fd5b60008083601f840112612416576124156123f1565b5b8235905067ffffffffffffffff811115612433576124326123f6565b5b60208301915083600182028301111561244f5761244e6123fb565b5b9250929050565b60008083601f84011261246c5761246b6123f1565b5b8235905067ffffffffffffffff811115612489576124886123f6565b5b6020830191508360208202830111156124a5576124a46123fb565b5b9250929050565b600080600080600080608087890312156124c9576124c8611d40565b5b60006124d789828a01611e3f565b965050602087013567ffffffffffffffff8111156124f8576124f7611d45565b5b61250489828a01612400565b9550955050604087013567ffffffffffffffff81111561252757612526611d45565b5b61253389828a01612456565b9350935050606061254689828a01611dc9565b9150509295509295509295565b6000602082019050612568600083018461228c565b92915050565b60006020828403121561258457612583611d40565b5b600061259284828501611dc9565b91505092915050565b600060e0820190506125b0600083018a612233565b81810360208301526125c28189612253565b905081810360408301526125d68188612253565b90506125e56060830187612209565b6125f26080830186612209565b6125ff60a083018561228c565b61260c60c0830184612209565b98975050505050505050565b6000819050919050565b600061263d61263861263384611d4a565b612618565b611d4a565b9050919050565b600061264f82612622565b9050919050565b600061266182612644565b9050919050565b61267181612656565b82525050565b600060208201905061268c6000830184612668565b92915050565b61269b81611fed565b81146126a657600080fd5b50565b6000813590506126b881612692565b92915050565b6000806000606084860312156126d7576126d6611d40565b5b60006126e586828701611e3f565b93505060206126f686828701611dc9565b9250506040612707868287016126a9565b9150509250925092565b6000806000806040858703121561272b5761272a611d40565b5b600085013567ffffffffffffffff81111561274957612748611d45565b5b61275587828801612400565b9450945050602085013567ffffffffffffffff81111561277857612777611d45565b5b61278487828801612400565b925092505092959194509250565b60006040820190506127a76000830185612233565b6127b46020830184612209565b9392505050565b6000815190506127ca81612692565b92915050565b6000602082840312156127e6576127e5611d40565b5b60006127f4848285016127bb565b91505092915050565b7f5769746864726177206661696c65640000000000000000000000000000000000600082015250565b6000612833600f83612242565b915061283e826127fd565b602082019050919050565b6000602082019050818103600083015261286281612826565b9050919050565b7f4e487b7100000000000000000000000000000000000000000000000000000000600052602260045260246000fd5b600060028204905060018216806128b057607f821691505b6020821081036128c3576128c2612869565b5b50919050565b7f4d656d6f7279206e6f7420666f756e6400000000000000000000000000000000600082015250565b60006128ff601083612242565b915061290a826128c9565b602082019050919050565b6000602082019050818103600083015261292e816128f2565b9050919050565b7f4d656d6f727920696e6163746976650000000000000000000000000000000000600082015250565b600061296b600f83612242565b915061297682612935565b602082019050919050565b6000602082019050818103600083015261299a8161295e565b9050919050565b7f4167656e74206e6f742072656769737465726564000000000000000000000000600082015250565b60006129d7601483612242565b91506129e2826129a1565b602082019050919050565b60006020820190508181036000830152612a06816129ca565b9050919050565b7f4d656d6f72792065786973747300000000000000000000000000000000000000600082015250565b6000612a43600d83612242565b9150612a4e82612a0d565b602082019050919050565b60006020820190508181036000830152612a7281612a36565b9050919050565b7f496e76616c696420696d706f7274616e63650000000000000000000000000000600082015250565b6000612aaf601283612242565b9150612aba82612a79565b602082019050919050565b60006020820190508181036000830152612ade81612aa2565b9050919050565b7f456d707479206d65746164617461000000000000000000000000000000000000600082015250565b6000612b1b600e83612242565b9150612b2682612ae5565b602082019050919050565b60006020820190508181036000830152612b4a81612b0e565b9050919050565b6000606082019050612b666000830186612233565b612b736020830185612233565b612b806040830184612209565b949350505050565b7f5061796d656e74206661696c6564000000000000000000000000000000000000600082015250565b6000612bbe600e83612242565b9150612bc982612b88565b602082019050919050565b60006020820190508181036000830152612bed81612bb1565b9050919050565b7f4e487b7100000000000000000000000000000000000000000000000000000000600052601260045260246000fd5b7f4e487b7100000000000000000000000000000000000000000000000000000000600052601160045260246000fd5b6000612c5d82611da8565b9150612c6883611da8565b925082612c7857612c77612bf4565b5b828204905092915050565b7f4e487b7100000000000000000000000000000000000000000000000000000000600052604160045260246000fd5b60008190508160005260206000209050919050565b60006020601f8301049050919050565b600082821b905092915050565b600060088302612d147fffffffffffffffffffffffffffffffffffffffffffffffffffffffffffffffff82612cd7565b612d1e8683612cd7565b95508019841693508086168417925050509392505050565b6000612d51612d4c612d4784611da8565b612618565b611da8565b9050919050565b6000819050919050565b612d6b83612d36565b612d7f612d7782612d58565b848454612ce4565b825550505050565b600090565b612d94612d87565b612d9f818484612d62565b505050565b5b81811015612dc357612db8600082612d8c565b600181019050612da5565b5050565b601f821115612e0857612dd981612cb2565b612de284612cc7565b81016020851015612df1578190505b612e05612dfd85612cc7565b830182612da4565b50505b505050565b600082821c905092915050565b6000612e2b60001984600802612e0d565b1980831691505092915050565b6000612e448383612e1a565b9150826002028217905092915050565b612e5d82611eae565b67ffffffffffffffff811115612e7657612e75612c83565b5b612e808254612898565b612e8b828285612dc7565b600060209050601f831160018114612ebe5760008415612eac578287015190505b612eb68582612e38565b865550612f1e565b601f198416612ecc86612cb2565b60005b82811015612ef457848901518255600182019150602085019450602081019050612ecf565b86831015612f115784890151612f0d601f891682612e1a565b8355505b6001600288020188555050505b505050505050565b6000612f3182611da8565b91507fffffffffffffffffffffffffffffffffffffffffffffffffffffffffffffffff8203612f6357612f62612c23565b5b600182019050919050565b7f4e487b7100000000000000000000000000000000000000000000000000000000600052603260045260246000fd5b82818337600083830152505050565b6000612fb88385612242565b9350612fc5838584612f9d565b612fce83611ef4565b840190509392505050565b6000604082019050612fee6000830186612209565b8181036020830152613001818486612fac565b9050949350505050565b7f4e6f7420796f7572206d656d6f72790000000000000000000000000000000000600082015250565b6000613041600f83612242565b915061304c8261300b565b602082019050919050565b6000602082019050818103600083015261307081613034565b9050919050565b600060408201905061308c6000830185612209565b613099602083018461228c565b9392505050565b7f416c726561647920726567697374657265640000000000000000000000000000600082015250565b60006130d6601283612242565b91506130e1826130a0565b602082019050919050565b60006020820190508181036000830152613105816130c9565b9050919050565b60006040820190508181036000830152613127818587612fac565b90506131366020830184612209565b94935050505056fea26469706673582212203c142a70dd0bb35fd73673842d6cb930167eb77f6a47b0a2325a6126b5667e1e64736f6c63430008140033",
  "linkReferences": {},
  "deployedLinkReferences": {}
}