{
  "_format": "hh-sol-artifact-1",
  "contractName": "FogMemoryVerifier",
  "sourceName": "contracts/contracts/FogMemoryVerifier.sol",
  "abi": [
    {
      "inputs": [],
      "stateMutability": "nonpayable",
      "type": "constructor"
    },
    {
      "inputs": [
        {
          "internalType": "address",
          "name": "owner",
          "type": "address"
        }
      ],
      "name": "OwnableInvalidOwner",
      "type": "error"
    },
    {
      "inputs": [
        {
          "internalType": "address",
          "name": "account",
          "type": "address"
        }
      ],
      "name": "OwnableUnauthorizedAccount",
      "type": "error"
    },
    {
      "anonymous": false,
      "inputs": [
        {
          "indexed": true,
          "internalType": "bytes32",
          "name": "memoryHash",
          "type": "bytes32"
        },
        {
          "indexed": true,
          "internalType": "address",
          "name": "verifier",
          "type": "address"
        },
        {
          "indexed": false,
          "internalType": "bool",
          "name": "isValid",
          "type": "bool"
        },
        {
          "indexed": false,
          "internalType": "uint256",
          "name": "confidence",
          "type": "uint256"
        }
      ],
      "name": "MemoryVerified",
      "type": "event"
    },
    {
      "anonymous": false,
      "inputs": [
        {
          "indexed": true,
          "internalType": "address",
          "name": "previousOwner",
          "type": "address"
        },
        {
          "indexed": true,
          "internalType": "address",
          "name": "newOwner",
          "type": "address"
        }
      ],
      "name": "OwnershipTransferred",
      "type": "event"
    },
    {
      "anonymous": false,
      "inputs": [
        {
          "indexed": true,
          "internalType": "address",
          "name": "verifier",
          "type": "address"
        },
        {
          "indexed": false,
          "internalType": "string",
          "name": "name",
          "type": "string"
        }
      ],
      "name": "VerifierAdded",
      "type": "event"
    },
    {
      "anonymous": false,
      "inputs": [
        {
          "indexed": true,
          "internalType": "address",
          "name": "verifier",
          "type": "address"
        }
      ],
      "name": "VerifierRemoved",
      "type": "event"
    },
    {
      "anonymous": false,
      "inputs": [
        {
          "indexed": true,
          "internalType": "address",
          "name": "verifier",
          "type": "address"
        },
        {
          "indexed": false,
          "internalType": "uint256",
          "name": "newReputation",
          "type": "uint256"
        }
      ],
      "name": "VerifierReputationUpdated",
      "type": "event"
    },
    {
      "inputs": [
        {
          "internalType": "address",
          "name": "verifierAddress",
          "type": "address"
        },
        {
          "internalType": "string",
          "name": "name",
          "type": "string"
        }
      ],
      "name": "addVerifier",
      "outputs": [],
      "stateMutability": "nonpayable",
      "type": "function"
    },
    {
      "inputs": [
        {
          "internalType": "bytes32",
          "name": "memoryHash",
          "type": "bytes32"
        }
      ],
      "name": "getVerificationCount",
      "outputs": [
        {
          "internalType": "uint256",
          "name": "",
          "type": "uint256"
        }
      ],
      "stateMutability": "view",
      "type": "function"
    },
    {
      "inputs": [
        {
          "internalType": "bytes32",
          "name": "memoryHash",
          "type": "bytes32"
        }
      ],
      "name": "getVerifications",
      "outputs": [
        {
          "components": [
            {
              "internalType": "bytes32",
              "name": "memoryHash",
              "type": "bytes32"
            },
            {
              "internalType": "address",
              "name": "verifier",
              "type": "address"
            },
            {
              "internalType": "uint256",
              "name": "timestamp",
              "type": "uint256"
            },
            {
              "internalType": "uint256",
              "name": "confidence",
              "type": "uint256"
            },
            {
              "internalType": "string",
              "name": "notes",
              "type": "string"
            },
            {
              "internalType": "bool",
              "name": "isValid",
              "type": "bool"
            }
          ],
          "internalType": "struct FogMemoryVerifier.Verification[]",
          "name": "",
          "type": "tuple[]"
        }
      ],
      "stateMutability": "view",
      "type": "function"
    },
    {
      "inputs": [],
      "name": "getVerifierCount",
      "outputs": [
        {
          "internalType": "uint256",
          "name": "",
          "type": "uint256"
        }
      ],
      "stateMutability": "view",
      "type": "function"
    },
    {
      "inputs": [
        {
          "internalType": "bytes32",
          "name": "memoryHash",
          "type": "bytes32"
        }
      ],
      "name": "isMemoryVerified",
      "outputs": [
        {
          "internalType": "bool",
          "name": "",
          "type": "bool"
        }
      ],
      "stateMutability": "view",
      "type": "function"
    },
    {
      "inputs": [],
      "name": "minConfidenceThreshold",
      "outputs": [
        {
          "internalType": "uint256",
          "name": "",
          "type": "uint256"
        }
      ],
      "stateMutability": "view",
      "type": "function"
    },
    {
      "inputs": [],
      "name": "owner",
      "outputs": [
        {
          "internalType": "address",
          "name": "",
          "type": "address"
        }
      ],
      "stateMutability": "view",
      "type": "function"
    },
    {
      "inputs": [
        {
          "internalType": "address",
          "name": "verifierAddress",
          "type": "address"
        }
      ],
      "name": "removeVerifier",
      "outputs": [],
      "stateMutability": "nonpayable",
      "type": "function"
    },
    {
      "inputs": [],
      "name": "renounceOwnership",
      "outputs": [],
      "stateMutability": "nonpayable",
      "type": "function"
    },
    {
      "inputs": [
        {
          "internalType": "uint256",
          "name": "newThreshold",
          "type": "uint256"
        }
      ],
      "name": "setConfidenceThreshold",
      "outputs": [],
      "stateMutability": "nonpayable",
      "type": "function"
    },
    {
      "inputs": [
        {
          "internalType": "address",
          "name": "newOwner",
          "type": "address"
        }
      ],
      "name": "transferOwnership",
      "outputs": [],
      "stateMutability": "nonpayable",
      "type": "function"
    },
    {
      "inputs": [
        {
          "internalType": "bytes32",
          "name": "",
          "type": "bytes32"
        },
        {
          "internalType": "uint256",
          "name": "",
          "type": "uint256"
        }
      ],
      "name": "verifications",
      "outputs": [
        {
          "internalType": "bytes32",
          "name": "memoryHash",
          "type": "bytes32"
        },
        {
          "internalType": "address",
          "name": "verifier",
          "type": "address"
        },
        {
          "internalType": "uint256",
          "name": "timestamp",
          "type": "uint256"
        },
        {
          "internalType": "uint256",
          "name": "confidence",
          "type": "uint256"
        },
        {
          "internalType": "string",
          "name": "notes",
          "type": "string"
        },
        {
          "internalType": "bool",
          "name": "isValid",
          "type": "bool"
        }
      ],
      "stateMutability": "view",
      "type": "function"
    },
    {
      "inputs": [
        {
          "internalType": "uint256",
          "name": "",
          "type": "uint256"
        }
      ],
      "name": "verifierList",
      "outputs": [
        {
          "internalType": "address",
          "name": "",
          "type": "address"
        }
      ],
      "stateMutability": "view",
      "type": "function"
    },
    {
      "inputs": [
        {
          "internalType": "address",
          "name": "",
          "type": "address"
        }
      ],
      "name": "verifiers",
      "outputs": [
        {
          "internalType": "address",
          "name": "verifierAddress",
          "type": "address"
        },
        {
          "internalType": "string",
          "name": "name",
          "type": "string"
        },
        {
          "internalType": "uint256",
          "name": "reputation",
          "type": "uint256"
        },
        {
          "internalType": "bool",
          "name": "isActive",
          "type": "bool"
        },
        {
          "internalType": "uint256",
          "name": "totalVerifications",
          "type": "uint256"
        }
      ],
      "stateMutability": "view",
      "type": "function"
    },
    {
      "inputs": [
        {
          "internalType": "bytes32",
          "name": "memoryHash",
          "type": "bytes32"
        },
        {
          "internalType": "bool",
          "name": "isValid",
          "type": "bool"
        },
        {
          "internalType": "uint256",
          "name": "confidence",
          "type": "uint256"
        },
        {
          "internalType": "string",
          "name": "notes",
          "type": "string"
        }
      ],
      "name": "verifyMemory",
      "outputs": [
        {
          "internalType": "bool",
          "name": "",
          "type": "bool"
        }
      ],
      "stateMutability": "nonpayable",
      "type": "function"
    }
  ],
  "bytecode": "0x608060405260466004553480156200001657600080fd5b5033600073ffffffffffffffffffffffffffffffffffffffff168173ffffffffffffffffffffffffffffffffffffffff16036200008d5760006040517f1e4fbdf7000000000000000000000000000000000000000000000000000000008152600401620000849190620001ae565b60405180910390fd5b6200009e81620000a560201b60201c565b50620001cb565b60008060009054906101000a900473ffffffffffffffffffffffffffffffffffffffff169050816000806101000a81548173ffffffffffffffffffffffffffffffffffffffff021916908373ffffffffffffffffffffffffffffffffffffffff1602179055508173ffffffffffffffffffffffffffffffffffffffff168173ffffffffffffffffffffffffffffffffffffffff167f8be0079c531659141344cd1fd0a4f28419497f9722a3daafe3b4186f6b6457e060405160405180910390a35050565b600073ffffffffffffffffffffffffffffffffffffffff82169050919050565b6000620001968262000169565b9050919050565b620001a88162000189565b82525050565b6000602082019050620001c560008301846200019d565b92915050565b6121d580620001db6000396000f3fe608060405234801561001057600080fd5b50600436106100f55760003560e01c806376cde8c011610097578063ca2dfd0a11610066578063ca2dfd0a1461028a578063d1e94e57146102a6578063f2fde38b146102db578063fcdd5261146102f7576100f5565b806376cde8c0146102025780638da5cb5b1461021e5780638e3103c91461023c578063b9c688a71461026c576100f5565b80636c824487116100d35780636c8244871461018a578063715018a6146101be5780637340792a146101c857806374849185146101e4576100f5565b80635585863a146100fa57806357762ddd1461012a578063611cf5e31461015a575b600080fd5b610114600480360381019061010f9190611395565b610327565b60405161012191906113db565b60405180910390f35b610144600480360381019061013f9190611422565b610347565b6040516101519190611490565b60405180910390f35b610174600480360381019061016f9190611548565b610386565b60405161018191906115df565b60405180910390f35b6101a4600480360381019061019f9190611626565b610715565b6040516101b59594939291906116e3565b60405180910390f35b6101c6610800565b005b6101e260048036038101906101dd919061173d565b610814565b005b6101ec610abd565b6040516101f991906113db565b60405180910390f35b61021c60048036038101906102179190611422565b610ac3565b005b610226610b19565b6040516102339190611490565b60405180910390f35b61025660048036038101906102519190611395565b610b42565b60405161026391906115df565b60405180910390f35b610274610d96565b60405161028191906113db565b60405180910390f35b6102a4600480360381019061029f9190611626565b610da3565b005b6102c060048036038101906102bb919061179d565b610edb565b6040516102d2969594939291906117ec565b60405180910390f35b6102f560048036038101906102f09190611626565b610fe9565b005b610311600480360381019061030c9190611395565b61106f565b60405161031e9190611a25565b60405180910390f35b600060016000838152602001908152602001600020805490509050919050565b6003818154811061035757600080fd5b906000526020600020016000915054906101000a900473ffffffffffffffffffffffffffffffffffffffff1681565b6000600260003373ffffffffffffffffffffffffffffffffffffffff1673ffffffffffffffffffffffffffffffffffffffff16815260200190815260200160002060030160009054906101000a900460ff16610417576040517f08c379a000000000000000000000000000000000000000000000000000000000815260040161040e90611a93565b60405180910390fd5b606484111561045b576040517f08c379a000000000000000000000000000000000000000000000000000000000815260040161045290611aff565b60405180910390fd5b6103e88383905011156104a3576040517f08c379a000000000000000000000000000000000000000000000000000000000815260040161049a90611b6b565b60405180910390fd5b60006040518060c001604052808881526020013373ffffffffffffffffffffffffffffffffffffffff16815260200142815260200186815260200185858080601f016020809104026020016040519081016040528093929190818152602001838380828437600081840152601f19601f8201169050808301925050505050505081526020018715158152509050600160008881526020019081526020016000208190806001815401808255809150506001900390600052602060002090600602016000909190919091506000820151816000015560208201518160010160006101000a81548173ffffffffffffffffffffffffffffffffffffffff021916908373ffffffffffffffffffffffffffffffffffffffff160217905550604082015181600201556060820151816003015560808201518160040190816105e79190611dc6565b5060a08201518160050160006101000a81548160ff02191690831515021790555050506000600260003373ffffffffffffffffffffffffffffffffffffffff1673ffffffffffffffffffffffffffffffffffffffff168152602001908152602001600020905080600401600081548092919061066290611ec7565b919050555086801561067657506004548610155b156106b55760646001826002015461068e9190611f0f565b116106a957600181600201546106a49190611f0f565b6106ac565b60645b81600201819055505b3373ffffffffffffffffffffffffffffffffffffffff16887fe031bf2b0661fd3c7c266b5c1c6504f0f17e5cea048030e0c50f46262c928cea89896040516106fe929190611f43565b60405180910390a360019250505095945050505050565b60026020528060005260406000206000915090508060000160009054906101000a900473ffffffffffffffffffffffffffffffffffffffff169080600101805461075e90611be9565b80601f016020809104026020016040519081016040528092919081815260200182805461078a90611be9565b80156107d75780601f106107ac576101008083540402835291602001916107d7565b820191906000526020600020905b8154815290600101906020018083116107ba57829003601f168201915b5050505050908060020154908060030160009054906101000a900460ff16908060040154905085565b610808611202565b6108126000611289565b565b61081c611202565b600260008473ffffffffffffffffffffffffffffffffffffffff1673ffffffffffffffffffffffffffffffffffffffff16815260200190815260200160002060030160009054906101000a900460ff16156108ac576040517f08c379a00000000000000000000000000000000000000000000000000000000081526004016108a390611fb8565b60405180910390fd5b6040518060a001604052808473ffffffffffffffffffffffffffffffffffffffff16815260200183838080601f016020809104026020016040519081016040528093929190818152602001838380828437600081840152601f19601f820116905080830192505050505050508152602001603281526020016001151581526020016000815250600260008573ffffffffffffffffffffffffffffffffffffffff1673ffffffffffffffffffffffffffffffffffffffff16815260200190815260200160002060008201518160000160006101000a81548173ffffffffffffffffffffffffffffffffffffffff021916908373ffffffffffffffffffffffffffffffffffffffff16021790555060208201518160010190816109cd9190611dc6565b506040820151816002015560608201518160030160006101000a81548160ff021916908315150217905550608082015181600401559050506003839080600181540180825580915050600190039060005260206000200160009091909190916101000a81548173ffffffffffffffffffffffffffffffffffffffff021916908373ffffffffffffffffffffffffffffffffffffffff1602179055508273ffffffffffffffffffffffffffffffffffffffff167f30b5eb94a54f18a967aed7e72caf39194d0f0ba44ed3fed9febc2f35555611588383604051610ab0929190612014565b60405180910390a2505050565b60045481565b610acb611202565b6064811115610b0f576040517f08c379a0000000000000000000000000000000000000000000000000000000008152600401610b0690612084565b60405180910390fd5b8060048190555050565b60008060009054906101000a900473ffffffffffffffffffffffffffffffffffffffff16905090565b60008060016000848152602001908152602001600020805480602002602001604051908101604052809291908181526020016000905b82821015610ccb57838290600052602060002090600602016040518060c0016040529081600082015481526020016001820160009054906101000a900473ffffffffffffffffffffffffffffffffffffffff1673ffffffffffffffffffffffffffffffffffffffff1673ffffffffffffffffffffffffffffffffffffffff1681526020016002820154815260200160038201548152602001600482018054610c1f90611be9565b80601f0160208091040260200160405190810160405280929190818152602001828054610c4b90611be9565b8015610c985780601f10610c6d57610100808354040283529160200191610c98565b820191906000526020600020905b815481529060010190602001808311610c7b57829003601f168201915b505050505081526020016005820160009054906101000a900460ff16151515158152505081526020019060010190610b78565b50505050905060008060005b8351811015610d5257838181518110610cf357610cf26120a4565b5b602002602001015160a0015115610d3f578280610d0f90611ec7565b935050838181518110610d2557610d246120a4565b5b60200260200101516060015182610d3c9190611f0f565b91505b8080610d4a90611ec7565b915050610cd7565b5060008203610d675760009350505050610d91565b60008282610d759190612102565b90506004548110158015610d8a575060028310155b9450505050505b919050565b6000600380549050905090565b610dab611202565b600260008273ffffffffffffffffffffffffffffffffffffffff1673ffffffffffffffffffffffffffffffffffffffff16815260200190815260200160002060030160009054906101000a900460ff16610e3a576040517f08c379a0000000000000000000000000000000000000000000000000000000008152600401610e319061217f565b60405180910390fd5b6000600260008373ffffffffffffffffffffffffffffffffffffffff1673ffffffffffffffffffffffffffffffffffffffff16815260200190815260200160002060030160006101000a81548160ff0219169083151502179055508073ffffffffffffffffffffffffffffffffffffffff167f44a3cd4eb5cc5748f6169df057b1cb2ae4c383e87cd94663c430e095d4cba42460405160405180910390a250565b60016020528160005260406000208181548110610ef757600080fd5b9060005260206000209060060201600091509150508060000154908060010160009054906101000a900473ffffffffffffffffffffffffffffffffffffffff1690806002015490806003015490806004018054610f5390611be9565b80601f0160208091040260200160405190810160405280929190818152602001828054610f7f90611be9565b8015610fcc5780601f10610fa157610100808354040283529160200191610fcc565b820191906000526020600020905b815481529060010190602001808311610faf57829003601f168201915b5050505050908060050160009054906101000a900460ff16905086565b610ff1611202565b600073ffffffffffffffffffffffffffffffffffffffff168173ffffffffffffffffffffffffffffffffffffffff16036110635760006040517f1e4fbdf700000000000000000000000000000000000000000000000000000000815260040161105a9190611490565b60405180910390fd5b61106c81611289565b50565b606060016000838152602001908152602001600020805480602002602001604051908101604052809291908181526020016000905b828210156111f757838290600052602060002090600602016040518060c0016040529081600082015481526020016001820160009054906101000a900473ffffffffffffffffffffffffffffffffffffffff1673ffffffffffffffffffffffffffffffffffffffff1673ffffffffffffffffffffffffffffffffffffffff168152602001600282015481526020016003820154815260200160048201805461114b90611be9565b80601f016020809104026020016040519081016040528092919081815260200182805461117790611be9565b80156111c45780601f10611199576101008083540402835291602001916111c4565b820191906000526020600020905b8154815290600101906020018083116111a757829003601f168201915b505050505081526020016005820160009054906101000a900460ff161515151581525050815260200190600101906110a4565b505050509050919050565b61120a61134d565b73ffffffffffffffffffffffffffffffffffffffff16611228610b19565b73ffffffffffffffffffffffffffffffffffffffff16146112875761124b61134d565b6040517f118cdaa700000000000000000000000000000000000000000000000000000000815260040161127e9190611490565b60405180910390fd5b565b60008060009054906101000a900473ffffffffffffffffffffffffffffffffffffffff169050816000806101000a81548173ffffffffffffffffffffffffffffffffffffffff021916908373ffffffffffffffffffffffffffffffffffffffff1602179055508173ffffffffffffffffffffffffffffffffffffffff168173ffffffffffffffffffffffffffffffffffffffff167f8be0079c531659141344cd1fd0a4f28419497f9722a3daafe3b4186f6b6457e060405160405180910390a35050565b600033905090565b600080fd5b600080fd5b6000819050919050565b6113728161135f565b811461137d57600080fd5b50565b60008135905061138f81611369565b92915050565b6000602082840312156113ab576113aa611355565b5b60006113b984828501611380565b91505092915050565b6000819050919050565b6113d5816113c2565b82525050565b60006020820190506113f060008301846113cc565b92915050565b6113ff816113c2565b811461140a57600080fd5b50565b60008135905061141c816113f6565b92915050565b60006020828403121561143857611437611355565b5b60006114468482850161140d565b91505092915050565b600073ffffffffffffffffffffffffffffffffffffffff82169050919050565b600061147a8261144f565b9050919050565b61148a8161146f565b82525050565b60006020820190506114a56000830184611481565b92915050565b60008115159050919050565b6114c0816114ab565b81146114cb57600080fd5b50565b6000813590506114dd816114b7565b92915050565b600080fd5b600080fd5b600080fd5b60008083601f840112611508576115076114e3565b5b8235905067ffffffffffffffff811115611525576115246114e8565b5b602083019150836001820283011115611541576115406114ed565b5b9250929050565b60008060008060006080868803121561156457611563611355565b5b600061157288828901611380565b9550506020611583888289016114ce565b94505060406115948882890161140d565b935050606086013567ffffffffffffffff8111156115b5576115b461135a565b5b6115c1888289016114f2565b92509250509295509295909350565b6115d9816114ab565b82525050565b60006020820190506115f460008301846115d0565b92915050565b6116038161146f565b811461160e57600080fd5b50565b600081359050611620816115fa565b92915050565b60006020828403121561163c5761163b611355565b5b600061164a84828501611611565b91505092915050565b600081519050919050565b600082825260208201905092915050565b60005b8381101561168d578082015181840152602081019050611672565b60008484015250505050565b6000601f19601f8301169050919050565b60006116b582611653565b6116bf818561165e565b93506116cf81856020860161166f565b6116d881611699565b840191505092915050565b600060a0820190506116f86000830188611481565b818103602083015261170a81876116aa565b905061171960408301866113cc565b61172660608301856115d0565b61173360808301846113cc565b9695505050505050565b60008060006040848603121561175657611755611355565b5b600061176486828701611611565b935050602084013567ffffffffffffffff8111156117855761178461135a565b5b611791868287016114f2565b92509250509250925092565b600080604083850312156117b4576117b3611355565b5b60006117c285828601611380565b92505060206117d38582860161140d565b9150509250929050565b6117e68161135f565b82525050565b600060c08201905061180160008301896117dd565b61180e6020830188611481565b61181b60408301876113cc565b61182860608301866113cc565b818103608083015261183a81856116aa565b905061184960a08301846115d0565b979650505050505050565b600081519050919050565b600082825260208201905092915050565b6000819050602082019050919050565b6118898161135f565b82525050565b6118988161146f565b82525050565b6118a7816113c2565b82525050565b600082825260208201905092915050565b60006118c982611653565b6118d381856118ad565b93506118e381856020860161166f565b6118ec81611699565b840191505092915050565b611900816114ab565b82525050565b600060c08301600083015161191e6000860182611880565b506020830151611931602086018261188f565b506040830151611944604086018261189e565b506060830151611957606086018261189e565b506080830151848203608086015261196f82826118be565b91505060a083015161198460a08601826118f7565b508091505092915050565b600061199b8383611906565b905092915050565b6000602082019050919050565b60006119bb82611854565b6119c5818561185f565b9350836020820285016119d785611870565b8060005b85811015611a1357848403895281516119f4858261198f565b94506119ff836119a3565b925060208a019950506001810190506119db565b50829750879550505050505092915050565b60006020820190508181036000830152611a3f81846119b0565b905092915050565b7f4e6f7420616e2061637469766520766572696669657200000000000000000000600082015250565b6000611a7d60168361165e565b9150611a8882611a47565b602082019050919050565b60006020820190508181036000830152611aac81611a70565b9050919050565b7f436f6e666964656e6365206d75737420626520302d3130300000000000000000600082015250565b6000611ae960188361165e565b9150611af482611ab3565b602082019050919050565b60006020820190508181036000830152611b1881611adc565b9050919050565b7f4e6f74657320746f6f206c6f6e67000000000000000000000000000000000000600082015250565b6000611b55600e8361165e565b9150611b6082611b1f565b602082019050919050565b60006020820190508181036000830152611b8481611b48565b9050919050565b7f4e487b7100000000000000000000000000000000000000000000000000000000600052604160045260246000fd5b7f4e487b7100000000000000000000000000000000000000000000000000000000600052602260045260246000fd5b60006002820490506001821680611c0157607f821691505b602082108103611c1457611c13611bba565b5b50919050565b60008190508160005260206000209050919050565b60006020601f8301049050919050565b600082821b905092915050565b600060088302611c7c7fffffffffffffffffffffffffffffffffffffffffffffffffffffffffffffffff82611c3f565b611c868683611c3f565b95508019841693508086168417925050509392505050565b6000819050919050565b6000611cc3611cbe611cb9846113c2565b611c9e565b6113c2565b9050919050565b6000819050919050565b611cdd83611ca8565b611cf1611ce982611cca565b848454611c4c565b825550505050565b600090565b611d06611cf9565b611d11818484611cd4565b505050565b5b81811015611d3557611d2a600082611cfe565b600181019050611d17565b5050565b601f821115611d7a57611d4b81611c1a565b611d5484611c2f565b81016020851015611d63578190505b611d77611d6f85611c2f565b830182611d16565b50505b505050565b600082821c905092915050565b6000611d9d60001984600802611d7f565b1980831691505092915050565b6000611db68383611d8c565b9150826002028217905092915050565b611dcf82611653565b67ffffffffffffffff811115611de857611de7611b8b565b5b611df28254611be9565b611dfd828285611d39565b600060209050601f831160018114611e305760008415611e1e578287015190505b611e288582611daa565b865550611e90565b601f198416611e3e86611c1a565b60005b82811015611e6657848901518255600182019150602085019450602081019050611e41565b86831015611e835784890151611e7f601f891682611d8c565b8355505b6001600288020188555050505b505050505050565b7f4e487b7100000000000000000000000000000000000000000000000000000000600052601160045260246000fd5b6000611ed2826113c2565b91507fffffffffffffffffffffffffffffffffffffffffffffffffffffffffffffffff8203611f0457611f03611e98565b5b600182019050919050565b6000611f1a826113c2565b9150611f25836113c2565b9250828201905080821115611f3d57611f3c611e98565b5b92915050565b6000604082019050611f5860008301856115d0565b611f6560208301846113cc565b9392505050565b7f416c726561647920612076657269666965720000000000000000000000000000600082015250565b6000611fa260128361165e565b9150611fad82611f6c565b602082019050919050565b60006020820190508181036000830152611fd181611f95565b9050919050565b82818337600083830152505050565b6000611ff3838561165e565b9350612000838584611fd8565b61200983611699565b840190509392505050565b6000602082019050818103600083015261202f818486611fe7565b90509392505050565b7f4d61782031303000000000000000000000000000000000000000000000000000600082015250565b600061206e60078361165e565b915061207982612038565b602082019050919050565b6000602082019050818103600083015261209d81612061565b9050919050565b7f4e487b7100000000000000000000000000000000000000000000000000000000600052603260045260246000fd5b7f4e487b7100000000000000000000000000000000000000000000000000000000600052601260045260246000fd5b600061210d826113c2565b9150612118836113c2565b925082612128576121276120d3565b5b828204905092915050565b7f4e6f742061207665726966696572000000000000000000000000000000000000600082015250565b6000612169600e8361165e565b915061217482612133565b602082019050919050565b600060208201905081810360008301526121988161215c565b905091905056fea264697066735822122073b7ae21320cadcc0f30c125f1cb36c1337485eb9a8af3a80dde49ff3947bb6164736f6c63430008140033",
  "linkReferences": {},
  "deployedLinkReferences": {}
}