{
  "_format": "hh-sol-artifact-1",
  "contractName": "FogMemoryToken",
  "sourceName": "contracts/contracts/FogMemoryToken.sol",
  "abi": [
    {
      "inputs": [
        {
          "internalType": "address",
          "name": "initialOwner",
          "type": "address"
        }
      ],
      "stateMutability": "nonpayable",
      "type": "constructor"
    },
    {
      "inputs": [
        {
          "internalType": "address",
          "name": "spender",
          "type": "address"
        },
        {
          "internalType": "uint256",
          "name": "allowance",
          "type": "uint256"
        },
        {
          "internalType": "uint256",
          "name": "needed",
          "type": "uint256"
        }
      ],
      "name": "ERC20InsufficientAllowance",
      "type": "error"
    },
    {
      "inputs": [
        {
          "internalType": "address",
          "name": "sender",
          "type": "address"
        },
        {
          "internalType": "uint256",
          "name": "balance",
          "type": "uint256"
        },
        {
          "internalType": "uint256",
          "name": "needed",
          "type": "uint256"
        }
      ],
      "name": "ERC20InsufficientBalance",
      "type": "error"
    },
    {
      "inputs": [
        {
          "internalType": "address",
          "name": "approver",
          "type": "address"
        }
      ],
      "name": "ERC20InvalidApprover",
      "type": "error"
    },
    {
      "inputs": [
        {
          "internalType": "address",
          "name": "receiver",
          "type": "address"
        }
      ],
      "name": "ERC20InvalidReceiver",
      "type": "error"
    },
    {
      "inputs": [
        {
          "internalType": "address",
          "name": "sender",
          "type": "address"
        }
      ],
      "name": "ERC20InvalidSender",
      "type": "error"
    },
    {
      "inputs": [
        {
          "internalType": "address",
          "name": "spender",
          "type": "address"
        }
      ],
      "name": "ERC20InvalidSpender",
      "type": "error"
    },
    {
      "inputs": [
        {
          "internalType": "address",
          "name": "owner",
          "type": "address"
        }
      ],
      "name": "OwnableInvalidOwner",
      "type": "error"
    },
    {
      "inputs": [
        {
          "internalType": "address",
          "name": "account",
          "type": "address"
        }
      ],
      "name": "OwnableUnauthorizedAccount",
      "type": "error"
    },
    {
      "anonymous": false,
      "inputs": [
        {
          "indexed": true,
          "internalType": "address",
          "name": "owner",
          "type": "address"
        },
        {
          "indexed": true,
          "internalType": "address",
          "name": "spender",
          "type": "address"
        },
        {
          "indexed": false,
          "internalType": "uint256",
          "name": "value",
          "type": "uint256"
        }
      ],
      "name": "Approval",
      "type": "event"
    },
    {
      "anonymous": false,
      "inputs": [
        {
          "indexed": true,
          "internalType": "bytes32",
          "name": "memoryHash",
          "type": "bytes32"
        },
        {
          "indexed": true,
          "internalType": "address",
          "name": "agent",
          "type": "address"
        },
        {
          "indexed": false,
          "internalType": "uint256",
          "name": "timestamp",
          "type": "uint256"
        }
      ],
      "name": "MemoryStored",
      "type": "event"
    },
    {
      "anonymous": false,
      "inputs": [
        {
          "indexed": true,
          "internalType": "bytes32",
          "name": "memoryHash",
          "type": "bytes32"
        },
        {
          "indexed": true,
          "internalType": "address",
          "name": "verifier",
          "type": "address"
        }
      ],
      "name": "MemoryVerified",
      "type": "event"
    },
    {
      "anonymous": false,
      "inputs": [
        {
          "indexed": true,
          "internalType": "address",
          "name": "previousOwner",
          "type": "address"
        },
        {
          "indexed": true,
          "internalType": "address",
          "name": "newOwner",
          "type": "address"
        }
      ],
      "name": "OwnershipTransferred",
      "type": "event"
    },
    {
      "anonymous": false,
      "inputs": [
        {
          "indexed": true,
          "internalType": "address",
          "name": "from",
          "type": "address"
        },
        {
          "indexed": true,
          "internalType": "address",
          "name": "to",
          "type": "address"
        },
        {
          "indexed": false,
          "internalType": "uint256",
          "name": "value",
          "type": "uint256"
        }
      ],
      "name": "Transfer",
      "type": "event"
    },
    {
      "inputs": [],
      "name": "MAX_SUPPLY",
      "outputs": [
        {
          "internalType": "uint256",
          "name": "",
          "type": "uint256"
        }
      ],
      "stateMutability": "view",
      "type": "function"
    },
    {
      "inputs": [
        {
          "internalType": "address",
          "name": "",
          "type": "address"
        }
      ],
      "name": "agentMemoryCount",
      "outputs": [
        {
          "internalType": "uint256",
          "name": "",
          "type": "uint256"
        }
      ],
      "stateMutability": "view",
      "type": "function"
    },
    {
      "inputs": [
        {
          "internalType": "uint256",
          "name": "",
          "type": "uint256"
        }
      ],
      "name": "allMemoryHashes",
      "outputs": [
        {
          "internalType": "bytes32",
          "name": "",
          "type": "bytes32"
        }
      ],
      "stateMutability": "view",
      "type": "function"
    },
    {
      "inputs": [
        {
          "internalType": "address",
          "name": "owner",
          "type": "address"
        },
        {
          "internalType": "address",
          "name": "spender",
          "type": "address"
        }
      ],
      "name": "allowance",
      "outputs": [
        {
          "internalType": "uint256",
          "name": "",
          "type": "uint256"
        }
      ],
      "stateMutability": "view",
      "type": "function"
    },
    {
      "inputs": [
        {
          "internalType": "address",
          "name": "spender",
          "type": "address"
        },
        {
          "internalType": "uint256",
          "name": "value",
          "type": "uint256"
        }
      ],
      "name": "approve",
      "outputs": [
        {
          "internalType": "bool",
          "name": "",
          "type": "bool"
        }
      ],
      "stateMutability": "nonpayable",
      "type": "function"
    },
    {
      "inputs": [
        {
          "internalType": "address",
          "name": "account",
          "type": "address"
        }
      ],
      "name": "balanceOf",
      "outputs": [
        {
          "internalType": "uint256",
          "name": "",
          "type": "uint256"
        }
      ],
      "stateMutability": "view",
      "type": "function"
    },
    {
      "inputs": [
        {
          "internalType": "uint256",
          "name": "amount",
          "type": "uint256"
        }
      ],
      "name": "burn",
      "outputs": [],
      "stateMutability": "nonpayable",
      "type": "function"
    },
    {
      "inputs": [
        {
          "internalType": "address",
          "name": "account",
          "type": "address"
        },
        {
          "internalType": "uint256",
          "name": "amount",
          "type": "uint256"
        }
      ],
      "name": "burnFrom",
      "outputs": [],
      "stateMutability": "nonpayable",
      "type": "function"
    },
    {
      "inputs": [],
      "name": "decimals",
      "outputs": [
        {
          "internalType": "uint8",
          "name": "",
          "type": "uint8"
        }
      ],
      "stateMutability": "view",
      "type": "function"
    },
    {
      "inputs": [
        {
          "internalType": "address",
          "name": "agent",
          "type": "address"
        }
      ],
      "name": "getAgentMemories",
      "outputs": [
        {
          "internalType": "bytes32[]",
          "name": "",
          "type": "bytes32[]"
        }
      ],
      "stateMutability": "view",
      "type": "function"
    },
    {
      "inputs": [
        {
          "internalType": "bytes32",
          "name": "",
          "type": "bytes32"
        }
      ],
      "name": "memories",
      "outputs": [
        {
          "internalType": "bytes32",
          "name": "memoryHash",
          "type": "bytes32"
        },
        {
          "internalType": "address",
          "name": "agent",
          "type": "address"
        },
        {
          "internalType": "uint256",
          "name": "timestamp",
          "type": "uint256"
        },
        {
          "internalType": "bool",
          "name": "verified",
          "type": "bool"
        },
        {
          "internalType": "string",
          "name": "metadataURI",
          "type": "string"
        }
      ],
      "stateMutability": "view",
      "type": "function"
    },
    {
      "inputs": [],
      "name": "memoryStorageFee",
      "outputs": [
        {
          "internalType": "uint256",
          "name": "",
          "type": "uint256"
        }
      ],
      "stateMutability": "view",
      "type": "function"
    },
    {
      "inputs": [
        {
          "internalType": "address",
          "name": "to",
          "type": "address"
        },
        {
          "internalType": "uint256",
          "name": "amount",
          "type": "uint256"
        }
      ],
      "name": "mint",
      "outputs": [],
      "stateMutability": "nonpayable",
      "type": "function"
    },
    {
      "inputs": [],
      "name": "name",
      "outputs": [
        {
          "internalType": "string",
          "name": "",
          "type": "string"
        }
      ],
      "stateMutability": "view",
      "type": "function"
    },
    {
      "inputs": [],
      "name": "owner",
      "outputs": [
        {
          "internalType": "address",
          "name": "",
          "type": "address"
        }
      ],
      "stateMutability": "view",
      "type": "function"
    },
    {
      "inputs": [],
      "name": "renounceOwnership",
      "outputs": [],
      "stateMutability": "nonpayable",
      "type": "function"
    },
    {
      "inputs": [
        {
          "internalType": "uint256",
          "name": "newFee",
          "type": "uint256"
        }
      ],
      "name": "setStorageFee",
      "outputs": [],
      "stateMutability": "nonpayable",
      "type": "function"
    },
    {
      "inputs": [
        {
          "internalType": "bytes32",
          "name": "memoryHash",
          "type": "bytes32"
        },
        {
          "internalType": "string",
          "name": "metadataURI",
          "type": "string"
        }
      ],
      "name": "storeMemory",
      "outputs": [
        {
          "internalType": "bool",
          "name": "",
          "type": "bool"
        }
      ],
      "stateMutability": "nonpayable",
      "type": "function"
    },
    {
      "inputs": [],
      "name": "symbol",
      "outputs": [
        {
          "internalType": "string",
          "name": "",
          "type": "string"
        }
      ],
      "stateMutability": "view",
      "type": "function"
    },
    {
      "inputs": [],
      "name": "totalSupply",
      "outputs": [
        {
          "internalType": "uint256",
          "name": "",
          "type": "uint256"
        }
      ],
      "stateMutability": "view",
      "type": "function"
    },
    {
      "inputs": [
        {
          "internalType": "address",
          "name": "to",
          "type": "address"
        },
        {
          "internalType": "uint256",
          "name": "value",
          "type": "uint256"
        }
      ],
      "name": "transfer",
      "outputs": [
        {
          "internalType": "bool",
          "name": "",
          "type": "bool"
        }
      ],
      "stateMutability": "nonpayable",
      "type": "function"
    },
    {
      "inputs": [
        {
          "internalType": "address",
          "name": "from",
          "type": "address"
        },
        {
          "internalType": "address",
          "name": "to",
          "type": "address"
        },
        {
          "internalType": "uint256",
          "name": "value",
          "type": "uint256"
        }
      ],
      "name": "transferFrom",
      "outputs": [
        {
          "internalType": "bool",
          "name": "",
          "type": "bool"
        }
      ],
      "stateMutability": "nonpayable",
      "type": "function"
    },
    {
      "inputs": [
        {
          "internalType": "address",
          "name": "newOwner",
          "type": "address"
        }
      ],
      "name": "transferOwnership",
      "outputs": [],
      "stateMutability": "nonpayable",
      "type": "function"
    },
    {
      "inputs": [
        {
          "internalType": "bytes32",
          "name": "memoryHash",
          "type": "bytes32"
        }
      ],
      "name": "verifyMemory",
      "outputs": [
        {
          "internalType": "bool",
          "name": "",
          "type": "bool"
        }
      ],
      "stateMutability": "nonpayable",
      "type": "function"
    }
  ],
  "bytecode": "0x6080604052670de0b6b3a76400006009553480156200001d57600080fd5b5060405162002a3938038062002a39833981810160405281019062000043919062000294565b806040518060400160405280600981526020017f466f674d656d6f727900000000000000000000000000000000000000000000008152506040518060400160405280600681526020017f464f474d454d00000000000000000000000000000000000000000000000000008152508160039081620000c1919062000540565b508060049081620000d3919062000540565b505050600073ffffffffffffffffffffffffffffffffffffffff168173ffffffffffffffffffffffffffffffffffffffff16036200014b5760006040517f1e4fbdf700000000000000000000000000000000000000000000000000000000815260040162000142919062000638565b60405180910390fd5b6200015c816200016460201b60201c565b505062000655565b6000600560009054906101000a900473ffffffffffffffffffffffffffffffffffffffff16905081600560006101000a81548173ffffffffffffffffffffffffffffffffffffffff021916908373ffffffffffffffffffffffffffffffffffffffff1602179055508173ffffffffffffffffffffffffffffffffffffffff168173ffffffffffffffffffffffffffffffffffffffff167f8be0079c531659141344cd1fd0a4f28419497f9722a3daafe3b4186f6b6457e060405160405180910390a35050565b600080fd5b600073ffffffffffffffffffffffffffffffffffffffff82169050919050565b60006200025c826200022f565b9050919050565b6200026e816200024f565b81146200027a57600080fd5b50565b6000815190506200028e8162000263565b92915050565b600060208284031215620002ad57620002ac6200022a565b5b6000620002bd848285016200027d565b91505092915050565b600081519050919050565b7f4e487b7100000000000000000000000000000000000000000000000000000000600052604160045260246000fd5b7f4e487b7100000000000000000000000000000000000000000000000000000000600052602260045260246000fd5b600060028204905060018216806200034857607f821691505b6020821081036200035e576200035d62000300565b5b50919050565b60008190508160005260206000209050919050565b60006020601f8301049050919050565b600082821b905092915050565b600060088302620003c87fffffffffffffffffffffffffffffffffffffffffffffffffffffffffffffffff8262000389565b620003d4868362000389565b95508019841693508086168417925050509392505050565b6000819050919050565b6000819050919050565b6000620004216200041b6200041584620003ec565b620003f6565b620003ec565b9050919050565b6000819050919050565b6200043d8362000400565b620004556200044c8262000428565b84845462000396565b825550505050565b600090565b6200046c6200045d565b6200047981848462000432565b505050565b5b81811015620004a1576200049560008262000462565b6001810190506200047f565b5050565b601f821115620004f057620004ba8162000364565b620004c58462000379565b81016020851015620004d5578190505b620004ed620004e48562000379565b8301826200047e565b50505b505050565b600082821c905092915050565b60006200051560001984600802620004f5565b1980831691505092915050565b600062000530838362000502565b9150826002028217905092915050565b6200054b82620002c6565b67ffffffffffffffff811115620005675762000566620002d1565b5b6200057382546200032f565b62000580828285620004a5565b600060209050601f831160018114620005b85760008415620005a3578287015190505b620005af858262000522565b8655506200061f565b601f198416620005c88662000364565b60005b82811015620005f257848901518255600182019150602085019450602081019050620005cb565b868310156200061257848901516200060e601f89168262000502565b8355505b6001600288020188555050505b505050505050565b62000632816200024f565b82525050565b60006020820190506200064f600083018462000627565b92915050565b6123d480620006656000396000f3fe608060405234801561001057600080fd5b50600436106101585760003560e01c806370a08231116100c3578063a9059cbb1161007c578063a9059cbb146103f3578063b2d1b52314610423578063dd62ed3e14610441578063dfa7ff3414610471578063f2fde38b1461048d578063fdbb5cfb146104a957610158565b806370a082311461032d578063715018a61461035d57806374e12a861461036757806379cc67901461039b5780638da5cb5b146103b757806395d89b41146103d557610158565b806332cb6b0c1161011557806332cb6b0c1461024757806340c10f191461026557806342966c68146102815780634f428f081461029d578063552338b3146102cd57806359511923146102fd57610158565b806306fdde031461015d578063095ea7b31461017b57806318160ddd146101ab57806319abf3c7146101c957806323b872dd146101f9578063313ce56714610229575b600080fd5b6101656104d9565b604051610172919061182a565b60405180910390f35b610195600480360381019061019091906118ea565b61056b565b6040516101a29190611945565b60405180910390f35b6101b361058e565b6040516101c0919061196f565b60405180910390f35b6101e360048036038101906101de919061198a565b610598565b6040516101f091906119d0565b60405180910390f35b610213600480360381019061020e91906119eb565b6105bc565b6040516102209190611945565b60405180910390f35b6102316105eb565b60405161023e9190611a5a565b60405180910390f35b61024f6105f4565b60405161025c919061196f565b60405180910390f35b61027f600480360381019061027a91906118ea565b610604565b005b61029b6004803603810190610296919061198a565b61067b565b005b6102b760048036038101906102b29190611b06565b610688565b6040516102c49190611945565b60405180910390f35b6102e760048036038101906102e29190611b66565b610954565b6040516102f49190611c51565b60405180910390f35b61031760048036038101906103129190611c73565b610aeb565b6040516103249190611945565b60405180910390f35b61034760048036038101906103429190611b66565b610c2e565b604051610354919061196f565b60405180910390f35b610365610c76565b005b610381600480360381019061037c9190611c73565b610c8a565b604051610392959493929190611caf565b60405180910390f35b6103b560048036038101906103b091906118ea565b610d75565b005b6103bf610d8e565b6040516103cc9190611d09565b60405180910390f35b6103dd610db8565b6040516103ea919061182a565b60405180910390f35b61040d600480360381019061040891906118ea565b610e4a565b60405161041a9190611945565b60405180910390f35b61042b610e6d565b604051610438919061196f565b60405180910390f35b61045b60048036038101906104569190611d24565b610e73565b604051610468919061196f565b60405180910390f35b61048b6004803603810190610486919061198a565b610efa565b005b6104a760048036038101906104a29190611b66565b610f0c565b005b6104c360048036038101906104be9190611b66565b610f92565b6040516104d0919061196f565b60405180910390f35b6060600380546104e890611d93565b80601f016020809104026020016040519081016040528092919081815260200182805461051490611d93565b80156105615780601f1061053657610100808354040283529160200191610561565b820191906000526020600020905b81548152906001019060200180831161054457829003601f168201915b5050505050905090565b600080610576610faa565b9050610583818585610fb2565b600191505092915050565b6000600254905090565b600881815481106105a857600080fd5b906000526020600020016000915090505481565b6000806105c7610faa565b90506105d4858285610fc4565b6105df858585611059565b60019150509392505050565b60006012905090565b6b033b2e3c9fd0803ce800000081565b61060c61114d565b6b033b2e3c9fd0803ce80000008161062261058e565b61062c9190611df3565b111561066d576040517f08c379a000000000000000000000000000000000000000000000000000000000815260040161066490611e73565b60405180910390fd5b61067782826111d4565b5050565b6106853382611256565b50565b6000806006600086815260200190815260200160002060020154146106e2576040517f08c379a00000000000000000000000000000000000000000000000000000000081526004016106d990611edf565b60405180910390fd5b6b033b2e3c9fd0803ce80000006009546106fa61058e565b6107049190611df3565b1115610745576040517f08c379a000000000000000000000000000000000000000000000000000000000815260040161073c90611f4b565b60405180910390fd5b61075133600954611256565b6040518060a001604052808581526020013373ffffffffffffffffffffffffffffffffffffffff16815260200142815260200160001515815260200184848080601f016020809104026020016040519081016040528093929190818152602001838380828437600081840152601f19601f82011690508083019250505050505050815250600660008681526020019081526020016000206000820151816000015560208201518160010160006101000a81548173ffffffffffffffffffffffffffffffffffffffff021916908373ffffffffffffffffffffffffffffffffffffffff1602179055506040820151816002015560608201518160030160006101000a81548160ff02191690831515021790555060808201518160040190816108789190612146565b50905050600760003373ffffffffffffffffffffffffffffffffffffffff1673ffffffffffffffffffffffffffffffffffffffff16815260200190815260200160002060008154809291906108cc90612218565b919050555060088490806001815401808255809150506001900390600052602060002001600090919091909150553373ffffffffffffffffffffffffffffffffffffffff16847f0f6546dc13df5a946fba44b32cc76e71945ec151e94e9d050bfdf29bd9a23d1842604051610941919061196f565b60405180910390a3600190509392505050565b60606000600760008473ffffffffffffffffffffffffffffffffffffffff1673ffffffffffffffffffffffffffffffffffffffff16815260200190815260200160002054905060008167ffffffffffffffff8111156109b6576109b5611f6b565b5b6040519080825280602002602001820160405280156109e45781602001602082028036833780820191505090505b5090506000805b600880549050811015610adf578573ffffffffffffffffffffffffffffffffffffffff166006600060088481548110610a2757610a26612260565b5b9060005260206000200154815260200190815260200160002060010160009054906101000a900473ffffffffffffffffffffffffffffffffffffffff1673ffffffffffffffffffffffffffffffffffffffff1603610acc5760088181548110610a9357610a92612260565b5b9060005260206000200154838381518110610ab157610ab0612260565b5b6020026020010181815250508180610ac890612218565b9250505b8080610ad790612218565b9150506109eb565b50819350505050919050565b6000610af561114d565b6000600660008481526020019081526020016000206002015411610b4e576040517f08c379a0000000000000000000000000000000000000000000000000000000008152600401610b45906122db565b60405180910390fd5b6006600083815260200190815260200160002060030160009054906101000a900460ff1615610bb2576040517f08c379a0000000000000000000000000000000000000000000000000000000008152600401610ba990612347565b60405180910390fd5b60016006600084815260200190815260200160002060030160006101000a81548160ff0219169083151502179055503373ffffffffffffffffffffffffffffffffffffffff16827f11f877697baa04f7902286842054b84b6b4df70919e34cda77911dca9fafd5fb60405160405180910390a360019050919050565b60008060008373ffffffffffffffffffffffffffffffffffffffff1673ffffffffffffffffffffffffffffffffffffffff168152602001908152602001600020549050919050565b610c7e61114d565b610c8860006112d8565b565b60066020528060005260406000206000915090508060000154908060010160009054906101000a900473ffffffffffffffffffffffffffffffffffffffff16908060020154908060030160009054906101000a900460ff1690806004018054610cf290611d93565b80601f0160208091040260200160405190810160405280929190818152602001828054610d1e90611d93565b8015610d6b5780601f10610d4057610100808354040283529160200191610d6b565b820191906000526020600020905b815481529060010190602001808311610d4e57829003601f168201915b5050505050905085565b610d80823383610fc4565b610d8a8282611256565b5050565b6000600560009054906101000a900473ffffffffffffffffffffffffffffffffffffffff16905090565b606060048054610dc790611d93565b80601f0160208091040260200160405190810160405280929190818152602001828054610df390611d93565b8015610e405780601f10610e1557610100808354040283529160200191610e40565b820191906000526020600020905b815481529060010190602001808311610e2357829003601f168201915b5050505050905090565b600080610e55610faa565b9050610e62818585611059565b600191505092915050565b60095481565b6000600160008473ffffffffffffffffffffffffffffffffffffffff1673ffffffffffffffffffffffffffffffffffffffff16815260200190815260200160002060008373ffffffffffffffffffffffffffffffffffffffff1673ffffffffffffffffffffffffffffffffffffffff16815260200190815260200160002054905092915050565b610f0261114d565b8060098190555050565b610f1461114d565b600073ffffffffffffffffffffffffffffffffffffffff168173ffffffffffffffffffffffffffffffffffffffff1603610f865760006040517f1e4fbdf7000000000000000000000000000000000000000000000000000000008152600401610f7d9190611d09565b60405180910390fd5b610f8f816112d8565b50565b60076020528060005260406000206000915090505481565b600033905090565b610fbf838383600161139e565b505050565b6000610fd08484610e73565b90507fffffffffffffffffffffffffffffffffffffffffffffffffffffffffffffffff8110156110535781811015611043578281836040517ffb8f41b200000000000000000000000000000000000000000000000000000000815260040161103a93929190612367565b60405180910390fd5b6110528484848403600061139e565b5b50505050565b600073ffffffffffffffffffffffffffffffffffffffff168373ffffffffffffffffffffffffffffffffffffffff16036110cb5760006040517f96c6fd1e0000000000000000000000000000000000000000000000000000000081526004016110c29190611d09565b60405180910390fd5b600073ffffffffffffffffffffffffffffffffffffffff168273ffffffffffffffffffffffffffffffffffffffff160361113d5760006040517fec442f050000000000000000000000000000000000000000000000000000000081526004016111349190611d09565b60405180910390fd5b611148838383611575565b505050565b611155610faa565b73ffffffffffffffffffffffffffffffffffffffff16611173610d8e565b73ffffffffffffffffffffffffffffffffffffffff16146111d257611196610faa565b6040517f118cdaa70000000000000000000000000000000000000000000000000000000081526004016111c99190611d09565b60405180910390fd5b565b600073ffffffffffffffffffffffffffffffffffffffff168273ffffffffffffffffffffffffffffffffffffffff16036112465760006040517fec442f0500000000000000000000000000000000000000000000000000000000815260040161123d9190611d09565b60405180910390fd5b61125260008383611575565b5050565b600073ffffffffffffffffffffffffffffffffffffffff168273ffffffffffffffffffffffffffffffffffffffff16036112c85760006040517f96c6fd1e0000000000000000000000000000000000000000000000000000000081526004016112bf9190611d09565b60405180910390fd5b6112d482600083611575565b5050565b6000600560009054906101000a900473ffffffffffffffffffffffffffffffffffffffff16905081600560006101000a81548173ffffffffffffffffffffffffffffffffffffffff021916908373ffffffffffffffffffffffffffffffffffffffff1602179055508173ffffffffffffffffffffffffffffffffffffffff168173ffffffffffffffffffffffffffffffffffffffff167f8be0079c531659141344cd1fd0a4f28419497f9722a3daafe3b4186f6b6457e060405160405180910390a35050565b600073ffffffffffffffffffffffffffffffffffffffff168473ffffffffffffffffffffffffffffffffffffffff16036114105760006040517fe602df050000000000000000000000000000000000000000000000000000000081526004016114079190611d09565b60405180910390fd5b600073ffffffffffffffffffffffffffffffffffffffff168373ffffffffffffffffffffffffffffffffffffffff16036114825760006040517f94280d620000000000000000000000000000000000000000000000000000000081526004016114799190611d09565b60405180910390fd5b81600160008673ffffffffffffffffffffffffffffffffffffffff1673ffffffffffffffffffffffffffffffffffffffff16815260200190815260200160002060008573ffffffffffffffffffffffffffffffffffffffff1673ffffffffffffffffffffffffffffffffffffffff16815260200190815260200160002081905550801561156f578273ffffffffffffffffffffffffffffffffffffffff168473ffffffffffffffffffffffffffffffffffffffff167f8c5be1e5ebec7d5bd14f71427d1e84f3dd0314c0f7b2291e5b200ac8c7c3b92584604051611566919061196f565b60405180910390a35b50505050565b600073ffffffffffffffffffffffffffffffffffffffff168373ffffffffffffffffffffffffffffffffffffffff16036115c75780600260008282546115bb9190611df3565b9250508190555061169a565b60008060008573ffffffffffffffffffffffffffffffffffffffff1673ffffffffffffffffffffffffffffffffffffffff16815260200190815260200160002054905081811015611653578381836040517fe450d38c00000000000000000000000000000000000000000000000000000000815260040161164a93929190612367565b60405180910390fd5b8181036000808673ffffffffffffffffffffffffffffffffffffffff1673ffffffffffffffffffffffffffffffffffffffff16815260200190815260200160002081905550505b600073ffffffffffffffffffffffffffffffffffffffff168273ffffffffffffffffffffffffffffffffffffffff16036116e35780600260008282540392505081905550611730565b806000808473ffffffffffffffffffffffffffffffffffffffff1673ffffffffffffffffffffffffffffffffffffffff168152602001908152602001600020600082825401925050819055505b8173ffffffffffffffffffffffffffffffffffffffff168373ffffffffffffffffffffffffffffffffffffffff167fddf252ad1be2c89b69c2b068fc378daa952ba7f163c4a11628f55a4df523b3ef8360405161178d919061196f565b60405180910390a3505050565b600081519050919050565b600082825260208201905092915050565b60005b838110156117d45780820151818401526020810190506117b9565b60008484015250505050565b6000601f19601f8301169050919050565b60006117fc8261179a565b61180681856117a5565b93506118168185602086016117b6565b61181f816117e0565b840191505092915050565b6000602082019050818103600083015261184481846117f1565b905092915050565b600080fd5b600080fd5b600073ffffffffffffffffffffffffffffffffffffffff82169050919050565b600061188182611856565b9050919050565b61189181611876565b811461189c57600080fd5b50565b6000813590506118ae81611888565b92915050565b6000819050919050565b6118c7816118b4565b81146118d257600080fd5b50565b6000813590506118e4816118be565b92915050565b600080604083850312156119015761190061184c565b5b600061190f8582860161189f565b9250506020611920858286016118d5565b9150509250929050565b60008115159050919050565b61193f8161192a565b82525050565b600060208201905061195a6000830184611936565b92915050565b611969816118b4565b82525050565b60006020820190506119846000830184611960565b92915050565b6000602082840312156119a05761199f61184c565b5b60006119ae848285016118d5565b91505092915050565b6000819050919050565b6119ca816119b7565b82525050565b60006020820190506119e560008301846119c1565b92915050565b600080600060608486031215611a0457611a0361184c565b5b6000611a128682870161189f565b9350506020611a238682870161189f565b9250506040611a34868287016118d5565b9150509250925092565b600060ff82169050919050565b611a5481611a3e565b82525050565b6000602082019050611a6f6000830184611a4b565b92915050565b611a7e816119b7565b8114611a8957600080fd5b50565b600081359050611a9b81611a75565b92915050565b600080fd5b600080fd5b600080fd5b60008083601f840112611ac657611ac5611aa1565b5b8235905067ffffffffffffffff811115611ae357611ae2611aa6565b5b602083019150836001820283011115611aff57611afe611aab565b5b9250929050565b600080600060408486031215611b1f57611b1e61184c565b5b6000611b2d86828701611a8c565b935050602084013567ffffffffffffffff811115611b4e57611b4d611851565b5b611b5a86828701611ab0565b92509250509250925092565b600060208284031215611b7c57611b7b61184c565b5b6000611b8a8482850161189f565b91505092915050565b600081519050919050565b600082825260208201905092915050565b6000819050602082019050919050565b611bc8816119b7565b82525050565b6000611bda8383611bbf565b60208301905092915050565b6000602082019050919050565b6000611bfe82611b93565b611c088185611b9e565b9350611c1383611baf565b8060005b83811015611c44578151611c2b8882611bce565b9750611c3683611be6565b925050600181019050611c17565b5085935050505092915050565b60006020820190508181036000830152611c6b8184611bf3565b905092915050565b600060208284031215611c8957611c8861184c565b5b6000611c9784828501611a8c565b91505092915050565b611ca981611876565b82525050565b600060a082019050611cc460008301886119c1565b611cd16020830187611ca0565b611cde6040830186611960565b611ceb6060830185611936565b8181036080830152611cfd81846117f1565b90509695505050505050565b6000602082019050611d1e6000830184611ca0565b92915050565b60008060408385031215611d3b57611d3a61184c565b5b6000611d498582860161189f565b9250506020611d5a8582860161189f565b9150509250929050565b7f4e487b7100000000000000000000000000000000000000000000000000000000600052602260045260246000fd5b60006002820490506001821680611dab57607f821691505b602082108103611dbe57611dbd611d64565b5b50919050565b7f4e487b7100000000000000000000000000000000000000000000000000000000600052601160045260246000fd5b6000611dfe826118b4565b9150611e09836118b4565b9250828201905080821115611e2157611e20611dc4565b5b92915050565b7f45786365656473206d617820737570706c790000000000000000000000000000600082015250565b6000611e5d6012836117a5565b9150611e6882611e27565b602082019050919050565b60006020820190508181036000830152611e8c81611e50565b9050919050565b7f4d656d6f727920616c7265616479206578697374730000000000000000000000600082015250565b6000611ec96015836117a5565b9150611ed482611e93565b602082019050919050565b60006020820190508181036000830152611ef881611ebc565b9050919050565b7f4d617820737570706c7920726561636865640000000000000000000000000000600082015250565b6000611f356012836117a5565b9150611f4082611eff565b602082019050919050565b60006020820190508181036000830152611f6481611f28565b9050919050565b7f4e487b7100000000000000000000000000000000000000000000000000000000600052604160045260246000fd5b60008190508160005260206000209050919050565b60006020601f8301049050919050565b600082821b905092915050565b600060088302611ffc7fffffffffffffffffffffffffffffffffffffffffffffffffffffffffffffffff82611fbf565b6120068683611fbf565b95508019841693508086168417925050509392505050565b6000819050919050565b600061204361203e612039846118b4565b61201e565b6118b4565b9050919050565b6000819050919050565b61205d83612028565b6120716120698261204a565b848454611fcc565b825550505050565b600090565b612086612079565b612091818484612054565b505050565b5b818110156120b5576120aa60008261207e565b600181019050612097565b5050565b601f8211156120fa576120cb81611f9a565b6120d484611faf565b810160208510156120e3578190505b6120f76120ef85611faf565b830182612096565b50505b505050565b600082821c905092915050565b600061211d600019846008026120ff565b1980831691505092915050565b6000612136838361210c565b9150826002028217905092915050565b61214f8261179a565b67ffffffffffffffff81111561216857612167611f6b565b5b6121728254611d93565b61217d8282856120b9565b600060209050601f8311600181146121b0576000841561219e578287015190505b6121a8858261212a565b865550612210565b601f1984166121be86611f9a565b60005b828110156121e6578489015182556001820191506020850194506020810190506121c1565b8683101561220357848901516121ff601f89168261210c565b8355505b6001600288020188555050505b505050505050565b6000612223826118b4565b91507fffffffffffffffffffffffffffffffffffffffffffffffffffffffffffffffff820361225557612254611dc4565b5b600182019050919050565b7f4e487b7100000000000000000000000000000000000000000000000000000000600052603260045260246000fd5b7f4d656d6f727920646f6573206e6f742065786973740000000000000000000000600082015250565b60006122c56015836117a5565b91506122d08261228f565b602082019050919050565b600060208201905081810360008301526122f4816122b8565b9050919050565b7f416c726561647920766572696669656400000000000000000000000000000000600082015250565b60006123316010836117a5565b915061233c826122fb565b602082019050919050565b6000602082019050818103600083015261236081612324565b9050919050565b600060608201905061237c6000830186611ca0565b6123896020830185611960565b6123966040830184611960565b94935050505056fea264697066735822122045ce31ab255d2e1d70f079ecd4b1c4d3535ab265ec6d311d9db78c2f53cda07d64736f6c63430008140033",
  "linkReferences": {},
  "deployedLinkReferences": {}
}